:020000040000FA
:060000006FEF14F0120086
:0600080004EF08F01200F5
:060018000CEF08F01200DD
:061000006FEF14F0120076
:061008004BEF12F0120094
:0610180052EF12F012007D
:06102A0004006D29000026
:10103000CE0000001E0000006B290000FB00000035
:10104000020000001B2900006000000050000000AA
:0C10500018290000F6000000030000005A
:04105C00D9CFE6FF03
:10106000E1CFD9FFFD0EDBCFF9F0FE0EDBCFFAF0BA
:10107000E552E7CFD9FF1200D9CFE6FFE1CFD9FF84
:10108000FE0EDB500A0804E10D0EE66EF5DFE552B8
:101090000001FB51FC110BE0FBC0E9FFFCC0EAFFC3
:1010A000FB2B000EFC23FE0EDBCFEFFF0FD0000169
:1010B000F951FA110BE0FE0EDBCFE6FF05D0FAC0C6
:1010C000FAFF0001F951F96EFADFE552E552E7CF78
:1010D000D9FF1200D9CFE6FFE1CFD9FFFD0EDBCF5C
:1010E000F6FFFE0EDBCFF7FF0800F55011E0FD0E16
:1010F000DBCFF6FFFE0EDBCFF7FF0800F550E66E04
:10110000BBDFE552FD0EDB2AFE0EE8E3DB2AE6D765
:10111000E552E7CFD9FF1200D9CFE6FFE1CFD9FFE3
:10112000020EE126F9C0DEFFFAC0DDFFFD0EDBCFC7
:10113000F9F0FE0EDBCFFAF0FB0EDBCFF6FFFC0E74
:10114000DBCFF7FF0800F55011E0FB0EDBCFF6FF19
:10115000FC0EDBCFF7FF0800F550E66E8DDFE552A1
:10116000FB0EDB2AFC0EE8E3DB2AE6D7DECFF9F044
:10117000DDCFFAF0020EE15C02E2E16AE552E16ED7
:10118000E552E7CFD9FF1200D9CFE6FFE1CFD9FF73
:10119000020EE126D950FD0F146EFF0EDA20156EF7
:1011A00014C0DEFFDD6EDECFE6FFDDCFE6FFFD0E15
:1011B000DBCFE6FFFE0EDBCFE6FFC9D9E552E552F5
:1011C000E552E552020EE15C02E2E16AE552E16EAF
:1011D000E552E7CFD9FF1200D9CFE6FFE1CFD9FF23
:1011E000020EE126FD0EDBCFFBF0FE0EDBCFFCF0A6
:1011F000D950FB0F146EFF0EDA20156E14C0DEFFFF
:10120000DD6EDECFE6FFDDCFE6FFFB0EDBCFE6FFD8
:10121000FC0EDBCFE6FF9BD9E552E552E552E552E5
:10122000FBC0E9FFFCC0EAFFEF6A0001FB6BFC6B4F
:10123000020EE15C02E2E16AE552E16EE552E7CFBF
:10124000D9FF1200D9CFE6FFE1CFD9FF040EE12686
:10125000020EF9C0DBFF030EFAC0DBFFFD0EDBCF91
:10126000F9F0FE0EDBCFFAF0D950FB0F146EFF0E33
:10127000DA20156E14C0DEFFDD6EDECFE6FFDDCFB7
:10128000E6FFFB0EDBCFE6FFFC0EDBCFE6FF5FD910
:10129000E552E552E552E552020EDBCFF9F0030EBE
:1012A000DBCFFAF0040EE15C02E2E16AE552E16EA6
:1012B000E552E7CFD9FF1200D9CFE6FFE1CFD9FF42
:1012C000080EE126D950F90FE96EFF0EDA20EA6E1A
:1012D000EECFE6FFEECFE6FFEECFE6FFEFCFE6FF85
:1012E000B60EE66E280EE66E4FDF146E060EE15E59
:1012F0001450F50EDBCF08F0F60EDBCF09F0040E2C
:10130000081801E1095001E1DAD0020E081801E1E4
:10131000095001E19DD0010E081801E00AD10950E1
:1013200001E007D1FD0EDBCF08F0FE0EDBCF09F0A8
:10133000020E08C0DBFF030E09C0DBFFDE6ADD6AB8
:10134000DECF14F0DDCF15F0F70EDBCF16F0F80E80
:10135000DBCF17F015501718E8AE02D0173404D0C1
:101360001650145C175015581BE2020EDBCF14F018
:10137000030EDBCF15F0DE501424E96EDD5015208E
:10138000EA6EEF50E66EB00EE66E280EE66EFCDEFC
:10139000E552E552E552DF2A010ED2E3DB2AD0D72F
:1013A000200EE66E69DEE552DE6ADD6ADECF14F0FD
:1013B000DDCF15F0F70EDBCF16F0F80EDBCF17F010
:1013C00015501718E8AE02D0173404D01650145C2C
:1013D0001750155801E3ADD0020EDBCF15F0030E08
:1013E000DBCF16F0DE501524E96EDD501620EA6ED4
:1013F000EFCF14F0200E145C0FE3020EDBCF17F0DA
:10140000030EDBCF18F0DE501724E96EDD501820F4
:10141000EA6EEF507E0802E2000E01D0010E0009D4
:101420000EE0020EDBCF19F0030EDBCF1AF0DE5018
:101430001924E96EDD501A20EA6EEF5001D02E0E0D
:10144000E66E1ADEE552DF2A010EB0E3DB2AAED7E4
:10145000FD0EDBCF08F0FE0EDBCF09F0040E08C056
:10146000DBFF050E09C0DBFFD950040FE96EDACFB0
:10147000EAFFEECFF3FFEDCFF4FF020EEE26000EF3
:10148000EF22F3CFE9FFF4CFEAFFEECFE6FFEFCF95
:10149000E6FFAA0EE66E280EE66E76DEE552E5520F
:1014A000E552E552F70EDB06DBCF14F0F80E01E251
:1014B000DB06DBCF15F014501510D6E13AD0FD0E47
:1014C000DBCF08F0FE0EDBCF09F0060E08C0DBFF15
:1014D000070E09C0DBFFD950060FE96EDACFEAFF2D
:1014E000EECFF3FFEDCFF4FF040EEE26000EEF2259
:1014F000F3CFE9FFF4CFEAFFEECFE6FFEECFE6FF52
:10150000EECFE6FFEFCFE6FFA30EE66E280EE66E07
:101510003BDE146E060EE15E1450F70EDB06DBCFE9
:1015200014F0F80E01E2DB06DBCF15F014501510B5
:10153000D2E10A0EE66EA0DDE552080EE15C02E2A1
:10154000E16AE552E16EE552E7CFD9FF1200D9CF4B
:10155000E6FFE1CFD9FF220EE126FD0EDBCFF6FF3D
:10156000DB2AFE0EDBCFF7FF01E3DB2A08001E0EAD
:10157000F5CFDBFFDB5001E13CD31E0EDB5025082D
:1015800001E0CAD0080EDB6A090EDB6AFD0EDBCF74
:10159000F6FFDB2AFE0EDBCFF7FF01E3DB2A0800B4
:1015A0001E0EF5CFDBFFDB50300811E1010EF36EAC
:1015B000080EF3CFDBFF090EDB6AFD0EDBCFF6FF73
:1015C000DB2AFE0EDBCFF7FF16E3DB2A14D01E0E5C
:1015D000DB502D0814E1020EF36E080EF3CFDBFF93
:1015E000090EDB6AFD0EDBCFF6FFDB2AFE0EDBCF3A
:1015F000F7FF01E3DB2A08001E0EF5CFDBFF060E26
:10160000DB6A070EDB6A300EF36E1E0EDBCFF4FFD3
:10161000F350F45C33E31E0EDB5039082FE31E0E4B
:10162000DBCF16F0176A16BE17680A0E086E096A35
:10163000060EDBCF0DF0070EDBCF0EF02CEC14F016
:1016400006501624146E07501720156E300E145EC7
:10165000000E155A060E14C0DBFF070E15C0DBFF87
:10166000FD0EDBCFF6FFDB2AFE0EDBCFF7FF01E33B
:10167000DB2A08001E0EF5CFDBFFC5D71E0EDB50A0
:101680006C0804E01E0EDB504C0814E1D950080F22
:10169000E96EDACFEAFFEE84ED52FD0EDBCFF6FF06
:1016A000DB2AFE0EDBCFF7FF01E3DB2A08001E0E6C
:1016B000F5CFDBFF1E0EDB5001E19BD21E0EDB508F
:1016C000E76E1F0EE7CFDBFF610EF36E1F0EDBCF61
:1016D000F4FFF350F45C0AE3200E146E1F0EDBCF10
:1016E000E7FF1450E75E1F0EE7CFDBFF1F0EDB5056
:1016F000580A01E1A7D01C0A01E1A2D0110A01E1B8
:101700009FD01A0A01E19AD00D0A01E195D0010A91
:1017100001E179D0100A04E01E0EDBCFE6FF89D08C
:10172000FB0EDBCF14F0FC0EDBCF15F0020E145EC7
:10173000000E155AFB0E14C0DBFFFC0E15C0DBFFBC
:1017400014C0E9FF15C0EAFF200EEECFDBFF210E2B
:10175000EDCFDBFF040EDB6A050EDB6A040EDBCF88
:1017600014F0050EDBCF15F0200EDB501424E96ECB
:10177000210EDB501520EA6EEF5006E0040EDB2A46
:10178000050EECE3DB2AEAD7080EDB50020B19E169
:10179000040EDBCF14F0DB2A050EDBCF15F001E3DE
:1017A000DB2A060EDBCF16F0070EDBCF17F0165044
:1017B000145C1750155805E2200EE66E5DDCE5520C
:1017C000E3D7200EDBCFE6FF210EDBCFE6FF82DC86
:1017D000E552E552040EDBCF14F0DB2A050EDBCF19
:1017E00015F001E3DB2A060EDBCF16F0070EDBCF88
:1017F00017F01650145C1750155801E3AED6200EA2
:10180000E66E3ADCE6D7FB0EDBCF14F0FC0EDBCF46
:1018100015F0020E145E000E155AFB0E14C0DBFF0D
:10182000FC0E15C0DBFF14C0E9FF15C0EAFFEF5046
:10183000E66E22DCE55291D6020E05D0080E03D0EA
:101840000A0E01D0100EDE6EDD6A080EDB50040BAE
:101850001DE0FB0EDBCF18F0FC0EDBCF19F0040E01
:10186000185E000E195AFB0E18C0DBFFFC0E19C0E3
:10187000DBFF18C0E9FF19C0EAFFEECF14F0EECF8E
:1018800015F0EECF16F0EFCF17F03DD01F0EDB5066
:1018900044081FE1FB0EDBCF1AF0FC0EDBCF1BF080
:1018A000020E1A5E000E1B5AFB0E1AC0DBFFFC0E66
:1018B0001BC0DBFF1AC0E9FF1BC0EAFFEECF14F02C
:1018C000EFCF15F0166A176A15AE1DD016681768A7
:1018D0001AD0FB0EDBCF1CF0FC0EDBCF1DF0020E8E
:1018E0001C5E000E1D5AFB0E1CC0DBFFFC0E1DC053
:1018F000DBFF1CC0E9FF1DC0EAFFEECF14F0EFCF05
:1019000015F0166A176A0A0E14C0DBFF0B0E15C01D
:10191000DBFF0C0E16C0DBFF0D0E17C0DBFF1F0E2A
:10192000DB5044083CE1146A156A166A800E176E93
:10193000D9500A0FE96EDACFEAFFEE501416EE50D6
:101940001516EE501616EE501716145015101610E8
:10195000171025E00A0EDBCF06F00B0EDBCF07F0E9
:101960000C0EDBCF08F00D0EDBCF09F00B680C6816
:101970000D680E68D0EC13F00A0E02C0DBFF0B0EF0
:1019800003C0DBFF0C0E04C0DBFF0D0E05C0DBFF48
:10199000D950080FE96EDACFEAFFEE86ED52020E5B
:1019A000DB6A030EDB6ADECF14F0DDCF15F0166ABA
:1019B000176A14C00BF015C00CF016C00DF017C05C
:1019C0000EF00A0EDBCF06F00B0EDBCF07F00C0E8D
:1019D000DBCF08F00D0EDBCF09F008EC14F01F0E82
:1019E00002C0DBFFDECF14F0DDCF15F0166A176AF8
:1019F000D9500A0FE96EDACFEAFF14C00BF015C018
:101A00000CF016C00DF017C00EF0EECF06F0EECFC2
:101A100007F0EECF08F0EFCF09F008EC14F009C0A2
:101A2000EDFF08C0EDFF07C0EDFF06C0EFFF1F0E82
:101A3000DBCF14F0090EE76E1418E8AE02D01434B0
:101A400003D0E750D880145410E21E0EDB50780803
:101A500002E1270E01D0070E146E1F0EDBCFE7FF49
:101A60001450E7261F0EE7CFDBFF1F0EDB50300FB1
:101A7000E66ED9500E0F146EDACF15F0020EDBCFE2
:101A800016F0DB2A030EDBCF17F001E3DB2A14503C
:101A90001624E96E15501720EA6EE552E750EF6EF6
:101AA0000A0EDBCF14F00B0EDBCF15F00C0EDBCFE4
:101AB00016F00D0EDBCF17F014501510161017107E
:101AC0000CE0020EDBCF18F0030EDBCF19F0100E86
:101AD000185C000E195801E266D7080EDB50080B9F
:101AE00016E0D9500E0F146EDACF15F0020EDBCFD0
:101AF00016F0DB2A030EDBCF17F001E3DB2A1450CC
:101B00001624E96E15501720EA6E2D0EEF6E020EA8
:101B1000DBCF08F0030EDBCF09F0040E08C0DBFFBB
:101B2000050E09C0DBFF080EDB50010B02E0300E92
:101B300001D0200EE76E1F0EE7CFDBFF080EDB5053
:101B4000020B1BE1040EDBCF14F0DB2A050EDBCF0A
:101B500015F001E3DB2A060EDBCF16F0070EDBCF14
:101B600017F01650145C1750155807E21F0EDBCF04
:101B7000E6FF3CEC08F0E552E1D7D9500E0F146EA9
:101B8000DACF15F0020EDB06DBCF16F0030E01E212
:101B9000DB06DBCF17F014501624E96E1550172022
:101BA000EA6EEF50E66E3CEC08F0E552D950020FB9
:101BB000E96EDACFEAFFEE50ED10DFE1040EDBCF85
:101BC00014F0DB2A050EDBCF15F001E3DB2A060E4D
:101BD000DBCF16F0070EDBCF17F01650145C175052
:101BE000155801E3BAD4200EE66E3CEC08F0E5523D
:101BF000E5D7220EE15C02E2E16AE552E16EE552D0
:061C0000E7CFD9FF12003E
:0A1C0600D9CFE6FFE1CFD9FF020EAF
:101C1000E126D950FB0FE96EFF0EDA20EA6EEECF17
:101C2000E6FFEECFE6FFEECFE6FFEFCFE6FF2BD9E4
:101C3000E552E552E552E552F3CFDEFFF4CFDDFF8A
:101C4000DECF14F0DDCF15F00A0E145C000E15582F
:101C500023E2D950FB0FE96EFF0EDA20EA6EEECFD9
:101C6000E6FFEECFE6FFEECFE6FFEFCFE6FF60D96F
:101C7000E552E552E552E552F3CFDEFFF4CFDDFF4A
:101C8000D9CFE9FFDACFEAFFEE50ED1005E1066AA1
:101C9000076A086A096A10D07E86DECF14F0DDCFAD
:101CA00015F015C014F0156A14507F6EDF50B06E39
:101CB0009F98AC8EAD8A91D9020EE15C02E2E16A96
:101CC000E552E16EE552E7CFD9FF1200D9CFE6FF2A
:101CD000E1CFD9FFFE0EDB5002E19F9801D09F8833
:101CE000E552E7CFD9FF1200D9CFE6FFE1CFD9FF08
:101CF000FE0EDB5002E19F9A01D09F8AE552E7CFAA
:101D0000D9FF1200D9CFE6FFE1CFD9FFAD407F0B5D
:101D1000010BFCE0FE0EDB50AE6EE552E7CFD9FFC3
:101D20001200D9CFE6FFE1CFD9FFFD0EDBCFF6FFE2
:101D3000FE0EDBCFF7FF0800F55011E0FD0EDBCF04
:101D4000F6FFFE0EDBCFF7FF0800F550E66EDADF98
:101D5000E552FD0EDB2AFE0EE8E3DB2AE6D7E5526C
:101D6000E7CFD9FF1200D9CFE6FFE1CFD9FF0001BD
:101D7000F65126E1FC0EDB5023E0010EF66FF76B07
:101D8000FC0EDBCFF8F0DBCFE6FFE66AFD0EDBCF23
:101D9000E6FFFE0EDBCFE6FFB00EE66E000EE66E4F
:101DA00025EC13F0146E060EE15E14500001F7519D
:101DB000EA6AB00FE96E000EEA22EF50AE6E9D881F
:101DC000E552E7CFD9FF1200D9CFE6FFE1CFD9FF27
:101DD0000001F6512DE1FC0EDB502AE0010EF66FFA
:101DE000F76BFC0EDBCFF8F0DBCFE6FFE66AFD0E0B
:101DF000DBCF14F0FE0EDBCF15F0166A14C0E6FF41
:101E000015C0E6FF16C0E6FFB00EE66E000EE66EE9
:101E100050EC13F0176E070EE15E17500001F751FA
:101E2000EA6AB00FE96E000EEA22EF50AE6E9D88AE
:101E3000E552E7CFD9FF12000001F65112009E389B
:101E40000F0B010B15E00001F60512E1F807F85140
:101E50000DE01E0EF75D0AE2F72BF751EA6AB00FAC
:101E6000E96E000EEA22EF50AE6E12009D98F66BFE
:101E700012009E5012009E50E00BE838E840010B23
:101E8000FAE0AF501200D9CFE6FFE1CFD9FF020E42
:101E9000E126AD94FB0EDBCF1CF0FC0EDBCF1DF07A
:101EA000FD0EDBCF1EF0FE0EDBCF1FF0040ED89030
:101EB0001C361D361E361F36E806F9E1186A1B0E61
:101EC000196EB70E1A6E1B6A18C006F019C007F01B
:101ED000086E1BC009F01CC00BF01DC00CF01EC02A
:101EE0000DF01FC00EF008EC14F006C014F007C08F
:101EF00015F008C016F009C017F01406000E155AA8
:101F0000165A175A14C0DEFF15C0DDFFDECF14F0DD
:101F1000DDCF15F014C0F3FF15C0F4FF020EE15C35
:101F200002E2E16AE552E16EE552E7CFD9FF120025
:101F3000D9CFE6FFE1CFD9FF020EE126AD84FB0E3B
:101F4000DBCF1CF0FC0EDBCF1DF0FD0EDBCF1EF057
:101F5000FE0EDBCF1FF0020ED8901C361D361E364B
:101F60001F36E806F9E1186A1B0E196EB70E1A6ED5
:101F70001B6A18C006F019C007F0086E1BC009F0F4
:101F80001CC00BF01DC00CF01EC00DF01FC00EF0E9
:101F900008EC14F006C014F007C015F008C016F0E5
:101FA00009C017F01406000E155A165A175A14C015
:101FB000DEFF15C0DDFFDECF14F0DDCF15F014C05D
:101FC000F3FF15C0F4FF020EE15C02E2E16AE552A4
:101FD000E16EE552E7CFD9FF1200D9CFE6FFE1CF9E
:101FE000D9FF0C0EE126AD50E840E8403F0B010B55
:101FF00004E1100EF36E040E02D0040EF36EF3CF64
:10200000DBFF050EDB6A060EDB6A070EDB6A7F501C
:10201000176E166AB05000011610146E17C015F036
:10202000080E14C0DBFF090E17C0DBFF0A0EDB6AC7
:102030000B0EDB6A010E1C6E1D6A1E6A1F6AD950E8
:10204000080FE96EDACFEAFFEE501C26EE501D2293
:10205000EE501E22EE501F221CC006F01DC007F0DD
:102060001EC008F01FC009F0040EDBCF0BF0050EF8
:10207000DBCF0CF0060EDBCF0DF0070EDBCF0EF042
:10208000D0EC13F002C018F003C019F004C01AF02D
:1020900005C01BF0146A1B0E156EB70E166E176A7C
:1020A00014C006F015C007F0086E17C009F002C092
:1020B0000BF003C00CF004C00DF005C00EF008ECEE
:1020C00014F006C0DEFF07C0DEFF08C0DEFF09C057
:1020D000DDFFDD52DD52DECF06F0DECF07F0DECFD2
:1020E00008F0DDCF09F0DD52DD520C0EE15C02E2BA
:0E20F000E16AE552E16EE552E7CFD9FF12003A
:0220FE00D9CF38
:10210000E6FFE1CFD9FFFD0EDB96DB98DB9ADB9C87
:10211000DB9EFC0EDB92DB94DB96DB98DB9ADB9C90
:10212000DB9EDB501DE1010EF36EFD0EDB5004E083
:10213000D890F336E806FCE1F350F31C146EFE0E63
:10214000EA6ADB34FE0BEA36E96ECE0EE926000EB3
:10215000EA22EE50EFCFEAFFE96E1450EF161AD0E4
:10216000010EF36EFD0EDB5004E0D890F336E80666
:10217000FCE1F350FE0EEA6ADB34FE0BEA36E96E50
:10218000CE0EE926000EEA22EE50EFCFEAFFE96E0E
:10219000F350EF12E552E7CFD9FF1200D9CFE6FF97
:1021A000E1CFD9FFFD0EDB96DB98DB9ADB9CDB9E53
:1021B000FC0EDB92DB94DB96DB98DB9ADB9CDB9EF0
:1021C000DB041BE1010EF36EFD0EDB5004E0D89042
:1021D000F336E806FCE1F350FE0EEA6ADB34FE0B50
:1021E000EA36E96EE20EE926000EEA22EE50EFCF63
:1021F000EAFFE96EF350EF121CD0010EF36EFD0EF4
:10220000DB5004E0D890F336E806FCE1F350F31C11
:10221000146EFE0EEA6ADB34FE0BEA36E96EE20E5D
:10222000E926000EEA22EE50EFCFEAFFE96E1450E5
:10223000EF16E552E7CFD9FF1200D9CFE6FFE552FE
:10224000E7CFD9FF1200D9CFE6FFE1CFD9FFFD0ECE
:10225000DB96DB98DB9ADB9CDB9E010EF36EFD0EBA
:10226000DB5004E0D890F336E806FCE1F350FE0EB4
:10227000EA6ADB34FE0BEA36E96EE20EE926000E6E
:10228000EA22EE50EFCFEAFFE96EF350EF1AE55283
:10229000E7CFD9FF1200D9CFE6FFE1CFD9FFFD0E7E
:1022A000DB96DB98DB9ADB9CDB9EDBCF14F0FE0E2B
:1022B000EA6ADB34FE0BEA36E96ED80EE926000E38
:1022C000EA22EE50EFCFEAFFE96EEF5014C0E7FFCD
:1022D000E75204E0E8427F0BE706FCE1010BE55220
:1022E000E7CFD9FF1200D9CFE6FFE1CFD9FFFE0E2D
:1022F000EA6ADB34FE0BEA36E96EE20EE926000EEE
:10230000EA22EE50EFCFEAFFE96EFD0EDBCFEFFFE2
:10231000E552E7CFD9FF1200D9CFE6FFE1CFD9FFD1
:10232000FE0EEA6ADB34FE0BEA36E96ED80EE926C9
:10233000000EEA22EE50EFCFEAFFE96EEF50E552D1
:10234000E7CFD9FF1200D9CFE6FFE1CFD9FFFE0ECC
:10235000EA6ADB34FE0BEA36E96ECE0EE926000EA1
:10236000EA22EE50EFCFEAFFE96EFD0EDBCFEFFF82
:10237000E552E7CFD9FF1200D9CFE6FFE1CFD9FF71
:10238000FE0EEA6ADB34FE0BEA36E96ECE0EE92673
:10239000000EEA22EE50EFCFEAFFE96EEF50E55271
:1023A000E7CFD9FF1200D9CFE6FFE552E7CFD9FF3B
:1023B0001200D9CFE6FF000EE552E7CFD9FF120099
:1023C000D9CFE6FFE1CFD9FF150EE126010EDB6A7A
:1023D000D950020FE96EDACFEAFFEE6AEE6AEE6AD2
:1023E000EE6AEE6AEE6AEE6AEE6AEE6AEE6AEE6A2D
:1023F000EE6AEE6AEE6AEE6AEE6AEE6AEE6AEE6A1D
:102400000F0148694969E66A060EE66E020EE66E3D
:102410007FEC10F0E552E552E552E66AC20EE66E38
:10242000010EE66EE66A03EC0EF0E552E552E55267
:10243000E552C7EC12F0230EE66EE66A380EE66E41
:10244000E668940EE66E280EE66ED950010FE66E31
:10245000000EDA20E66EECEC08F0146E080EE15E79
:102460001450D950010FE66E000EDA20E66E73ECC0
:1024700013F0E552E552F350DF6EDFCFE6FFD9509F
:10248000010FE66E000EDA20E66EB3EC0EF0E552B8
:10249000E552E552FFD7DACFE4FFE652E552E5CF49
:1024A000DAFF1100D8CFE4FFE0CFE4FFE46EDACF2B
:1024B000E4FFE2CFDAFFE9CFE4FFEACFE4FFF6CFB3
:1024C000E4FFF7CFE4FFF5CFE4FFF3CFE4FFF4CF71
:1024D000E4FFFACFE4FF00EE00F0140EE80403E39B
:1024E000EECFE4FFFBD700EE14F00C0EE80403E39C
:1024F000EECFE4FFFBD7E6521FEC0FF0E55200EE03
:102500001FF00C0EE80403E3E5CFEDFFFBD700EE70
:1025100013F0140EE80403E3E5CFEDFFFBD7E5CF9E
:10252000FAFFE5CFF4FFE5CFF3FFE5CFF5FFE5CF09
:10253000F7FFE5CFF6FFE5CFEAFFE5CFE9FFE5CF0F
:0E254000DAFFE550E5CFE0FFE5CFD8FF100051
:02254E00D9CFE3
:10255000E6FFE1CFD9FF020EE126580EDE6E020E35
:10256000DD6E9B8CDFCF14F0DF06010EDBCF15F0A4
:1025700001E2DB0614501510F5E1020EE15C02E207
:10258000E16AE552E16EE552E7CFD9FF1200F28E23
:10259000F28CD08E1200F29EF29CD09E1200D9CF07
:1025A000E6FFE1CFD9FF42D8FE0EDB500E0812E362
:1025B000FE0EEA6ADB34FE0BEA36E96E600EE926AF
:1025C000000EEA22EE50EFCFEAFFE96EFD0EDBCF00
:1025D000EFFF27D0650EF36EFE0EDBCFF4FFF35056
:1025E000F45C1FE3FE0EDB5079081BE3640E146EEF
:1025F0000E6EFE0EDBCF09F07DEC14F00550E66E9A
:10260000FD0EEA6ADB34FE0BEA36E96E7E0EE92641
:10261000000EEA22EE50EFCFEAFFE96EE552E750F6
:10262000EF6E0BD8E552E7CFD9FF1200550EA76E1B
:10263000AA0EA76E0E01FF6B1200550EA76EAA0E12
:0A264000A76E0E01010EFF6F1200DD
:06264A00D9CFE6FFDACF54
:10265000E6FFFA0EE3CFD9FFFB0EE3CFDAFFFC0E65
:10266000E3CFE9FFFD0EE3CFEAFFE9CFF3FFEACFC7
:10267000F4FFF80EE35003E1F90EE35008E0F80E22
:10268000E30602E2F90EE306DECFEEFFF2D7FF0E1D
:10269000E3CFDAFFE552FF0EE3CFD9FFE552120098
:1026A000FB0EE3CFF6FFFC0EE3CFF7FFFD0EE3CF0B
:1026B000F8FFFE0EE3CFE9FFFF0EE3CFEAFFE9CF1D
:1026C000F3FFEACFF4FFF90EE35003E1FA0EE35013
:1026D00009E0F90EE30602E2FA0EE3060900F5CF7F
:1026E000EEFFF1D71200FE0EE3CFE9FFFF0EE3CFBE
:1026F000EAFFF36AF46AEE5203E0F34AF42AFBD7E6
:022700001200C5
:0E2702002A0EF66E100EF76E000EF86E000135
:102710000900F550F16F0900F550F26F03E1F16720
:1027200001D03DD00900F550EC6F0900F550ED6F78
:102730000900F550EE6F09000900F550E96E090037
:10274000F550EA6E090009000900F550EF6F090025
:10275000F550F06F09000900F6CFF3F0F7CFF4F071
:10276000F8CFF5F0ECC0F6FFEDC0F7FFEEC0F8FFD4
:102770000001EF5302E1F05307E00900F550EE6E5F
:10278000EF07F8E2F007F9D7F3C0F6FFF4C0F7FF60
:10279000F5C0F8FF0001F107000EF25BBFD7120091
:1027A00006500B02F3CF02F0F4CF03F00C02F3500B
:1027B0000326000EF420046E06500D02F35004268A
:1027C000000EF420056E06500E02F3500526075049
:1027D0000B02F3500326F4500422000E052207508A
:1027E0000C02F3500426F450052207500D02F3505A
:1027F000052608500B02F3500426F4500522085019
:102800000C02F350052609500B02F3500526120066
:10281000056A046A036A026A200EE76ED8900636DB
:1028200007360836093602360336043605360B50AD
:10283000025C0C5003580D5004580E50055809E323
:102840000B50025E0C50035A0D50045A0E50055A9C
:08285000062AE72EE4D712006E
:0828580008C012F008500D0247
:10286000F4CF07F0F3CF06F009500E02F4CF09F0D1
:10287000F3CF08F00D02F3500726F4500822E86A5F
:10288000092212500E02F3500726F4500822E86A7B
:042890000922000C0D
:0C289400436164656E612025642C2025E2
:1028A000640A00202530384C580020253034580068
:0D28B0002025303258002530386C582000AB
:0228BE00C00E4A
:1028C000F36E00EE00F00E0E01D81200EA6002D0A6
:0E28D000EE6AFCD7F350E9601200EE6AFCD706
:0228DE001DEEED
:1028E00000F02DEE00F0F86A019C81EC13F08BEC07
:0A28F00014F0E0EC11F0FBD7120029
:0628FA00056A080EE76EFE
:10290000D890093605360E50055C02E3056E092A9B
:06291000E72EF7D71200CC
:022916001200AD
:03291800001E019D
:05291B00E70EE80EE9E3
:102920000EEA0EEC0EED0EEE0EF20EF30EF60EF7B4
:102930000EFB0EFC0EFD0EFE0EC60EC70EC80EC917
:102940000ECA0ECB0ECC0ECD0ECE0ECF0ED00ED1AB
:102950000ED20ED30E000000000000D70ED80ED904
:0B2960000EDA0EDB0EDC0EDD0EDE0ECC
:02296B0000006A
:03296D00920F9333
:102970000F940F950F960F800F810F820F830F8496
:0B2980000F890F8A0F8B0F8C0F8D0F3B
:017FF800AFD9
:00000001FF
