:020000040000FA
:0600000033EF0CF01200CA
:0600080004EF08F01200F5
:060018000CEF08F01200DD
:0610000033EF0CF01200BA
:061008003AEF0AF01200AD
:0610180041EF0AF0120096
:06102A000300F4180000B1
:10103000B00000001E000000F0180000EA000000F0
:1010400004000000A0180000600000005000000034
:10105000D9CFE6FFE1CFD9FFFD0EDB96DB98DB9A17
:10106000DB9CDB9EFC0EDB92DB94DB96DB98DB9A51
:10107000DB9CDB9EDB501DE1010EF36EFD0EDB50B1
:1010800004E0D890F336E806FCE1F350F31C106E50
:10109000FE0EEA6ADB34FE0BEA36E96EB00EE92694
:1010A000000EEA22EE50EFCFEAFFE96E1050EF1685
:1010B0001AD0010EF36EFD0EDB5004E0D890F3362B
:1010C000E806FCE1F350FE0EEA6ADB34FE0BEA367A
:1010D000E96EB00EE926000EEA22EE50EFCFEAFFED
:1010E000E96EF350EF12E552E7CFD9FF1200D9CFE6
:1010F000E6FFE1CFD9FFFD0EDB96DB98DB9ADB9CA8
:10110000DB9EFC0EDB92DB94DB96DB98DB9ADB9CB0
:10111000DB9EDB041BE1010EF36EFD0EDB5004E0F1
:10112000D890F336E806FCE1F350FE0EEA6ADB34B1
:10113000FE0BEA36E96EC40EE926000EEA22EE50F6
:10114000EFCFEAFFE96EF350EF121CD0010EF36E01
:10115000FD0EDB5004E0D890F336E806FCE1F350D6
:10116000F31C106EFE0EEA6ADB34FE0BEA36E96E03
:10117000C40EE926000EEA22EE50EFCFEAFFE96E38
:101180001050EF16E552E7CFD9FF1200D9CFE6FF96
:10119000E552E7CFD9FF1200D9CFE6FFE1CFD9FF63
:1011A000FD0EDB96DB98DB9ADB9CDB9E010EF36E7B
:1011B000FD0EDB5004E0D890F336E806FCE1F35076
:1011C000FE0EEA6ADB34FE0BEA36E96EC40EE9264F
:1011D000000EEA22EE50EFCFEAFFE96EF350EF1A6D
:1011E000E552E7CFD9FF1200D9CFE6FFE1CFD9FF13
:1011F000FD0EDB96DB98DB9ADB9CDB9EDBCF10F0F1
:10120000FE0EEA6ADB34FE0BEA36E96EBA0EE92618
:10121000000EEA22EE50EFCFEAFFE96EEF5010C069
:10122000E7FFE75204E0E8427F0BE706FCE1010B31
:10123000E552E7CFD9FF1200D9CFE6FFE1CFD9FFC2
:10124000FE0EEA6ADB34FE0BEA36E96EC40EE926CE
:10125000000EEA22EE50EFCFEAFFE96EFD0EDBCF83
:10126000EFFFE552E7CFD9FF1200D9CFE6FFE1CF7C
:10127000D9FFFE0EEA6ADB34FE0BEA36E96EBA0EDF
:10128000E926000EEA22EE50EFCFEAFFE96EEF50BA
:10129000E552E7CFD9FF1200D9CFE6FFE1CFD9FF62
:1012A000FE0EEA6ADB34FE0BEA36E96EB00EE92682
:1012B000000EEA22EE50EFCFEAFFE96EFD0EDBCF23
:1012C000EFFFE552E7CFD9FF1200D9CFE6FFE1CF1C
:1012D000D9FFFE0EEA6ADB34FE0BEA36E96EB00E89
:1012E000E926000EEA22EE50EFCFEAFFE96EEF505A
:1012F000E552E7CFD9FF1200D9CFE6FFE552E7CF9D
:10130000D9FF1200D9CFE6FF000EE552E7CFD9FF93
:021310001200C9
:0E131200D9CFE6FFE1CFD9FFE652010EDF6E24
:101320000F014869496996EC0AF0640E066E076A77
:10133000EAC00BF0EBC00CF00DEC0CF006C010F0A6
:1013400007C011F006C0E6FF07C0E6FFE66AEFEC53
:101350000AF0E552E552E552F40E066E010E076EF4
:10136000EAC00BF0EBC00CF00DEC0CF006C010F076
:1013700007C011F006C0E6FF07C0E6FF010EE66EEB
:10138000EFEC0AF0E552E552E552E66A010EE66E30
:10139000E66A28EC08F0E552E552E552E66A010EED
:1013A000E66E4CEC09F0E552E55260EC0BF0E66AB3
:1013B000CEEC0AF0E552F3CF10F0F4CF11F0F35079
:1013C000F4101EE1640E066E076AEAC00BF0EBC073
:1013D0000CF00DEC0CF006C010F007C011F006C0C8
:1013E000E6FF07C0E6FFE66AEFEC0AF0E552E552D9
:1013F000E552010EE66EE66ACCEC08F0E552E552E5
:10140000010EE66ECEEC0AF0E552F3CF10F0F4CF09
:1014100011F0F350F410CBE1F40E066E010E076EDE
:10142000EAC00BF0EBC00CF00DEC0CF006C010F0B5
:1014300007C011F006C0E6FF07C0E6FF010EE66E2A
:10144000EFEC0AF0E552E552E552DFCFE6FF010E80
:10145000E66E1CEC09F0E552E552010EE66E35EC45
:1014600009F0E552DF6EDF9EDF46DF50A0E1010E9E
:10147000DF6E9DD7DACFE4FFE652E552E5CFDAFF23
:101480001100D8CFE4FFE0CFE4FFE46EDACFE4FF51
:10149000E2CFDAFFE9CFE4FFEACFE4FFF6CFE4FFE3
:1014A000F7CFE4FFF5CFE4FFF3CFE4FFF4CFE4FFA1
:1014B000FACFE4FF00EE00F0100EE80403E3EECFF5
:1014C000E4FFFBD700EE10F0020EE80403E3EECFDA
:1014D000E4FFFBD7E6520BEC0BF0E55200EE11F007
:1014E000020EE80403E3E5CFEDFFFBD700EE0FF0BB
:1014F000100EE80403E3E5CFEDFFFBD7E5CFFAFFDD
:10150000E5CFF4FFE5CFF3FFE5CFF5FFE5CFF7FF3C
:10151000E5CFF6FFE5CFEAFFE5CFE9FFE5CFDAFF5C
:0C152000E550E5CFE0FFE5CFD8FF10005C
:04152C00D9CFE6FF2E
:10153000E1CFD9FFE652F2940001AC0EEC6FF80E49
:10154000ED6FE850D76EECC0D6FF020ED56ED58E8B
:10155000F194F28ADF6A090EDF5C0DE2EA6ADF3499
:10156000FE0BEA36E96ECE0EE926000EEA22EE6A9E
:10157000ED6ADF2AF0D7E552E552E7CFD9FF120036
:10158000D9CFE6FFE1CFD9FFFE0EDB5002E1F194A7
:1015900001D0F184E552E7CFD9FF1200D9CFE6FFA1
:1015A000E1CFD9FFFE0EDB50090803E2F36AF46ACB
:1015B00012D0FE0EEA6ADB34FE0BEA36E96ECE0E7E
:1015C000E926000EEA22EECF10F0EFCF11F010C0A6
:1015D000F3FF11C0F4FFE552E7CFD9FF1200D9CFD6
:1015E000E6FFE1CFD9FFFE0EDB50090810E3FE0E47
:1015F000EA6ADB34FE0BEA36E96ECE0EE926000E0F
:10160000EA22FC0EDBCFEEFFFD0EDBCFEDFFE55255
:10161000E7CFD9FF1200D9CFE6FFE1CFD9FFE652DD
:10162000090EDF6EF250E840E8403F0B010B23E06B
:10163000F294EDC010F01050D76EECC0D6FFDF5022
:101640001AE0DF06EA6ADF34FE0BEA36E96ECE0EF8
:10165000E926000EEA22EE50ED10F1E0EA6ADF34EE
:10166000FE0BEA36E96ECE0EE926000EEA22EE0601
:10167000000EEF5AE4D7E552E552E7CFD9FF12004A
:10168000D9CFE6FFE1CFD9FF020EE126580EDE6E7C
:10169000020EDD6E9B8CDFCF10F0DF06010EDBCF7C
:1016A00011F001E2DB0610501110F5E1020EE15CD1
:1016B00002E2E16AE552E16EE552E7CFD9FF12009E
:1016C000F28EF28CD08E1200F29EF29CD09E12000E
:1016D000D9CFE6FFE1CFD9FF42D8FE0EDB500E088E
:1016E00012E3FE0EEA6ADB34FE0BEA36E96E600EA8
:1016F000E926000EEA22EE50EFCFEAFFE96EFD0E7A
:10170000DBCFEFFF27D0650EF36EFE0EDBCFF4FFCD
:10171000F350F45C1FE3FE0EDB5079081BE3640E0C
:10172000106E0C6EFE0EDBCF07F041EC0CF0035098
:10173000E66EFD0EEA6ADB34FE0BEA36E96E7E0EDB
:10174000E926000EEA22EE50EFCFEAFFE96EE552FD
:10175000E750EF6E0BD8E552E7CFD9FF1200550ED8
:10176000A76EAA0EA76E0E01FF6B1200550EA76E94
:0C177000AA0EA76E0E01010EFF6F120002
:04177C002A0EF66ECD
:10178000100EF76E000EF86E00010900F550E56FBF
:101790000900F550E66F03E1E56701D03DD009008F
:1017A000F550E06F0900F550E16F0900F550E26F68
:1017B00009000900F550E96E0900F550EA6E0900CC
:1017C00009000900F550E36F0900F550E46F0900C6
:1017D0000900F6CFE7F0F7CFE8F0F8CFE9F0E0C086
:1017E000F6FFE1C0F7FFE2C0F8FF0001E35302E1BA
:1017F000E45307E00900F550EE6EE307F8E2E40772
:10180000F9D7E7C0F6FFE8C0F7FFE9C0F8FF00012D
:0A181000E507000EE65BBFD71200EB
:06181A00036A026A100ED1
:10182000E76ED89006360736023603360B50025C58
:101830000C50035805E30B50025E0C50035A062A65
:06184000E72EF0D71200B4
:0A184600C00EF36E00EE00F00E0E6F
:1018500001D81200EA6002D0EE6AFCD7F350E960CA
:061860001200EE6AFCD745
:0A1866001DEE00F02DEE00F0F86A10
:101870000F9CBEEC0BF04FEC0CF089EC09F0FBD7A1
:02188000120054
:0E188200036A080EE76ED890073603360C5046
:0E189000035C02E3036E072AE72EF7D712006F
:02189E00120036
:1018A000E70EE80EE90EEA0EEC0EED0EEE0EF20E6D
:1018B000F30EF60EF70EFB0EFC0EFD0EFE0EC60E20
:1018C000C70EC80EC90ECA0ECB0ECC0ECD0ECE0E54
:1018D000CF0ED00ED10ED20ED30E000000000000AD
:1018E000D70ED80ED90EDA0EDB0EDC0EDD0EDE0EB4
:0418F00005000000EF
:0C18F400920F930F940F950F960F800F2A
:10190000810F820F830F840F890F8A0F8B0F8C0F2B
:021910008D0F39
:017FF800AFD9
:00000001FF
