:020000040000FA
:0600000003EF10F01200F6
:0600080004EF08F01200F5
:060018000CEF08F01200DD
:0610000003EF10F01200E6
:061008006AEF0DF012007A
:06101800B5EF0DF012001F
:06102A000400CC200000D0
:10103000DA0000001E000000C8200000F8000000D8
:101040000400000078200000600000005000000054
:0C1050004E200000B00000002A0000004C
:04105C00D9CFE6FF03
:10106000E1CFD9FF020EE126D950FA0FE96EFF0E4B
:10107000DA20EA6EEECFE6FFEECFE6FFEECFE6FF38
:10108000EFCFE6FFFE0EDBCFE6FFB6D9106E050E02
:10109000E15E1050F3CFDEFFF4CFDDFFDECF10F0C6
:1010A000DDCF11F00A0E105C000E115826E2D95067
:1010B000FA0FE96EFF0EDA20EA6EEECFE6FFEECF12
:1010C000E6FFEECFE6FFEFCFE6FFFE0EDBCFE6FF5B
:1010D000F7D9106E050EE15E1050F3CFDEFFF4CFAE
:1010E000DDFFD9CFE9FFDACFEAFFEE50ED1005E1E1
:1010F000046A056A066A076A69D0FE0EDB50040DB1
:10110000F3CFE9FFF4CFEAFF120EE9260E0EEA2232
:10111000EF6AFE0EEA6ADB34FE0BEA36E96ED40EA5
:10112000E926000EEA22EE50EFCFEAFFE96EEF86E5
:10113000DECF10F0DDCF11F011C010F0116AFE0EFD
:10114000EA6ADB34FE0BEA36E96EB00EE926000EE1
:10115000EA22EE50EFCFEAFFE96E10C0EFFFFE0E7D
:10116000EA6ADB34FE0BEA36E96EB60EE926000EBB
:10117000EA22EE50EFCFEAFFE96EDFCFEFFFFE0E7F
:10118000DB0401E19F98FE0EEA6ADB34FE0BEA36CF
:10119000E96EC20EE926000EEA22EE50EFCFEAFF1A
:1011A000E96EEF8EFE0EEA6ADB34FE0BEA36E96E7C
:1011B000BC0EE926000EEA22EE50EFCFEAFFE96E00
:1011C000EF8AFE0EDBCFE6FFDFD9E552020EE15CCF
:1011D00002E2E16AE552E16EE552E7CFD9FF120083
:1011E000D9CFE6FFE552E7CFD9FF1200D9CFE6FF0E
:1011F000E552E7CFD9FF1200D9CFE6FFE1CFD9FF03
:10120000FE0EEA6ADB34FE0BEA36E96EBC0EE92616
:10121000000EEA22EE50EFCFEAFFE96EEF407F0BBF
:10122000010BEEE0FE0EEA6ADB34FE0BEA36E96EF5
:10123000C80EE926000EEA22EE50EFCFEAFFE96E73
:10124000FD0EDBCFEFFFE552E7CFD9FF1200D9CF7C
:10125000E6FFE1CFD9FFFC0EDBCFF6FFFD0EDBCFC3
:10126000F7FF0800F55015E0FC0EDBCFF6FFFD0E92
:10127000DBCFF7FF0800F550E66EFE0EDBCFE6FF92
:10128000BBDFE552E552FC0EDB2AFD0EE4E3DB2A70
:10129000E2D7E552E7CFD9FF1200D9CFE6FFE552FA
:1012A000E7CFD9FF1200D9CFE6FFE1CFD9FFFE0E7D
:1012B000DB50040DF3CFE9FFF4CFEAFF120EE9266D
:1012C0000E0EEA22EF505FE1FB0EDB505CE0FE0EFB
:1012D000DB50040DF3CFE9FFF4CFEAFF120EE9264D
:1012E0000E0EEA22010EEF6EFE0EDB50040DF3CF60
:1012F000E9FFF4CFEAFF120EE9260E0EEA22EE52C3
:10130000FB0EDBCFEFFFFE0EDB50040DF3CFE9FF4A
:10131000F4CFEAFF120EE9260E0EEA22020EE926AB
:10132000000EEA22FC0EDBCFEEFFFD0EDBCFEDFF61
:10133000FE0EDB50040DF3CFE9FFF4CFEAFF120EEF
:10134000E9260E0EEA22020EE926000EEA22EECF70
:10135000F6FFEFCFF7FF0800F550E66EFE0EEA6AE3
:10136000DB34FE0BEA36E96EC80EE926000EEA22EF
:10137000EE50EFCFEAFFE96EE552E750EF6EFE0E5A
:10138000DB0401E19D88E552E7CFD9FF1200D9CFF8
:10139000E6FFE1CFD9FFFE0EDB50040DF3CFE9FFEE
:1013A000F4CFEAFF120EE9260E0EEA22EF50E552C4
:1013B000E7CFD9FF12009E380F0B010B1AE00E0188
:1013C000160517E11707175112E0182B000E192305
:1013D00018CEF6FF19CEF7FF0800F550E66ECAC02A
:1013E000E9FFCBC0EAFFE552E750EF6E12009D988F
:1013F000166B12001200000CD9CFE6FFE1CFD9FF27
:10140000020EE126FE0EEA6ADB34FE0BEA36E96ED6
:10141000BC0EE926000EEA22EE50EFCFEAFFE96E9D
:10142000EF94FA0EDBCF18F0FB0EDBCF19F0FC0EB9
:10143000DBCF1AF0FD0EDBCF1BF0040ED890183670
:1014400019361A361B36E806F9E1146A6C0E156E69
:10145000DC0E166E020E176E14C004F015C005F0F7
:1014600016C006F0076E18C009F019C00AF01AC0BD
:101470000BF01BC00CF0B9EC0FF004C010F005C06D
:1014800011F006C012F007C013F01006000E115A3A
:10149000125A135A10C0DEFF11C0DDFFDECF10F06C
:1014A000DDCF11F010C0F3FF11C0F4FF020EE15CBC
:1014B00002E2E16AE552E16EE552E7CFD9FF1200A0
:1014C000D9CFE6FFE1CFD9FF020EE126FE0EEA6A90
:1014D000DB34FE0BEA36E96EBC0EE926000EEA228A
:1014E000EE50EFCFEAFFE96EEF84FA0EDBCF18F093
:1014F000FB0EDBCF19F0FC0EDBCF1AF0FD0EDBCFBD
:101500001BF0020ED890183619361A361B36E8062C
:10151000F9E1146A6C0E156EDC0E166E020E176E73
:1015200014C004F015C005F016C006F0076E18C010
:1015300009F019C00AF01AC00BF01BC00CF0B9EC8E
:101540000FF004C010F005C011F006C012F007C083
:1015500013F01006000E115A125A135A10C0DEFF73
:1015600011C0DDFFDECF10F0DDCF11F010C0F3FFB2
:1015700011C0F4FF020EE15C02E2E16AE552E16EA5
:10158000E552E7CFD9FF1200D9CFE6FFE1CFD9FF6F
:101590000C0EE126FE0EEA6ADB34FE0BEA36E96E3B
:1015A000BC0EE926000EEA22EE50EFCFEAFFE96E0C
:1015B000EF50E840E8403F0B010B04E1100EF36EE2
:1015C000040E02D0040EF36EF3CFDBFF050EDB6AD0
:1015D000060EDB6A070EDB6AFE0EEA6ADB34FE0BE0
:1015E000EA36E96EB00EE926000EEA22EE50EFCFA1
:1015F000EAFFE96EEFCF12F012C013F0126AFE0E8E
:10160000EA6ADB34FE0BEA36E96EB60EE926000E16
:10161000EA22EE50EFCFEAFFE96EEF500001121020
:10162000106E13C011F0080E10C0DBFF090E13C0BE
:10163000DBFF0A0EDB6A0B0EDB6A010E186E196AFD
:101640001A6A1B6AD950080FE96EDACFEAFFEE502A
:101650001826EE501922EE501A22EE501B2218C006
:1016600004F019C005F01AC006F01BC007F0040E04
:10167000DBCF09F0050EDBCF0AF0060EDBCF0BF057
:10168000070EDBCF0CF081EC0FF000C014F001C0AE
:1016900015F002C016F003C017F0106A6C0E116E40
:1016A000DC0E126E020E136E10C004F011C005F0B5
:1016B00012C006F0076E00C009F001C00AF002C0B7
:1016C0000BF003C00CF0B9EC0FF004C0DEFF05C056
:1016D000DEFF06C0DEFF07C0DDFFDD52DD52DECFDC
:1016E00004F0DECF05F0DECF06F0DDCF07F0DD52EF
:1016F000DD520C0EE15C02E2E16AE552E16EE55278
:06170000E7CFD9FF120043
:0A170600D9CFE6FFE1CFD9FFFD0EB9
:10171000DB96DB98DB9ADB9CDB9EFC0EDB92DB949A
:10172000DB96DB98DB9ADB9CDB9EDB501DE1010E38
:10173000F36EFD0EDB5004E0D890F336E806FCE1D2
:10174000F350F31C106EFE0EEA6ADB34FE0BEA3631
:10175000E96EDA0EE926000EEA22EE50EFCFEAFF3C
:10176000E96E1050EF161AD0010EF36EFD0EDB502D
:1017700004E0D890F336E806FCE1F350FE0EEA6A86
:10178000DB34FE0BEA36E96EDA0EE926000EEA22B9
:10179000EE50EFCFEAFFE96EF350EF12E552E7CFDC
:1017A000D9FF1200D9CFE6FFE1CFD9FFFD0EDB96BE
:1017B000DB98DB9ADB9CDB9EFC0EDB92DB94DB96FA
:1017C000DB98DB9ADB9CDB9EDB041BE1010EF36EF6
:1017D000FD0EDB5004E0D890F336E806FCE1F35050
:1017E000FE0EEA6ADB34FE0BEA36E96EEE0EE926FF
:1017F000000EEA22EE50EFCFEAFFE96EF350EF124F
:101800001CD0010EF36EFD0EDB5004E0D890F336D1
:10181000E806FCE1F350F31C106EFE0EEA6ADB34BE
:10182000FE0BEA36E96EEE0EE926000EEA22EE50D5
:10183000EFCFEAFFE96E1050EF16E552E7CFD9FF80
:101840001200D9CFE6FFE552E7CFD9FF1200D9CF7A
:10185000E6FFE1CFD9FFFD0EDB96DB98DB9ADB9C40
:10186000DB9E010EF36EFD0EDB5004E0D890F336E4
:10187000E806FCE1F350FE0EEA6ADB34FE0BEA36C2
:10188000E96EEE0EE926000EEA22EE50EFCFEAFFF7
:10189000E96EF350EF1AE552E7CFD9FF1200D9CF26
:1018A000E6FFE1CFD9FFFD0EDB96DB98DB9ADB9CF0
:1018B000DB9EDBCF10F0FE0EEA6ADB34FE0BEA366D
:1018C000E96EE40EE926000EEA22EE50EFCFEAFFC1
:1018D000E96EEF5010C0E7FFE75204E0E8427F0BEB
:1018E000E706FCE1010BE552E7CFD9FF1200D9CFA3
:1018F000E6FFE1CFD9FFFE0EEA6ADB34FE0BEA36E3
:10190000E96EEE0EE926000EEA22EE50EFCFEAFF76
:10191000E96EFD0EDBCFEFFFE552E7CFD9FF1200F6
:10192000D9CFE6FFE1CFD9FFFE0EEA6ADB34FE0B2A
:10193000EA36E96EE40EE926000EEA22EE50EFCF19
:10194000EAFFE96EEF50E552E7CFD9FF1200D9CF99
:10195000E6FFE1CFD9FFFE0EEA6ADB34FE0BEA3682
:10196000E96EDA0EE926000EEA22EE50EFCFEAFF2A
:10197000E96EFD0EDBCFEFFFE552E7CFD9FF120096
:10198000D9CFE6FFE1CFD9FFFE0EEA6ADB34FE0BCA
:10199000EA36E96EDA0EE926000EEA22EE50EFCFC3
:1019A000EAFFE96EEF50E552E7CFD9FF1200D9CF39
:1019B000E6FFE552E7CFD9FF1200D9CFE6FF000ED0
:0819C000E552E7CFD9FF120048
:0819C800D9CFE6FFE1CFD9FF02
:1019D000040EE126B4EC0EF00F01486949690AECE7
:1019E0000EF0010EE66E34EC0EF0E552E80E066ED7
:1019F000030E076EF8C00BF0F9C00CF0DDEC0FF031
:101A000006C010F007C011F006C0E6FF07C0E6FFF1
:101A1000E66A63EC0EF0E552E552E552E66A060E20
:101A2000E66E020EE66E83EC0BF0E552E552E552EF
:101A3000E66AC20EE66E010EE66EE66AE66E2EEC11
:101A400008F0106E050EE15E105004C0DEFF05C008
:101A5000DEFF06C0DEFF07C0DDFFDD52DD52D4EC45
:101A60000EF0E66A42EC0EF0E552F3CF10F0F4CF40
:101A700011F0F350F410F5E1E80E066E030E076E58
:101A8000F8C00BF0F9C00CF0DDEC0FF006C010F060
:101A900007C011F006C0E6FF07C0E6FFE66A63EC88
:101AA0000EF0E552E552E552010EE66EC7EC09F084
:101AB000E5520009D6E10C0EE66E3E0EE66E200EF3
:101AC000E66E010EE66E53EC09F0E552E552E55282
:101AD000E552C7D7DACFE4FFE2CFDAFFE9CFE4FF80
:101AE000EACFE4FFF6CFE4FFF7CFE4FFF5CFE4FF62
:101AF000F3CFE4FFF4CFE4FFFACFE4FF00EE00F011
:101B0000100EE80403E3EECFE4FFFBD700EE10F085
:101B10000C0EE80403E3EECFE4FFFBD7E6527FECC4
:101B20000EF0E55200EE1BF00C0EE80403E3E5CFE7
:101B3000EDFFFBD700EE0FF0100EE80403E3E5CF56
:101B4000EDFFFBD7E5CFFAFFE5CFF4FFE5CFF3FFDD
:101B5000E5CFF5FFE5CFF7FFE5CFF6FFE5CFEAFFED
:101B6000E5CFE9FFE5CFDAFF1100D8CFE4FFE0CF02
:101B7000E4FFE46EDACFE4FFE2CFDAFFE9CFE4FF7F
:101B8000EACFE4FFF6CFE4FFF7CFE4FFF5CFE4FFC1
:101B9000F3CFE4FFF4CFE4FFFACFE4FF00EE00F070
:101BA000100EE80403E3EECFE4FFFBD700EE10F0E5
:101BB0000C0EE80403E3EECFE4FFFBD7E652DBECC8
:101BC00009F0E55200EE1BF00C0EE80403E3E5CF4C
:101BD000EDFFFBD700EE0FF0100EE80403E3E5CFB6
:101BE000EDFFFBD7E5CFFAFFE5CFF4FFE5CFF3FF3D
:101BF000E5CFF5FFE5CFF7FFE5CFF6FFE5CFEAFF4D
:101C0000E5CFE9FFE5CFDAFFE550E5CFE0FFE5CF2F
:041C1000D8FF1000E9
:0C1C1400D9CFE6FFE1CFD9FFE652F294F1
:101C20000001670EFA6FC50EFB6FE850D76EFAC061
:101C3000D6FF020ED56ED58EF194F28ADF6A090EB8
:101C4000DF5C0DE2EA6ADF34FE0BEA36E96E000E75
:101C5000E9260E0EEA22EE6AED6ADF2AF0D7E55297
:101C6000E552E7CFD9FF1200D9CFE6FFE1CFD9FF88
:101C7000FE0EDB5002E1F19401D0F184E552E7CF92
:101C8000D9FF1200D9CFE6FFE1CFD9FFFE0EDB501E
:101C9000090803E2F36AF46A12D0FE0EEA6ADB3442
:101CA000FE0BEA36E96E000EE9260E0EEA22EECFB2
:101CB00010F0EFCF11F010C0F3FF11C0F4FFE552A8
:101CC000E7CFD9FF1200D9CFE6FFE1CFD9FFFE0E53
:101CD000DB50090810E3FE0EEA6ADB34FE0BEA363D
:101CE000E96E000EE9260E0EEA22FC0EDBCFEEFFB7
:101CF000FD0EDBCFEDFFE552E7CFD9FF1200D9CFC4
:101D0000E6FFE1CFD9FFE652090EDF6EF250E84060
:101D1000E8403F0B010B23E0F294FBC010F01050A1
:101D2000D76EFAC0D6FFDF501AE0DF06EA6ADF346A
:101D3000FE0BEA36E96E000EE9260E0EEA22EE50A0
:101D4000ED10F1E0EA6ADF34FE0BEA36E96E000ED0
:101D5000E9260E0EEA22EE06000EEF5AE4D7E5520F
:081D6000E552E7CFD9FF1200A4
:081D6800D9CFE6FFE1CFD9FF5E
:101D7000020EE126580EDE6E020EDD6E9B8CDFCF6A
:101D800010F0DF06010EDBCF11F001E2DB06105090
:101D90001110F5E1020EE15C02E2E16AE552E16E4A
:101DA000E552E7CFD9FF1200F28EF28CD08E1200EE
:101DB000F29EF29CD09E1200D9CFE6FFE1CFD9FF70
:101DC00042D8FE0EDB500E0812E3FE0EEA6ADB3448
:101DD000FE0BEA36E96E600EE926000EEA22EE50AE
:101DE000EFCFEAFFE96EFD0EDBCFEFFF27D0650EE8
:101DF000F36EFE0EDBCFF4FFF350F45C1FE3FE0E38
:101E0000DB5079081BE3640E106E0C6EFE0EDBCF08
:101E100007F011EC10F00350E66EFD0EEA6ADB34B9
:101E2000FE0BEA36E96E7E0EE926000EEA22EE503F
:101E3000EFCFEAFFE96EE552E750EF6E0BD8E552BF
:101E4000E7CFD9FF1200550EA76EAA0EA76E0E019E
:101E5000FF6B1200550EA76EAA0EA76E0E01010EA3
:041E6000FF6F1200FE
:0C1E64002A0EF66E100EF76E000EF86EDF
:101E70000E010900F550236F0900F550246F03E1AE
:101E8000236701D03DD00900F5501E6F0900F550C1
:101E90001F6F0900F550206F09000900F550E96E29
:101EA0000900F550EA6E090009000900F550216F9C
:101EB0000900F550226F09000900F6CF25FEF7CF83
:101EC00026FEF8CF27FE1ECEF6FF1FCEF7FF20CE50
:101ED000F8FF0E01215302E1225307E00900F550FB
:101EE000EE6E2107F8E22207F9D725CEF6FF26CEBF
:101EF000F7FF27CEF8FF0E012307000E245BBFD7A4
:021F00001200CD
:0E1F020004500902F3CF00F0F4CF01F00A0200
:101F1000F3500126000EF420026E04500B02F35021
:101F20000226000EF420036E04500C02F350032628
:101F300005500902F3500126F4500222000E03223C
:101F400005500A02F3500226F450032205500B02FA
:101F5000F350032606500902F3500226F4500322E0
:101F600006500A02F350032607500902F3500326D5
:021F700012005D
:0E1F7200036A026A016A006A200EE76ED890C8
:101F80000436053606360736003601360236033685
:101F90000950005C0A5001580B5002580C5003586D
:101FA00009E30950005E0A50015A0B50025A0C50C6
:0A1FB000035A042AE72EE4D71200BA
:061FBA00036A026A100E2A
:101FC000E76ED89006360736023603360B50025CB1
:101FD0000C50035805E30B50025E0C50035A062ABE
:061FE000E72EF0D712000D
:0A1FE600C00EF36E00EE00F00E0EC8
:101FF00001D81200EA6002D0EE6AFCD7F350E96023
:062000001200EE6AFCD79D
:0A2006001DEE00F02DEE00F0F86A68
:102010000F9C32EC0FF026EC10F0E4EC0CF0FBD748
:022020001200AC
:0E202200036A080EE76ED890073603360C509E
:0E203000035C02E3036E072AE72EF7D71200C7
:02203E00486FE9
:0B2040006C61206D756E646F0A0D006E
:02204C00120080
:02204E00000090
:102050007F0F7D0F0000B00FAB0F0000AD0FA80F7A
:102060000000AC0F9C0F0000AE0FA90F0000AF0FD7
:08207000AA0F00007E0F7C0F97
:08207800E70EE80EE90EEA0E86
:10208000EC0EED0EEE0EF20EF30EF60EF70EFB0E4C
:10209000FC0EFD0EFE0EC60EC70EC80EC90ECA0EF1
:1020A000CB0ECC0ECD0ECE0ECF0ED00ED10ED20E4C
:1020B000D30E000000000000D70ED80ED90EDA0EA5
:0820C000DB0EDC0EDD0EDE0E6E
:0420C8000A0000000A
:0420CC00920F930FCD
:1020D000940F950F960F800F810F820F830F840F3F
:0A20E000890F8A0F8B0F8C0F8D0FF4
:017FF800AFD9
:00000001FF
