:020000040000FA
:06000000A7EF10F0120052
:0600080004EF08F01200F5
:060018000CEF08F01200DD
:06100000A7EF10F0120042
:06100800CFEF0EF0120014
:06101800D6EF0EF01200FD
:06102A0004001122000089
:10103000500E00001E0000000E220000F80000000C
:1010400003000000BE210000000E00005000000060
:0C10500094210000C40000002A000000F1
:04105C00D9CFE6FF03
:10106000E1CFD9FF020EE126D950FA0FE96EFF0E4B
:10107000DA20EA6EEECFE6FFEECFE6FFEECFE6FF38
:10108000EFCFE6FFFE0EDBCFE6FF1DDB106E050E99
:10109000E15E1050F3CFDEFFF4CFDDFFDECF10F0C6
:1010A000DDCF11F00A0E105C000E115826E2D95067
:1010B000FA0FE96EFF0EDA20EA6EEECFE6FFEECF12
:1010C000E6FFEECFE6FFEFCFE6FFFE0EDBCFE6FF5B
:1010D0005DDB106E050EE15E1050F3CFDEFFF4CF46
:1010E000DDFFD9CFE9FFDACFEAFFEE50ED1005E1E1
:1010F000046A056A066A076A80D0FE0EDB50070D97
:10110000F3CFE9FFF4CFEAFF6E0EE9260E0EEA22D6
:10111000EF6AFE0EEA6ADB34FE0BEA36E96EE80E91
:10112000E926000EEA22EE50EFCFEAFFE96EEF86E5
:10113000DECF10F0DDCF11F011C010F0116AFE0EFD
:10114000EA6ADB34FE0BEA36E96EC40EE926000ECD
:10115000EA22EE50EFCFEAFFE96E10C0EFFFFE0E7D
:10116000EA6ADB34FE0BEA36E96ECA0EE926000EA7
:10117000EA22EE50EFCFEAFFE96EDFCFEFFFFE0E7F
:10118000DB0402E19F9804D0FE0EDB0401E1A59888
:10119000A598FE0EEA6ADB34FE0BEA36E96ED60E3F
:1011A000E926000EEA22EE50EFCFEAFFE96EEF8E5D
:1011B000FE0EEA6ADB34FE0BEA36E96ED00EE92653
:1011C000000EEA22EE50EFCFEAFFE96EEF8AFE0E44
:1011D000EA6ADB34FE0BEA36E96ED60EE926000E2B
:1011E000EA22EE50EFCFEAFFE96EEF889D8A9F9AE0
:1011F000FE0EDBCFE6FF2DDBE552020EE15C02E2E4
:10120000E16AE552E16EE552E7CFD9FF1200D9CF8E
:10121000E6FFE1CFD9FFFD0EDB5005E1FE0EDB045A
:1012200002E19F9819D0FD0EDB0405E1FE0EDB0400
:1012300002E19F8811D0FD0EDB5006E1FE0EDB506F
:10124000020802E1A59808D0FD0EDB0405E1FE0EC0
:10125000DB50020801E1A588E552E7CFD9FF120073
:10126000D9CFE6FFE1CFD9FFFD0EDB5005E1FE0E41
:10127000DB0402E19F9A19D0FD0EDB0405E1FE0EAE
:10128000DB0402E19F8A11D0FD0EDB5006E1FE0E69
:10129000DB50020802E1A59A08D0FD0EDB0405E14F
:1012A000FE0EDB50020801E1A58AE552E7CFD9FF27
:1012B0001200D9CFE6FFE1CFD9FFFE0EEA6ADB3498
:1012C000FE0BEA36E96ED00EE926000EEA22EE5059
:1012D000EFCFEAFFE96EEF407F0B010BEEE0FE0E71
:1012E000EA6ADB34FE0BEA36E96EDC0EE926000E14
:1012F000EA22EE50EFCFEAFFE96EFD0EDBCFEFFF03
:10130000E552E7CFD9FF1200D9CFE6FFE1CFD9FFF1
:10131000FC0EDBCFF6FFFD0EDBCFF7FF0800F5502C
:1013200015E0FC0EDBCFF6FFFD0EDBCFF7FF08006C
:10133000F550E66EFE0EDBCFE6FFBBDFE552E55271
:10134000FC0EDB2AFD0EE4E3DB2AE2D7E552E7CF11
:10135000D9FF1200D9CFE6FFE1CFD9FFFE0EDB5057
:10136000070DF3CFE9FFF4CFEAFF6E0EE9260E0E6C
:10137000EA22EF5075E1FB0EDB5072E0FE0EDB500F
:10138000070DF3CFE9FFF4CFEAFF6E0EE9260E0E4C
:10139000EA22010EEF6EFE0EDB50070DF3CFE9FFE0
:1013A000F4CFEAFF6E0EE9260E0EEA22EE52FB0E95
:1013B000DBCFEFFFFE0EDB50070DF3CFE9FFF4CFDD
:1013C000EAFF6E0EE9260E0EEA22040EE926000E52
:1013D000EA22FC0EDBCFEEFFFD0EDBCFEDFFFE0EB3
:1013E000DB50070DF3CFE9FFF4CFEAFF6E0EE926DD
:1013F0000E0EEA22060EE926000EEA22010EEF6E1C
:10140000FE0EDB50070DF3CFE9FFF4CFEAFF6E0EBF
:10141000E9260E0EEA22040EE926000EEA22EE501C
:10142000EFCFEAFFE96EEF50E66EFE0EEA6ADB34BC
:10143000FE0BEA36E96EDC0EE926000EEA22EE50DB
:10144000EFCFEAFFE96EE552E750EF6EFE0EDB04E8
:1014500002E19D8805D0FE0EDB50020801E1A38861
:10146000E552E7CFD9FF1200D9CFE6FFE1CFD9FF90
:10147000FE0EDB50070DF3CFE9FFF4CFEAFF6E0E4F
:10148000E9260E0EEA22EF5075E1FB0EDB5072E00A
:10149000FE0EDB50070DF3CFE9FFF4CFEAFF6E0E2F
:1014A000E9260E0EEA22010EEF6EFE0EDB50070D4E
:1014B000F3CFE9FFF4CFEAFF6E0EE9260E0EEA2223
:1014C000EE52FB0EDBCFEFFFFE0EDB50070DF3CF2E
:1014D000E9FFF4CFEAFF6E0EE9260E0EEA22020EB5
:1014E000E926000EEA22FC0EDBCFEEFFFD0EDBCF7D
:1014F000EDFFFE0EDB50070DF3CFE9FFF4CFEAFF5F
:101500006E0EE9260E0EEA22060EE926000EEA22EB
:10151000EF6AFE0EDB50070DF3CFE9FFF4CFEAFFD1
:101520006E0EE9260E0EEA22020EE926000EEA22CF
:10153000EECFF6FFEFCFF7FF0800F550E66EFE0E98
:10154000EA6ADB34FE0BEA36E96EDC0EE926000EB1
:10155000EA22EE50EFCFEAFFE96EE552E750EF6E78
:10156000FE0EDB0402E19D8805D0FE0EDB50020872
:1015700001E1A388E552E7CFD9FF1200D9CFE6FFFA
:10158000E1CFD9FFFE0EDB50070DF3CFE9FFF4CF1B
:10159000EAFF6E0EE9260E0EEA22EF50E552E7CF83
:1015A000D9FF12009E380F0B010B25E00E017505C7
:1015B00022E1760776511DE07B0509E1792B000ECB
:1015C0007A2379CEE9FF7ACEEAFFEF5009D0772B64
:1015D000000E782377CEF6FF78CEF7FF0800F5509F
:1015E000E66EDEC0E9FFDFC0EAFFE552E750EF6ECE
:1015F00012009D98756B1200A4380F0B010B25E0AB
:101600000E017C0522E17D077D511DE0820509E187
:10161000802B000E812380CEE9FF81CEEAFFEF50C0
:1016200009D07E2B000E7F237ECEF6FF7FCEF7FF04
:101630000800F550E66EE0C0E9FFE1C0EAFFE552C0
:10164000E750EF6E1200A3987C6B12009E50E00BE7
:10165000E838E840010B09E0E4C0E9FFE5C0EAFF33
:10166000EF50E66E2BEC0FF0E5521200A450120082
:10167000D9CFE6FFE1CFD9FFFE0EDB0407E19E5094
:10168000E00BE838E840010B0BE1F9D7FE0EDB5028
:10169000020806E1A450E00BE838E840010BFAE04C
:1016A000FE0EEA6ADB34FE0BEA36E96EE20EE9264C
:1016B000000EEA22EE50EFCFEAFFE96EEF50E5525E
:1016C000E7CFD9FF1200D9CFE6FFE1CFD9FF020E55
:1016D000E126FE0EEA6ADB34FE0BEA36E96ED00E36
:1016E000E926000EEA22EE50EFCFEAFFE96EEF9412
:1016F000FA0EDBCF18F0FB0EDBCF19F0FC0EDBCFC0
:101700001AF0FD0EDBCF1BF0040ED89018361936F8
:101710001A361B36E806F9E1146A1B0E156EB70E71
:10172000166E176A14C004F015C005F0066E17C0D7
:1017300007F018C009F019C00AF01AC00BF01BC05E
:101740000CF05DEC10F004C010F005C011F006C004
:1017500012F007C013F01006000E115A125A135A55
:1017600010C0DEFF11C0DDFFDECF10F0DDCF11F0C5
:1017700010C0F3FF11C0F4FF020EE15C02E2E16A67
:10178000E552E16EE552E7CFD9FF1200D9CFE6FF6F
:10179000E1CFD9FF020EE126FE0EEA6ADB34FE0B32
:1017A000EA36E96ED00EE926000EEA22EE50EFCFBF
:1017B000EAFFE96EEF84FA0EDBCF18F0FB0EDBCF09
:1017C00019F0FC0EDBCF1AF0FD0EDBCF1BF0020E82
:1017D000D890183619361A361B36E806F9E1146A1D
:1017E0001B0E156EB70E166E176A14C004F015C0E6
:1017F00005F0066E17C007F018C009F019C00AF00E
:101800001AC00BF01BC00CF05DEC10F004C010F01F
:1018100005C011F006C012F007C013F01006000E4C
:10182000115A125A135A10C0DEFF11C0DDFFDECF6D
:1018300010F0DDCF11F010C0F3FF11C0F4FF020E65
:10184000E15C02E2E16AE552E16EE552E7CFD9FFE1
:101850001200D9CFE6FFE1CFD9FF0C0EE126FE0E34
:10186000EA6ADB34FE0BEA36E96ED00EE926000E9A
:10187000EA22EE50EFCFEAFFE96EEF50E840E84091
:101880003F0B010B04E1100EF36E040E02D0040EA8
:10189000F36EF3CFDBFF050EDB6A060EDB6A070E85
:1018A000DB6AFE0EEA6ADB34FE0BEA36E96EC40E32
:1018B000E926000EEA22EE50EFCFEAFFE96EEFCF05
:1018C00012F012C013F0126AFE0EEA6ADB34FE0B4D
:1018D000EA36E96ECA0EE926000EEA22EE50EFCF94
:1018E000EAFFE96EEF5000011210106E13C011F004
:1018F000080E10C0DBFF090E13C0DBFF0A0EDB6A07
:101900000B0EDB6A010E186E196A1A6A1B6AD9502F
:10191000080FE96EDACFEAFFEE501826EE501922D2
:10192000EE501A22EE501B2218C004F019C005F028
:101930001AC006F01BC007F0040EDBCF09F0050E3D
:10194000DBCF0AF0060EDBCF0BF0070EDBCF0CF07F
:1019500025EC10F000C014F001C015F002C016F024
:1019600003C017F0106A1B0E116EB70E126E136AC9
:1019700010C004F011C005F0066E13C007F000C0DF
:1019800009F001C00AF002C00BF003C00CF05DECDE
:1019900010F004C0DEFF05C0DEFF06C0DEFF07C09A
:1019A000DDFFDD52DD52DECF04F0DECF05F0DECF0D
:1019B00006F0DDCF07F0DD52DD520C0EE15C02E2F5
:0E19C000E16AE552E16EE552E7CFD9FF120071
:0219CE00D9CF6F
:1019D000E6FFE1CFD9FFFD0EDB96DB98DB9ADB9CBF
:1019E000DB9EFC0EDB92DB94DB96DB98DB9ADB9CC8
:1019F000DB9EDB501DE1010EF36EFD0EDB5004E0BB
:101A0000D890F336E806FCE1F350F31C106EFE0E9E
:101A1000EA6ADB34FE0BEA36E96E500EE9260E0E5A
:101A2000EA22EE50EFCFEAFFE96E1050EF161AD01F
:101A3000010EF36EFD0EDB5004E0D890F336E8069D
:101A4000FCE1F350FE0EEA6ADB34FE0BEA36E96E87
:101A5000500EE9260E0EEA22EE50EFCFEAFFE96EB5
:101A6000F350EF12E552E7CFD9FF1200D9CFE6FFCE
:101A7000E1CFD9FFFD0EDB96DB98DB9ADB9CDB9E8A
:101A8000FC0EDB92DB94DB96DB98DB9ADB9CDB9E27
:101A9000DB041BE1010EF36EFD0EDB5004E0D89079
:101AA000F336E806FCE1F350FE0EEA6ADB34FE0B87
:101AB000EA36E96E640EE9260E0EEA22EE50EFCF0A
:101AC000EAFFE96EF350EF121CD0010EF36EFD0E2B
:101AD000DB5004E0D890F336E806FCE1F350F31C49
:101AE000106EFE0EEA6ADB34FE0BEA36E96E640E17
:101AF000E9260E0EEA22EE50EFCFEAFFE96E105013
:101B0000EF16E552E7CFD9FF1200D9CFE6FFE55235
:101B1000E7CFD9FF1200D9CFE6FFE1CFD9FFFD0E05
:101B2000DB96DB98DB9ADB9CDB9E010EF36EFD0EF1
:101B3000DB5004E0D890F336E806FCE1F350FE0EEB
:101B4000EA6ADB34FE0BEA36E96E640EE9260E0E15
:101B5000EA22EE50EFCFEAFFE96EF350EF1AE552BA
:101B6000E7CFD9FF1200D9CFE6FFE1CFD9FFFD0EB5
:101B7000DB96DB98DB9ADB9CDB9EDBCF10F0FE0E66
:101B8000EA6ADB34FE0BEA36E96E5A0EE9260E0EDF
:101B9000EA22EE50EFCFEAFFE96EEF5010C0E7FF08
:101BA000E75204E0E8427F0BE706FCE1010BE55257
:101BB000E7CFD9FF1200D9CFE6FFE1CFD9FFFE0E64
:101BC000EA6ADB34FE0BEA36E96E640EE9260E0E95
:101BD000EA22EE50EFCFEAFFE96EFD0EDBCFEFFF1A
:101BE000E552E7CFD9FF1200D9CFE6FFE1CFD9FF09
:101BF000FE0EEA6ADB34FE0BEA36E96E5A0EE9267F
:101C00000E0EEA22EE50EFCFEAFFE96EEF50E552FA
:101C1000E7CFD9FF1200D9CFE6FFE1CFD9FFFE0E03
:101C2000EA6ADB34FE0BEA36E96E500EE9260E0E48
:101C3000EA22EE50EFCFEAFFE96EFD0EDBCFEFFFB9
:101C4000E552E7CFD9FF1200D9CFE6FFE1CFD9FFA8
:101C5000FE0EEA6ADB34FE0BEA36E96E500EE92628
:101C60000E0EEA22EE50EFCFEAFFE96EEF50E5529A
:101C7000E7CFD9FF1200D9CFE6FFE552E7CFD9FF72
:101C80001200D9CFE6FF000EE552E7CFD9FF1200D0
:101C9000D9CFE6FFE1CFD9FF040EE1260F01486955
:101CA0004969E66A060EE66E020EE66EE7EC0CF097
:101CB000E552E552E552010EE66E070EE66E020EA3
:101CC000E66EE7EC0CF0E552E552E552E66A010EED
:101CD000E66EE66EE7EC0CF0E552E552E552E66A98
:101CE000030EE66E010EE66EE7EC0CF0E552E552EF
:101CF000E552800EE66E250EE66EE66AE66A010E95
:101D0000E66E2EEC08F0106E050EE15E105004C079
:101D1000DEFF05C0DEFF06C0DEFF07C0DDFFDD52CF
:101D2000DD5278EC0FF00001F805FDE1F86B8C0E48
:101D3000106E210E116E126A10C0E6FFE66E12C020
:101D4000E6FF600EE66E000EE66E81EC10F0136E9C
:101D5000050EE15E1350000903E1010EE66E19D095
:101D6000860E106E210E116E126A10C0E6FFE66E2E
:101D700012C0E6FF600EE66E000EE66E81EC10F01B
:101D8000136E050EE15E13500009CDE1030EE66E01
:101D9000010EE66E8BEC0DF0E552E552C4D7DACFBA
:101DA000E4FFE652E552E5CFDAFF1100D8CFE4FFB9
:101DB000E0CFE4FFE46EDACFE4FFE2CFDAFFE9CF71
:101DC000E4FFEACFE4FFF6CFE4FFF7CFE4FFF5CF7F
:101DD000E4FFF3CFE4FFF4CFE4FFFACFE4FF00EE3B
:101DE00000F0100EE80403E3EECFE4FFFBD700EEB3
:101DF00010F00C0EE80403E3EECFE4FFFBD7E6524D
:101E000026EC0BF0E55200EE1BF00C0EE80403E3A9
:101E1000E5CFEDFFFBD700EE0FF0100EE80403E373
:101E2000E5CFEDFFFBD7E5CFFAFFE5CFF4FFE5CF38
:101E3000F3FFE5CFF5FFE5CFF7FFE5CFF6FFE5CF01
:101E4000EAFFE5CFE9FFE5CFDAFFE550E5CFE0FFB8
:101E5000E5CFD8FF1000D9CFE6FFE1CFD9FF600E64
:101E60000001F925E96E000EFA21EA6EFE0EDBCFC5
:101E7000EFFFF92B000EFA23F9C0E9FFFAC0EAFFE1
:101E8000E906EA5A600EE926000EEA22EF500D0834
:101E90000BE1010EF86F600EF925E96E000EFA21D4
:101EA000EA6EEF6AF96BFA6BE552E7CFD9FF1200E1
:101EB000D9CFE6FFE1CFD9FF020EE126580EDE6E44
:101EC000020EDD6E9B8CDFCF10F0DF06010EDBCF44
:101ED00011F001E2DB0610501110F5E1020EE15C99
:101EE00002E2E16AE552E16EE552E7CFD9FF120066
:101EF000F28EF28CD08E1200F29EF29CD09E1200D6
:101F0000D9CFE6FFE1CFD9FF42D8FE0EDB500E0855
:101F100012E3FE0EEA6ADB34FE0BEA36E96E000ECF
:101F2000E9260E0EEA22EE50EFCFEAFFE96EFD0E33
:101F3000DBCFEFFF27D0650EF36EFE0EDBCFF4FF95
:101F4000F350F45C1FE3FE0EDB5079081BE3640ED4
:101F5000106E0C6EFE0EDBCF07F0B5EC10F00350E8
:101F6000E66EFD0EEA6ADB34FE0BEA36E96E1E0E03
:101F7000E9260E0EEA22EE50EFCFEAFFE96EE552B7
:101F8000E750EF6E0BD8E552E7CFD9FF1200550EA0
:101F9000A76EAA0EA76E0E01FF6B1200550EA76E5C
:0C1FA000AA0EA76E0E01010EFF6F1200CA
:041FAC002A0EF66E95
:101FB000100EF76E000EF86E00010900F550F36F79
:101FC0000900F550F46F03E1F36701D03DD009003B
:101FD000F550EE6F0900F550EF6F0900F550F06F06
:101FE00009000900F550E96E0900F550EA6E090094
:101FF00009000900F550F16F0900F550F26F090072
:102000000900F6CFF5F0F7CFF6F0F8CFF7F0EEC015
:10201000F6FFEFC0F7FFF0C0F8FF0001F15302E157
:10202000F25307E00900F550EE6EF107F8E2F2070F
:10203000F9D7F5C0F6FFF6C0F7FFF7C0F8FF0001CB
:0A204000F307000EF45BBFD7120097
:06204A0004500902F3CF6F
:1020500000F0F4CF01F00A02F3500126000EF42044
:10206000026E04500B02F3500226000EF420036EA1
:1020700004500C02F350032605500902F3500126C8
:10208000F4500222000E032205500A02F3500226E9
:10209000F450032205500B02F350032606500902A8
:1020A000F3500226F450032206500A02F35003268E
:0A20B00007500902F3500326120046
:0620BA00036A026A016ADC
:1020C000006A200EE76ED8900436053606360736CD
:1020D00000360136023603360950005C0A500158BA
:1020E0000B5002580C50035809E30950005E0A5087
:1020F000015A0B50025A0C50035A042AE72EE4D717
:022100001200CB
:0E210200FB0EE3CFF6FFFC0EE3CFF7FFFD0E62
:10211000E3CFF8FFFE0EE3CFE9FFFF0EE3CFEAFFC8
:0E2120000900F550EF5C02E1EE66FAD71200FE
:02212E00C00EE1
:10213000F36E00EE00F00E0E01D81200EA6002D03D
:0E214000EE6AFCD7F350E9601200EE6AFCD79D
:02214E001DEE84
:1021500000F02DEE00F0F86A0F9CD6EC0FF0C9EC01
:0A21600010F048EC0EF0FBD712005F
:06216A00036A080EE76E97
:10217000D890073603360C50035C02E3036E072A3F
:06218000E72EF7D7120064
:0A2186006C6564330D006C65643174
:022190000D0040
:02219200120039
:0C21940000007F0F7D0F0000B00FAB0FAC
:1021A0000000AD0FA80F0000AC0F9C0F0000AE0F99
:0E21B000A90F0000AF0FAA0F00007E0F7C0FDA
:0221BE00E70E2A
:1021C000E80EE90EEA0EEC0EED0EEE0EF20EF30E38
:1021D000F60EF70EFB0EFC0EFD0EFE0EC60EC70E23
:1021E000C80EC90ECA0ECB0ECC0ECD0ECE0ECF0E23
:1021F000D00ED10ED20ED30E000000000000D70E7C
:0E220000D80ED90EDA0EDB0EDC0EDD0EDE0E71
:02220E000000CE
:0122100000CD
:0F221100920F930F940F950F960F800F810F82EE
:0F2220000F830F840F890F8A0F8B0F8C0F8D0F79
:017FF800AFD9
:00000001FF
