:020000040000FA
:060000003FEF0EF01200BC
:0600080004EF08F01200F5
:060018000CEF08F01200DD
:061000003FEF0EF01200AC
:0610080078EF0DF012006C
:061018007FEF0DF0120055
:06102A000200A01C000002
:10103000600000001E0000009C1C000088000000F2
:0410400004000000A8
:0C104400E66A060EE66E020EE66E9BECFD
:1010500009F0E552E552E552E66A070EE66E010E2A
:10106000E66E9BEC09F0E552E552E552E66A070EA2
:10107000E66E020EE66E9BEC09F0E552E552E55293
:101080001200D9CFE6FFE1CFD9FFE66A030EE66E84
:10109000BFEC0AF0E552E552FE0EDBCFE6FF030E91
:1010A000E66E8FEC0AF0E552E552010EE66E070E91
:1010B000E66E010EE66EEAEC09F0E552E552E55205
:1010C000E66A070EE66E020EE66EEAEC09F0E552FD
:1010D000E552E55200018C6B010E00018C5D04E2CB
:1010E000000000018C2BF8D7010EE66E060EE66EAE
:1010F000020EE66EEAEC09F0E552E552E552000117
:101100008C6B010E00018C5D04E2000000018C2B51
:10111000F8D7E66A060EE66E020EE66EEAEC09F015
:10112000E552E552E552E552E7CFD9FF1200D9CF9B
:10113000E6FFE1CFD9FFE652E668030EE66EBFECAC
:101140000AF0E552E552010EE66E070EE66E020E5B
:10115000E66EEAEC09F0E552E552E552010EE66E64
:10116000070EE66E010EE66EEAEC09F0E552E55276
:10117000E55200018C6B010E00018C5D04E2000061
:1011800000018C2BF8D7010EE66E060EE66E020EFD
:10119000E66EEAEC09F0E552E552E55200018C6B8F
:1011A000010E00018C5D04E2000000018C2BF8D7D9
:1011B000030EE66EA8EC0AF0E552DF6EE66A060E54
:1011C000E66E020EE66EEAEC09F0E552E552E552F3
:1011D000DF5000D0E552E552E7CFD9FF1200D9CF5A
:1011E000E6FFE1CFD9FFE66A030EE66EBFEC0AF038
:1011F000E552E552FE0EDBCFE6FF030EE66E8FEC06
:101200000AF0E552E552E66A070EE66E020EE66E59
:10121000EAEC09F0E552E552E552E66A070EE66EA1
:10122000010EE66EEAEC09F0E552E552E5520001E6
:101230008C6B010E00018C5D04E2000000018C2B20
:10124000F8D7010EE66E060EE66E020EE66EEAECCA
:1012500009F0E552E552E55200018C6B010E0001E8
:101260008C5D04E2000000018C2BF8D7E66A060EC4
:10127000E66E020EE66EEAEC09F0E552E552E55242
:10128000E552E7CFD9FF1200D9CFE6FFE1CFD9FF72
:10129000E652E668030EE66EBFEC0AF0E552E55250
:1012A000010EE66E070EE66E020EE66EEAEC09F03F
:1012B000E552E552E552E66A070EE66E010EE66E6D
:1012C000EAEC09F0E552E552E55200018C6B010EA3
:1012D00000018C5D04E2000000018C2BF8D7010EA8
:1012E000E66E060EE66E020EE66EEAEC09F0E552D8
:1012F000E552E55200018C6B010E00018C5D04E2A9
:10130000000000018C2BF8D7030EE66EA8EC0AF063
:10131000E552DF6EE66A060EE66E020EE66EEAEC57
:1013200009F0E552E552E552DF5000D0E552E552B2
:06133000E7CFD9FF120017
:0A133600D9CFE6FFE1CFD9FFFD0E8D
:10134000DB96DB98DB9ADB9CDB9EFC0EDB92DB946E
:10135000DB96DB98DB9ADB9CDB9EDB501DE1010E0C
:10136000F36EFD0EDB5004E0D890F336E806FCE1A6
:10137000F350F31C106EFE0EEA6ADB34FE0BEA3605
:10138000E96E600EE926000EEA22EE50EFCFEAFF8A
:10139000E96E1050EF161AD0010EF36EFD0EDB5001
:1013A00004E0D890F336E806FCE1F350FE0EEA6A5A
:1013B000DB34FE0BEA36E96E600EE926000EEA2207
:1013C000EE50EFCFEAFFE96EF350EF12E552E7CFB0
:1013D000D9FF1200D9CFE6FFE1CFD9FFFD0EDB9692
:1013E000DB98DB9ADB9CDB9EFC0EDB92DB94DB96CE
:1013F000DB98DB9ADB9CDB9EDB041BE1010EF36ECA
:10140000FD0EDB5004E0D890F336E806FCE1F35023
:10141000FE0EEA6ADB34FE0BEA36E96E740EE9264C
:10142000000EEA22EE50EFCFEAFFE96EF350EF1222
:101430001CD0010EF36EFD0EDB5004E0D890F336A5
:10144000E806FCE1F350F31C106EFE0EEA6ADB3492
:10145000FE0BEA36E96E740EE926000EEA22EE5023
:10146000EFCFEAFFE96E1050EF16E552E7CFD9FF54
:101470001200D9CFE6FFE552E7CFD9FF1200D9CF4E
:10148000E6FFE1CFD9FFFD0EDB96DB98DB9ADB9C14
:10149000DB9E010EF36EFD0EDB5004E0D890F336B8
:1014A000E806FCE1F350FE0EEA6ADB34FE0BEA3696
:1014B000E96E740EE926000EEA22EE50EFCFEAFF45
:1014C000E96EF350EF1AE552E7CFD9FF1200D9CFFA
:1014D000E6FFE1CFD9FFFD0EDB96DB98DB9ADB9CC4
:1014E000DB9EDBCF10F0FE0EEA6ADB34FE0BEA3641
:1014F000E96E6A0EE926000EEA22EE50EFCFEAFF0F
:10150000E96EEF5010C0E7FFE75204E0E8427F0BBE
:10151000E706FCE1010BE552E7CFD9FF1200D9CF76
:10152000E6FFE1CFD9FFFE0EEA6ADB34FE0BEA36B6
:10153000E96E740EE926000EEA22EE50EFCFEAFFC4
:10154000E96EFD0EDBCFEFFFE552E7CFD9FF1200CA
:10155000D9CFE6FFE1CFD9FFFE0EEA6ADB34FE0BFE
:10156000EA36E96E6A0EE926000EEA22EE50EFCF67
:10157000EAFFE96EEF50E552E7CFD9FF1200D9CF6D
:10158000E6FFE1CFD9FFFE0EEA6ADB34FE0BEA3656
:10159000E96E600EE926000EEA22EE50EFCFEAFF78
:1015A000E96EFD0EDBCFEFFFE552E7CFD9FF12006A
:1015B000D9CFE6FFE1CFD9FFFE0EEA6ADB34FE0B9E
:1015C000EA36E96E600EE926000EEA22EE50EFCF11
:1015D000EAFFE96EEF50E552E7CFD9FF1200D9CF0D
:1015E000E6FFE552E7CFD9FF1200D9CFE6FF000EA4
:0815F000E552E7CFD9FF12001C
:0815F80022EC08F00F0EE66E74
:10160000E66AB6EC0CF0E552E552300EE66EEFEC11
:1016100008F0E552050EE66EE66AB6EC0CF0E5520F
:10162000E552300EE66EEFEC08F0E552140EE66E71
:10163000E66AE66AE66A2BEC0CF0E552E552E55202
:10164000E552300EE66EEFEC08F0E552040EE66E61
:10165000E66AE66AE66A2BEC0CF0E552E552E552E2
:10166000E552380EE66EEFEC08F0E552040EE66E39
:10167000E66AE66AE66A2BEC0CF0E552E552E552C2
:10168000E5520B0EE66EEFEC08F0E552040EE66E46
:10169000E66AE66AE66A2BEC0CF0E552E552E552A2
:1016A000E552010EE66EEFEC08F0E552020EE66E32
:1016B000E66AB6EC0CF0E552E552060EE66EEFEC8B
:1016C00008F0E552040EE66EE66AE66AE66A2BEC7E
:1016D0000CF0E552E552E552E5520C0EE66EEFECE9
:1016E00008F0E552040EE66EE66AE66AE66A2BEC5E
:1016F0000CF0E552E552E552E552800EE66EEFEC55
:1017000008F0E552040EE66EE66AE66AE66A2BEC3D
:101710000CF0E552E552E552E5521200D9CFE6FF52
:10172000E1CFD9FFE65244EC09F0DF6EDF44010B54
:10173000010BE552E552E7CFD9FF1200D9CFE6FF02
:10174000E1CFD9FFE652040EF36EFE0EDBCFF4FFBD
:10175000F350F45C27E2140EF36EFD0EDBCFF4FFC2
:10176000F350F45C1FE2FD0EDBCFE6FFFE0EDB5014
:10177000EA6A880FE96E000EEA22EF50E552E7248C
:10178000DF6E800EDF10E66EEFEC08F0E552040E1F
:10179000E66EE66AE66AE66A2BEC0CF0E552E55284
:1017A000E552E552E552E552E7CFD9FF1200D9CF15
:1017B000E6FFE1CFD9FFFE0EDBCFE6FF41EC08F0FC
:1017C000E552040EE66EE66AE66AE66A2BEC0CF079
:1017D000E552E552E552E552E552E7CFD9FF120056
:1017E000D9CFE6FFE1CFD9FFFE0EDBCFE6FFEFEC6E
:1017F00008F0E552040EE66EE66AE66AE66A2BEC4D
:101800000CF0E552E552E552E552E552E7CFD9FF3B
:101810001200D9CFE6FFE1CFD9FFFD0EDBCFF6FFF7
:10182000FE0EDBCFF7FF0800F55011E0FD0EDBCF19
:10183000F6FFFE0EDBCFF7FF0800F550E66EB7DFD0
:10184000E552FD0EDB2AFE0EE8E3DB2AE6D7E55281
:06185000E7CFD9FF1200F2
:0A185600D9CFE6FFE1CFD9FF040E61
:10186000E12601D079D0FB0EDBCF10F0FC0EDBCFF0
:1018700011F0FD0EDBCF12F0FE0EDBCF13F01E0ECB
:10188000096E0A6A0B6A0C6A10C004F011C005F0F8
:1018900012C006F013C007F0DFEC0DF000C010F02E
:1018A00001C011F002C012F003C013F010C0DFFF3E
:1018B000010E11C0DBFF020E12C0DBFF030E13C0CE
:1018C000DBFFD9CFE9FFDACFEAFFAF0EEE5E000E05
:1018D000EE5A000EEE5A000EEE5ADECF05F0DECFC5
:1018E00006F0DECF07F0DDCF08F0DD52DD52083420
:1018F000000E081809E6D8802D0E0554000E065477
:10190000000E0754000E085401E326D0DECF05F088
:10191000DECF06F0DECF07F0DDCF08F0DD52DD527E
:101920000834000E081809E6D880000E0554000E91
:101930000654000E0754000E08540EE20000D9CFE2
:10194000E9FFDACFEAFF2A0EEE5E000EEE5A000E35
:10195000EE5A000EEE5ADAD7040EE15C02E2E16ABA
:10196000E552E16EE552E7CFD9FF1200D9CFE6FF8D
:10197000E1CFD9FF040EE126FD0EDBCF10F0FE0E05
:10198000DBCF11F0126A136AB80E096E0B0E0A6EE5
:101990000B6A0C6A10C004F011C005F012C006F00A
:1019A00013C007F0DFEC0DF000C010F001C011F023
:1019B00002C012F003C013F010C0DFFF010E11C00F
:1019C000DBFF020E12C0DBFF030E13C0DBFFD9CF1B
:1019D000E9FFDACFEAFFAA0EEE5E000EEE5A000E25
:1019E000EE5A000EEE5ADECF05F0DECF06F0DECF67
:1019F00007F0DDCF08F0DD52DD520834000E081884
:101A000009E6D880C30E0554000E0654000E075494
:101A1000000E085402E327D026D0DECF05F0DECF3B
:101A200006F0DECF07F0DDCF08F0DD52DD520834DE
:101A3000000E081809E6D880000E0554000E065462
:101A4000000E0754000E08540EE20000D9CFE9FF43
:101A5000DACFEAFF270EEE5E000EEE5A000EEE5AC7
:101A6000000EEE5ADAD7040EE15C02E2E16AE552BA
:0A1A7000E16EE552E7CFD9FF120046
:061A7A000F0148694969F3
:101A8000FCEC0AF0520EE66E1C0EE66E09EC0CF051
:101A9000E552E552010EE66EE66E9EEC0BF0E55265
:101AA000E552460EE66E1C0EE66E09EC0CF0E552B1
:101AB000E552020EE66EE66E9EEC0BF0E552E55244
:101AC0003A0EE66E1C0EE66E09EC0CF0E552E5529D
:101AD000030EE66EE66E9EEC0BF0E552E5522E0E1E
:101AE000E66E1C0EE66E09EC0CF0E552E552FFD7EF
:101AF000DACFE4FFE652E552E5CFDAFF1100D8CFA6
:101B0000E4FFE0CFE4FFE46EDACFE4FFE652E55213
:101B1000E5CFDAFFE550E5CFE0FFE5CFD8FF1000D5
:101B20002A0EF66E100EF76E000EF86E0001090018
:101B3000F550836F0900F550846F03E1836701D08E
:101B40003DD00900F5507E6F0900F5507F6F090008
:101B5000F550806F09000900F550E96E0900F55055
:101B6000EA6E090009000900F550816F0900F5507F
:101B7000826F09000900F6CF85F0F7CF86F0F8CF25
:101B800087F07EC0F6FF7FC0F7FF80C0F8FF00013E
:101B9000815302E1825307E00900F550EE6E8107A0
:101BA000F8E28207F9D785C0F6FF86C0F7FF87C045
:0E1BB000F8FF00018307000E845BBFD7120010
:021BBE000450D1
:101BC0000902F3CF00F0F4CF01F00A02F35001262E
:101BD000000EF420026E04500B02F3500226000E99
:101BE000F420036E04500C02F35003260550090242
:101BF000F3500126F4500222000E032205500A027F
:101C0000F3500226F450032205500B02F350032632
:101C100006500902F3500226F450032206500A022D
:0E1C2000F350032607500902F350032612006A
:021C2E00486FFD
:101C30006C61206D756E646F3100486F6C61206D52
:101C4000756E646F3200486F6C61206D756E646FE5
:0E1C50003300486F6C61206D756E646F340058
:021C5E00C00EB6
:101C6000F36E00EE00F00E0E01D81200EA6002D012
:0E1C7000EE6AFCD7F350E9601200EE6AFCD772
:021C7E001DEE59
:101C800000F02DEE00F0F86A0F9C90EC0DF04DEC9A
:0A1C90000EF03DEC0DF0FBD7120042
:021C9A00120036
:041C9C00004014549C
:101CA000920F930F940F950F960F800F810F820F55
:0E1CB000830F840F890F8A0F8B0F8C0F8D0FFF
:017FF800AFD9
:00000001FF
