:020000040000FA
:06000000FAEF0FF0120000
:0600080004EF08F01200F5
:060018000CEF08F01200DD
:06100000FAEF0FF01200F0
:0610080057EF0EF012008C
:061018005EEF0EF0120075
:06102A000400A9200000F3
:10103000DA0000001E000000A8200000F9000000F7
:101040000100000058200000600000005000000077
:0C1050002E200000B00000002A0000006C
:04105C00D9CFE6FF03
:10106000E1CFD9FF020EE126D950FA0FE96EFF0E4B
:10107000DA20EA6EEECFE6FFEECFE6FFEECFE6FF38
:10108000EFCFE6FFFE0EDBCFE6FFE7DA106E050ED0
:10109000E15E1050F3CFDEFFF4CFDDFFDECF10F0C6
:1010A000DDCF11F00A0E105C000E115826E2D95067
:1010B000FA0FE96EFF0EDA20EA6EEECFE6FFEECF12
:1010C000E6FFEECFE6FFEFCFE6FFFE0EDBCFE6FF5B
:1010D00027DB106E050EE15E1050F3CFDEFFF4CF7C
:1010E000DDFFD9CFE9FFDACFEAFFEE50ED1005E1E1
:1010F000046A056A066A076A80D0FE0EDB50040D9A
:10110000F3CFE9FFF4CFEAFF000EE9260E0EEA2244
:10111000EF6AFE0EEA6ADB34FE0BEA36E96ED40EA5
:10112000E926000EEA22EE50EFCFEAFFE96EEF86E5
:10113000DECF10F0DDCF11F011C010F0116AFE0EFD
:10114000EA6ADB34FE0BEA36E96EB00EE926000EE1
:10115000EA22EE50EFCFEAFFE96E10C0EFFFFE0E7D
:10116000EA6ADB34FE0BEA36E96EB60EE926000EBB
:10117000EA22EE50EFCFEAFFE96EDFCFEFFFFE0E7F
:10118000DB0402E19F9804D0FE0EDB0401E1A59888
:10119000A598FE0EEA6ADB34FE0BEA36E96EC20E53
:1011A000E926000EEA22EE50EFCFEAFFE96EEF8E5D
:1011B000FE0EEA6ADB34FE0BEA36E96EBC0EE92667
:1011C000000EEA22EE50EFCFEAFFE96EEF8AFE0E44
:1011D000EA6ADB34FE0BEA36E96EC20EE926000E3F
:1011E000EA22EE50EFCFEAFFE96EEF889D8A9F9AE0
:1011F000FE0EDBCFE6FFF7DAE552020EE15C02E21B
:10120000E16AE552E16EE552E7CFD9FF1200D9CF8E
:10121000E6FFE1CFD9FFFD0EDB5005E1FE0EDB045A
:1012200002E19F9819D0FD0EDB0405E1FE0EDB0400
:1012300002E19F8811D0FD0EDB5006E1FE0EDB506F
:10124000020802E1A59808D0FD0EDB0405E1FE0EC0
:10125000DB50020801E1A588E552E7CFD9FF120073
:10126000D9CFE6FFE1CFD9FFFD0EDB5005E1FE0E41
:10127000DB0402E19F9A19D0FD0EDB0405E1FE0EAE
:10128000DB0402E19F8A11D0FD0EDB5006E1FE0E69
:10129000DB50020802E1A59A08D0FD0EDB0405E14F
:1012A000FE0EDB50020801E1A58AE552E7CFD9FF27
:1012B0001200D9CFE6FFE1CFD9FFFE0EEA6ADB3498
:1012C000FE0BEA36E96EBC0EE926000EEA22EE506D
:1012D000EFCFEAFFE96EEF407F0B010BEEE0FE0E71
:1012E000EA6ADB34FE0BEA36E96EC80EE926000E28
:1012F000EA22EE50EFCFEAFFE96EFD0EDBCFEFFF03
:10130000E552E7CFD9FF1200D9CFE6FFE1CFD9FFF1
:10131000FC0EDBCFF6FFFD0EDBCFF7FF0800F5502C
:1013200015E0FC0EDBCFF6FFFD0EDBCFF7FF08006C
:10133000F550E66EFE0EDBCFE6FFBBDFE552E55271
:10134000FC0EDB2AFD0EE4E3DB2AE2D7E552E7CF11
:10135000D9FF1200D9CFE6FFE1CFD9FFFE0EDB5057
:10136000040DF3CFE9FFF4CFEAFF000EE9260E0EDD
:10137000EA22EF5065E1FB0EDB5062E0FE0EDB502F
:10138000040DF3CFE9FFF4CFEAFF000EE9260E0EBD
:10139000EA22010EEF6EFE0EDB50040DF3CFE9FFE3
:1013A000F4CFEAFF000EE9260E0EEA22EE52FB0E03
:1013B000DBCFEFFFFE0EDB50040DF3CFE9FFF4CFE0
:1013C000EAFF000EE9260E0EEA22020EE926000EC2
:1013D000EA22FC0EDBCFEEFFFD0EDBCFEDFFFE0EB3
:1013E000DB50040DF3CFE9FFF4CFEAFF000EE9264E
:1013F0000E0EEA22020EE926000EEA22EECFF6FFDA
:10140000EFCFF7FF0800F550E66EFE0EEA6ADB3418
:10141000FE0BEA36E96EC80EE926000EEA22EE500F
:10142000EFCFEAFFE96EE552E750EF6EFE0EDB0408
:1014300002E19D8805D0FE0EDB50020801E1A38881
:10144000E552E7CFD9FF1200D9CFE6FFE1CFD9FFB0
:10145000FE0EDB50040DF3CFE9FFF4CFEAFF000EE0
:10146000E9260E0EEA22EF5065E1FB0EDB5062E04A
:10147000FE0EDB50040DF3CFE9FFF4CFEAFF000EC0
:10148000E9260E0EEA22010EEF6EFE0EDB50040D71
:10149000F3CFE9FFF4CFEAFF000EE9260E0EEA22B1
:1014A000EE52FB0EDBCFEFFFFE0EDB50040DF3CF51
:1014B000E9FFF4CFEAFF000EE9260E0EEA22020E43
:1014C000E926000EEA22FC0EDBCFEEFFFD0EDBCF9D
:1014D000EDFFFE0EDB50040DF3CFE9FFF4CFEAFF82
:1014E000000EE9260E0EEA22020EE926000EEA227E
:1014F000EECFF6FFEFCFF7FF0800F550E66EFE0ED9
:10150000EA6ADB34FE0BEA36E96EC80EE926000E05
:10151000EA22EE50EFCFEAFFE96EE552E750EF6EB8
:10152000FE0EDB0402E19D8805D0FE0EDB500208B2
:1015300001E1A388E552E7CFD9FF1200D9CFE6FF3A
:10154000E1CFD9FFFE0EDB50040DF3CFE9FFF4CF5E
:10155000EAFF000EE9260E0EEA22EF50E552E7CF31
:10156000D9FF12009E380F0B010B1AE00E01040583
:1015700017E10507055112E0062B000E072306CEE2
:10158000F6FF07CEF7FF0800F550E66ECAC0E9FF88
:10159000CBC0EAFFE552E750EF6E12009D98046B56
:1015A0001200A4380F0B010B1AE00E01080517E119
:1015B0000907095112E00A2B000E0B230ACEF6FF91
:1015C0000BCEF7FF0800F550E66ECCC0E9FFCDC0AA
:1015D000EAFFE552E750EF6E1200A398086B120085
:1015E0009E50E00BE838E840010B09E0D0C0E9FF6D
:1015F000D1C0EAFFEF50E66EB3EC0EF0E5521200F8
:10160000A4501200D9CFE6FFE1CFD9FFFE0EDB04D4
:1016100007E19E50E00BE838E840010B0BE1F9D7F9
:10162000FE0EDB50020806E1A450E00BE838E8406B
:10163000010BFAE0FE0EEA6ADB34FE0BEA36E96ED5
:10164000CE0EE926000EEA22EE50EFCFEAFFE96E59
:10165000EF50E552E7CFD9FF1200D9CFE6FFE1CF37
:10166000D9FF020EE126FE0EEA6ADB34FE0BEA36F3
:10167000E96EBC0EE926000EEA22EE50EFCFEAFF3B
:10168000E96EEF94FA0EDBCF18F0FB0EDBCF19F00A
:10169000FC0EDBCF1AF0FD0EDBCF1BF0040ED89052
:1016A000183619361A361B36E806F9E1146A1B0E8D
:1016B000156EB70E166E176A14C004F015C005F04B
:1016C000066E17C007F018C009F019C00AF01AC05A
:1016D0000BF01BC00CF0C6EC0FF004C010F005C0FE
:1016E00011F006C012F007C013F01006000E115AD8
:1016F000125A135A10C0DEFF11C0DDFFDECF10F00A
:10170000DDCF11F010C0F3FF11C0F4FF020EE15C59
:1017100002E2E16AE552E16EE552E7CFD9FF12003D
:10172000D9CFE6FFE1CFD9FF020EE126FE0EEA6A2D
:10173000DB34FE0BEA36E96EBC0EE926000EEA2227
:10174000EE50EFCFEAFFE96EEF84FA0EDBCF18F030
:10175000FB0EDBCF19F0FC0EDBCF1AF0FD0EDBCF5A
:101760001BF0020ED890183619361A361B36E806CA
:10177000F9E1146A1B0E156EB70E166E176A14C0C7
:1017800004F015C005F0066E17C007F018C009F088
:1017900019C00AF01AC00BF01BC00CF0C6EC0FF019
:1017A00004C010F005C011F006C012F007C013F01D
:1017B0001006000E115A125A135A10C0DEFF11C043
:1017C000DDFFDECF10F0DDCF11F010C0F3FF11C050
:1017D000F4FF020EE15C02E2E16AE552E16EE552DD
:1017E000E7CFD9FF1200D9CFE6FFE1CFD9FF0C0E2A
:1017F000E126FE0EEA6ADB34FE0BEA36E96EBC0E29
:10180000E926000EEA22EE50EFCFEAFFE96EEF5034
:10181000E840E8403F0B010B04E1100EF36E040EAC
:1018200002D0040EF36EF3CFDBFF050EDB6A060E6B
:10183000DB6A070EDB6AFE0EEA6ADB34FE0BEA3671
:10184000E96EB00EE926000EEA22EE50EFCFEAFF75
:10185000E96EEFCF12F012C013F0126AFE0EEA6AC0
:10186000DB34FE0BEA36E96EB60EE926000EEA22FC
:10187000EE50EFCFEAFFE96EEF5000011210106E4C
:1018800013C011F0080E10C0DBFF090E13C0DBFF00
:101890000A0EDB6A0B0EDB6A010E186E196A1A6AF1
:1018A0001B6AD950080FE96EDACFEAFFEE5018260E
:1018B000EE501922EE501A22EE501B2218C004F0EE
:1018C00019C005F01AC006F01BC007F0040EDBCFEC
:1018D00009F0050EDBCF0AF0060EDBCF0BF0070E8A
:1018E000DBCF0CF08EEC0FF000C014F001C015F04F
:1018F00002C016F003C017F0106A1B0E116EB70E6F
:10190000126E136A10C004F011C005F0066E13C009
:1019100007F000C009F001C00AF002C00BF003C0DC
:101920000CF0C6EC0FF004C0DEFF05C0DEFF06C001
:10193000DEFF07C0DDFFDD52DD52DECF04F0DECF7B
:1019400005F0DECF06F0DDCF07F0DD52DD520C0EE4
:10195000E15C02E2E16AE552E16EE552E7CFD9FFD0
:02196000120073
:0E196200D9CFE6FFE1CFD9FFFD0EDB96DB9873
:10197000DB9ADB9CDB9EFC0EDB92DB94DB96DB9838
:10198000DB9ADB9CDB9EDB501DE1010EF36EFD0E4E
:10199000DB5004E0D890F336E806FCE1F350F31C8A
:1019A000106EFE0EEA6ADB34FE0BEA36E96EDA0EE2
:1019B000E926000EEA22EE50EFCFEAFFE96E105062
:1019C000EF161AD0010EF36EFD0EDB5004E0D89036
:1019D000F336E806FCE1F350FE0EEA6ADB34FE0B58
:1019E000EA36E96EDA0EE926000EEA22EE50EFCF73
:1019F000EAFFE96EF350EF12E552E7CFD9FF12008C
:101A0000D9CFE6FFE1CFD9FFFD0EDB96DB98DB9A5D
:101A1000DB9CDB9EFC0EDB92DB94DB96DB98DB9A97
:101A2000DB9CDB9EDB041BE1010EF36EFD0EDB5045
:101A300004E0D890F336E806FCE1F350FE0EEA6AC3
:101A4000DB34FE0BEA36E96EEE0EE926000EEA22E2
:101A5000EE50EFCFEAFFE96EF350EF121CD0010E0B
:101A6000F36EFD0EDB5004E0D890F336E806FCE19F
:101A7000F350F31C106EFE0EEA6ADB34FE0BEA36FE
:101A8000E96EEE0EE926000EEA22EE50EFCFEAFFF5
:101A9000E96E1050EF16E552E7CFD9FF1200D9CF0B
:101AA000E6FFE552E7CFD9FF1200D9CFE6FFE1CF3D
:101AB000D9FFFD0EDB96DB98DB9ADB9CDB9E010EEB
:101AC000F36EFD0EDB5004E0D890F336E806FCE13F
:101AD000F350FE0EEA6ADB34FE0BEA36E96EEE0ED8
:101AE000E926000EEA22EE50EFCFEAFFE96EF3504E
:101AF000EF1AE552E7CFD9FF1200D9CFE6FFE1CFC9
:101B0000D9FFFD0EDB96DB98DB9ADB9CDB9EDBCFFF
:101B100010F0FE0EEA6ADB34FE0BEA36E96EE40EE4
:101B2000E926000EEA22EE50EFCFEAFFE96EEF5011
:101B300010C0E7FFE75204E0E8427F0BE706FCE154
:101B4000010BE552E7CFD9FF1200D9CFE6FFE1CF75
:101B5000D9FFFE0EEA6ADB34FE0BEA36E96EEE0EC2
:101B6000E926000EEA22EE50EFCFEAFFE96EFD0E05
:101B7000DBCFEFFFE552E7CFD9FF1200D9CFE6FF69
:101B8000E1CFD9FFFE0EEA6ADB34FE0BEA36E96EDE
:101B9000E40EE926000EEA22EE50EFCFEAFFE96EEE
:101BA000EF50E552E7CFD9FF1200D9CFE6FFE1CFE2
:101BB000D9FFFE0EEA6ADB34FE0BEA36E96EDA0E76
:101BC000E926000EEA22EE50EFCFEAFFE96EFD0EA5
:101BD000DBCFEFFFE552E7CFD9FF1200D9CFE6FF09
:101BE000E1CFD9FFFE0EEA6ADB34FE0BEA36E96E7E
:101BF000DA0EE926000EEA22EE50EFCFEAFFE96E98
:101C0000EF50E552E7CFD9FF1200D9CFE6FFE552FA
:101C1000E7CFD9FF1200D9CFE6FF000EE552E7CF9C
:041C2000D9FF1200D6
:0C1C2400D9CFE6FFE1CFD9FF040EE12686
:101C30000F0148694969E66A060EE66E020EE66E15
:101C4000B1EC0CF0E552E552E552010EE66E070EDE
:101C5000E66E020EE66EB1EC0CF0E552E552E5528E
:101C6000800EE66E250EE66EE66AE66A010EE66E08
:101C70002EEC08F0106E050EE15E105004C0DEFF81
:101C800005C0DEFF06C0DEFF07C0DDFFDD52DD520E
:101C9000E1EC0EF00001F905FDE1F96BF8C0E6FF9B
:101CA000010EE66E59EC09F0E552E552F3D7DACFB2
:101CB000E4FFE652E552E5CFDAFF1100D8CFE4FFAA
:101CC000E0CFE4FFE46EDACFE4FFE2CFDAFFE9CF62
:101CD000E4FFEACFE4FFF6CFE4FFF7CFE4FFF5CF70
:101CE000E4FFF3CFE4FFF4CFE4FFFACFE4FF00EE2C
:101CF00000F0100EE80403E3EECFE4FFFBD700EEA4
:101D000010F00C0EE80403E3EECFE4FFFBD7E6523D
:101D1000F0EC0AF0E55200EE1BF00C0EE80403E3D1
:101D2000E5CFEDFFFBD700EE0FF0100EE80403E364
:101D3000E5CFEDFFFBD7E5CFFAFFE5CFF4FFE5CF29
:101D4000F3FFE5CFF5FFE5CFF7FFE5CFF6FFE5CFF2
:101D5000EAFFE5CFE9FFE5CFDAFFE550E5CFE0FFA9
:101D6000E5CFD8FF1000D9CFE6FFE1CFD9FFFE0EB7
:101D7000DBCFF8F00001010EF96FE552E7CFD9FF94
:021D800012004F
:0E1D8200D9CFE6FFE1CFD9FF020EE126580EC1
:101D9000DE6E020EDD6E9B8CDFCF10F0DF06010ED3
:101DA000DBCF11F001E2DB0610501110F5E1020E5D
:101DB000E15C02E2E16AE552E16EE552E7CFD9FF6C
:101DC0001200F28EF28CD08E1200F29EF29CD09E07
:101DD0001200D9CFE6FFE1CFD9FF42D8FE0EDB508B
:101DE0000E0812E3FE0EEA6ADB34FE0BEA36E96EF9
:101DF000600EE926000EEA22EE50EFCFEAFFE96E10
:101E0000FD0EDBCFEFFF27D0650EF36EFE0EDBCFAE
:101E1000F4FFF350F45C1FE3FE0EDB5079081BE384
:101E2000640E106E0C6EFE0EDBCF07F008EC10F0A7
:101E30000350E66EFD0EEA6ADB34FE0BEA36E96E0D
:101E40007E0EE926000EEA22EE50EFCFEAFFE96EA1
:101E5000E552E750EF6E0BD8E552E7CFD9FF1200FD
:101E6000550EA76EAA0EA76E0E01FF6B1200550E3F
:0E1E7000A76EAA0EA76E0E01010EFF6F1200E4
:021E7E002A0E2A
:101E8000F66E100EF76E000EF86E0E010900F5509A
:101E9000116F0900F550126F03E1116701D03DD0B9
:101EA0000900F5500C6F0900F5500D6F0900F55051
:101EB0000E6F09000900F550E96E0900F550EA6E51
:101EC000090009000900F5500F6F0900F550106F67
:101ED00009000900F6CF13FEF7CF14FEF8CF15FE68
:101EE0000CCEF6FF0DCEF7FF0ECEF8FF0E010F530E
:101EF00002E1105307E00900F550EE6E0F07F8E21B
:101F00001007F9D713CEF6FF14CEF7FF15CEF8FF62
:0C1F10000E011107000E125BBFD712007B
:041F1C000450090262
:101F2000F3CF00F0F4CF01F00A02F3500126000EC7
:101F3000F420026E04500B02F3500226000EF4202F
:101F4000036E04500C02F350032605500902F350AF
:101F50000126F4500222000E032205500A02F3501B
:101F60000226F450032205500B02F35003260650BC
:101F70000902F3500226F450032206500A02F350DD
:0C1F8000032607500902F350032612004C
:041F8C00036A026A78
:101F9000016A006A200EE76ED890043605360636D0
:101FA000073600360136023603360950005C0A5007
:101FB00001580B5002580C50035809E30950005EB9
:101FC0000A50015A0B50025A0C50035A042AE72EA9
:041FD000E4D7120040
:0C1FD400C00EF36E00EE00F00E0E01D8FF
:101FE0001200EA6002D0EE6AFCD7F350E9601200FA
:041FF000EE6AFCD7C2
:0C1FF4001DEE00F02DEE00F0F86A0F9CCE
:102000003FEC0FF016EC10F012EC0EF0FBD71200C4
:10201000036A080EE76ED890073603360C50035C4F
:0C20200002E3036E072AE72EF7D7120038
:02202C001200A0
:02202E000000B0
:102030007F0F7D0F0000B00FAB0F0000AD0FA80F9A
:102040000000AC0F9C0F0000AE0FA90F0000AF0FF7
:08205000AA0F00007E0F7C0FB7
:08205800E70EE80EE90EEA0EA6
:10206000EC0EED0EEE0EF20EF30EF60EF70EFB0E6C
:10207000FC0EFD0EFE0EC60EC70EC80EC90ECA0E11
:10208000CB0ECC0ECD0ECE0ECF0ED00ED10ED20E6C
:10209000D30E000000000000D70ED80ED90EDA0EC5
:0820A000DB0EDC0EDD0EDE0E8E
:0120A8000037
:0720A900920F930F940F95B5
:1020B0000F960F800F810F820F830F840F890F8A75
:0720C0000F8B0F8C0F8D0F39
:017FF800AFD9
:00000001FF
