:020000040000FA
:060000007CEF0CF0120081
:0600080004EF08F01200F5
:060018000CEF08F01200DD
:061000007CEF0CF0120071
:06100800A9EF0BF012003D
:06101800B0EF0BF0120026
:06102A000300A319000001
:10103000D10000001E00000082190000B000000076
:101040002100000032190000600000005000000084
:10105000D9CFE6FFE1CFD9FFFD0EDB96DB98DB9A17
:10106000DB9CDB9EFC0EDB92DB94DB96DB98DB9A51
:10107000DB9CDB9EDB501DE1010EF36EFD0EDB50B1
:1010800004E0D890F336E806FCE1F350F31C106E50
:10109000FE0EEA6ADB34FE0BEA36E96ED10EE92673
:1010A000000EEA22EE50EFCFEAFFE96E1050EF1685
:1010B0001AD0010EF36EFD0EDB5004E0D890F3362B
:1010C000E806FCE1F350FE0EEA6ADB34FE0BEA367A
:1010D000E96ED10EE926000EEA22EE50EFCFEAFFCC
:1010E000E96EF350EF12E552E7CFD9FF1200D9CFE6
:1010F000E6FFE1CFD9FFFD0EDB96DB98DB9ADB9CA8
:10110000DB9EFC0EDB92DB94DB96DB98DB9ADB9CB0
:10111000DB9EDB041BE1010EF36EFD0EDB5004E0F1
:10112000D890F336E806FCE1F350FE0EEA6ADB34B1
:10113000FE0BEA36E96EE50EE926000EEA22EE50D5
:10114000EFCFEAFFE96EF350EF121CD0010EF36E01
:10115000FD0EDB5004E0D890F336E806FCE1F350D6
:10116000F31C106EFE0EEA6ADB34FE0BEA36E96E03
:10117000E50EE926000EEA22EE50EFCFEAFFE96E17
:101180001050EF16E552E7CFD9FF1200D9CFE6FF96
:10119000E552E7CFD9FF1200D9CFE6FFE1CFD9FF63
:1011A000FD0EDB96DB98DB9ADB9CDB9E010EF36E7B
:1011B000FD0EDB5004E0D890F336E806FCE1F35076
:1011C000FE0EEA6ADB34FE0BEA36E96EE50EE9262E
:1011D000000EEA22EE50EFCFEAFFE96EF350EF1A6D
:1011E000E552E7CFD9FF1200D9CFE6FFE1CFD9FF13
:1011F000FD0EDB96DB98DB9ADB9CDB9EDBCF10F0F1
:10120000FE0EEA6ADB34FE0BEA36E96EDB0EE926F7
:10121000000EEA22EE50EFCFEAFFE96EEF5010C069
:10122000E7FFE75204E0E8427F0BE706FCE1010B31
:10123000E552E7CFD9FF1200D9CFE6FFE1CFD9FFC2
:10124000FE0EEA6ADB34FE0BEA36E96EE50EE926AD
:10125000000EEA22EE50EFCFEAFFE96EFD0EDBCF83
:10126000EFFFE552E7CFD9FF1200D9CFE6FFE1CF7C
:10127000D9FFFE0EEA6ADB34FE0BEA36E96EDB0EBE
:10128000E926000EEA22EE50EFCFEAFFE96EEF50BA
:10129000E552E7CFD9FF1200D9CFE6FFE1CFD9FF62
:1012A000FE0EEA6ADB34FE0BEA36E96ED10EE92661
:1012B000000EEA22EE50EFCFEAFFE96EFD0EDBCF23
:1012C000EFFFE552E7CFD9FF1200D9CFE6FFE1CF1C
:1012D000D9FFFE0EEA6ADB34FE0BEA36E96ED10E68
:1012E000E926000EEA22EE50EFCFEAFFE96EEF505A
:1012F000E552E7CFD9FF1200D9CFE6FFE552E7CF9D
:10130000D9FF1200D9CFE6FF000EE552E7CFD9FF93
:021310001200C9
:0E131200D9CFE6FFE1CFD9FFFE0EDB0405E0E8
:10132000FE0EDB50020801E081D0FE0EDB50EA6ABF
:10133000CE0FE96E000EEA22EFCF52FFFE0EEA6AF0
:10134000DB34FE0BEA36E96EBC0EE926000EEA221B
:10135000EE50EFCFEAFFE96EEF6AFA0EDBCF18F03E
:10136000FB0EDBCF19F0FC0EDBCF1AF0FD0EDBCF4E
:101370001BF0040ED890183619361A361B36E806BC
:10138000F9E1C00E146EC60E156E2D0E166E176A9C
:1013900014C004F015C005F0066E17C007F018C0A1
:1013A00009F019C00AF01AC00BF01BC00CF048EC91
:1013B0000CF004C010F005C011F006C012F007C018
:1013C00013F01006000E115A125A135AFE0EEA6A52
:1013D000DB34FE0BEA36E96EC80EE926000EEA227F
:1013E000EE50EFCFEAFFE96E10C0EFFFFE0EEA6AA3
:1013F000DB34FE0BEA36E96EC20EE926000EEA2265
:10140000EE50EFCFEAFFE96E060EEF6EFE0EEA6ACF
:10141000DB34FE0BEA36E96EB00EE926000EEA2256
:10142000EE50EFCFEAFFE96E0F0EEF6EE552E7CF19
:10143000D9FF1200D9CFE6FFE1CFD9FF050EE12693
:10144000FE0EDB0405E0FE0EDB50020801E0A1D039
:10145000CB50106E116AD89010361136D8901036D5
:101460001136030E1012000E1112010E10C0DBFF18
:10147000020E11C0DBFF030EDB6A040EDB6AFC0EFA
:10148000DBCF10F0116A126A136A10C004F011C0A9
:1014900005F012C006F013C007F0010EDBCF09F013
:1014A000020EDBCF0AF0030EDBCF0BF0040EDBCF16
:1014B0000CF010EC0CF000C004F001C005F002C00C
:1014C00006F003C007F0640E096E0A6A0B6A0C6A24
:1014D00048EC0CF0010E04C0DBFF020E05C0DBFF80
:1014E000030E06C0DBFF040E07C0DBFF010EDB505E
:1014F000030BDF6E010EDBCF10F0020EDBCF11F01D
:10150000D89011321032D89011321032FE0EEA6AA1
:10151000DB34FE0BEA36E96EBC0EE926000EEA2249
:10152000EE50EFCFEAFFE96E10C0EFFFFE0EEA6A61
:10153000DB34FE0BEA36E96EB00EE926000EEA2235
:10154000EE50EFCFEAFFE96EEF9ADF38F00B106E46
:10155000FE0EEA6ADB34FE0BEA36E96EB00EE926CF
:10156000000EEA22EE50EFCFEAFFE96E1050EF12C4
:10157000FE0EEA6ADB34FE0BEA36E96EB60EE926A9
:10158000000EEA22EE50EFCFEAFFE96EFD0EDBCF50
:10159000EFFF050EE15C02E2E16AE552E16EE55221
:0615A000E7CFD9FF1200A5
:0A15A600D9CFE6FFE1CFD9FF020E16
:1015B000E126580EDE6E020EDD6E9B8CDFCF10F042
:1015C000DF06010EDBCF11F001E2DB061050111037
:1015D000F5E1020EE15C02E2E16AE552E16EE552FC
:1015E000E7CFD9FF1200F28EF28CD08E1200F29E5D
:1015F000F29CD09E1200D9CFE6FFE1CFD9FF42D8AE
:10160000FE0EDB500E0812E3FE0EEA6ADB34FE0B20
:10161000EA36E96E600EE926000EEA22EE50EFCFC0
:10162000EAFFE96EFD0EDBCFEFFF27D0650EF36E0C
:10163000FE0EDBCFF4FFF350F45C1FE3FE0EDB5035
:1016400079081BE3640E106E0C6EFE0EDBCF07F004
:101650008AEC0CF00350E66EFD0EEA6ADB34FE0BFA
:10166000EA36E96E7E0EE926000EEA22EE50EFCF52
:10167000EAFFE96EE552E750EF6E0BD8E552E7CF8F
:10168000D9FF1200550EA76EAA0EA76E0E01FF6BB2
:101690001200550EA76EAA0EA76E0E01010EFF6F67
:0216A000120036
:0E16A2000F0148694969020EE66E720EE66E8F
:1016B000FBEC0AF0E552E552130EE66E760EE66E8E
:1016C000FBEC0AF0E552E552E66A050EE66EE66AC4
:1016D00028EC08F0E552E552E552E66A020EE66EA5
:1016E000030EE66E28EC08F0E552E552E552E80EEE
:1016F000E66E030EE66EE66AE66A010EE66E89ECB9
:1017000009F0106E050EE15E1050E80EE66E030E55
:10171000E66EE66AE66A020EE66E89EC09F0106E85
:10172000050EE15E1050280EE66E010EE66EE66EC6
:101730001AEC0AF0E552E552E552460EE66E010E4D
:10174000E66E020EE66E1AEC0AF0E552E552E5523C
:10175000FFD7DACFE4FFE652E552E5CFDAFF11001A
:10176000D8CFE4FFE0CFE4FFE46EDACFE4FFE65247
:10177000E552E5CFDAFFE550E5CFE0FFE5CFD8FF52
:02178000100057
:0E1782002A0EF66E100EF76E000EF86E0001C5
:101790000900F550F46F0900F550F56F03E1F467A7
:1017A00001D03DD00900F550EF6F0900F550F06F02
:1017B0000900F550F16F09000900F550E96E0900C4
:1017C000F550EA6E090009000900F550F26F0900B2
:1017D000F550F36F09000900F6CFF6F0F7CFF7F0F8
:1017E000F8CFF8F0EFC0F6FFF0C0F7FFF1C0F8FF58
:1017F0000001F25302E1F35307E00900F550EE6EE9
:10180000F207F8E2F307F9D7F6C0F6FFF7C0F7FFE3
:10181000F8C0F8FF0001F407000EF55BBFD7120017
:1018200004500902F3CF00F0F4CF01F00A02F350A4
:101830000126000EF420026E04500B02F350022623
:10184000000EF420036E04500C02F35003260550E2
:101850000902F3500126F4500222000E0322055023
:101860000A02F3500226F450032205500B02F350F3
:10187000032606500902F3500226F45003220650B4
:101880000A02F350032607500902F3500326120000
:10189000036A026A016A006A200EE76ED890043675
:1018A000053606360736003601360236033609504D
:1018B000005C0A5001580B5002580C50035809E3C1
:1018C0000950005E0A50015A0B50025A0C50035A3C
:0818D000042AE72EE4D7120000
:0818D800C00EF36E00EE00F0FB
:1018E0000E0E01D81200EA6002D0EE6AFCD7F35067
:0818F000E9601200EE6AFCD76A
:0818F8001DEE00F02DEE00F0E2
:10190000F86A0F9CC1EC0BF098EC0CF051EC0BF06A
:04191000FBD71200EF
:0C191400036A080EE76ED8900736033611
:101920000C50035C02E3036E072AE72EF7D7120080
:021930001200A3
:0E193200E70EE80EE90EEA0EEC0EED0EEE0EDC
:10194000F20EF30EF60EF70EFB0EFC0EFD0EFE0E63
:10195000C60EC70EC80EC90ECA0ECB0ECC0ECD0ECB
:10196000CE0ECF0ED00ED10ED20ED30E0000000040
:101970000000D70ED80ED90EDA0EDB0EDC0EDD0E0F
:02198000DE0E79
:0E1982000000BA0FB40F0000BF0FB90F000035
:10199000BB0FB50F0000CA0F760F0000CB0F770FFB
:0319A00000010241
:0D19A300920F930F940F950F960F800F81F8
:1019B0000F820F830F840F890F8A0F8B0F8C0F8D6F
:0119C0000F17
:017FF800AFD9
:00000001FF
