:020000040000FA
:060000006CEF0EF012008F
:0600080004EF08F01200F5
:060018000CEF08F01200DD
:061000006CEF0EF012007F
:061008004BEF0DF0120099
:0610180052EF0DF0120082
:06102A000200071D00009A
:101030007E0000001E000000041D0000A60000004D
:0410400003000000A9
:0C104400D9CFE6FFE1CFD9FF020EE12674
:10105000D950FB0FE96EFF0EDA20EA6EEECFE6FF05
:10106000EECFE6FFEECFE6FFEFCFE6FF2BD9E5525E
:10107000E552E552E552F3CFDEFFF4CFDDFFDECFE0
:1010800010F0DDCF11F00A0E105C000E115823E2B3
:10109000D950FB0FE96EFF0EDA20EA6EEECFE6FFC5
:1010A000EECFE6FFEECFE6FFEFCFE6FF60D9E552E9
:1010B000E552E552E552F3CFDEFFF4CFDDFFD9CFA5
:1010C000E9FFDACFEAFFEE50ED1005E1046A056AA8
:1010D000066A076A10D07E86DECF10F0DDCF11F0F1
:1010E00011C010F0116A10507F6EDF50B06E9F98E3
:1010F000AC8EAD8A91D9020EE15C02E2E16AE55262
:10110000E16EE552E7CFD9FF1200D9CFE6FFE1CF7C
:10111000D9FFFE0EDB5002E19F9801D09F88E55277
:10112000E7CFD9FF1200D9CFE6FFE1CFD9FFFE0EFE
:10113000DB5002E19F9A01D09F8AE552E7CFD9FFA9
:101140001200D9CFE6FFE1CFD9FFAD407F0B010BF5
:10115000FCE0FE0EDB50AE6EE552E7CFD9FF120089
:10116000D9CFE6FFE1CFD9FFFD0EDBCFF6FFFE0EB4
:10117000DBCFF7FF0800F55011E0FD0EDBCFF6FFE7
:10118000FE0EDBCFF7FF0800F550E66EDADFE55222
:10119000FD0EDB2AFE0EE8E3DB2AE6D7E552E7CFB9
:1011A000D9FF1200D9CFE6FFE1CFD9FF0001A65148
:1011B00026E1FC0EDB5023E0010EA66FA76BFC0EB0
:1011C000DBCFA8F0DBCFE6FFE66AFD0EDBCFE6FF64
:1011D000FE0EDBCFE6FF600EE66E000EE66EB2ECB2
:1011E0000DF0106E060EE15E10500001A751EA6A84
:1011F000600FE96E000EEA22EF50AE6E9D88E55258
:10120000E7CFD9FF1200D9CFE6FFE1CFD9FF000128
:10121000A6512DE1FC0EDB502AE0010EA66FA76B54
:10122000FC0EDBCFA8F0DBCFE6FFE66AFD0EDBCFDE
:1012300010F0FE0EDBCF11F0126A10C0E6FF11C0F5
:10124000E6FF12C0E6FF600EE66E000EE66EDDEC15
:101250000DF0136E070EE15E13500001A751EA6A0C
:10126000600FE96E000EEA22EF50AE6E9D88E552E7
:10127000E7CFD9FF12000001A65112009E380F0BD4
:10128000010B15E00001A60512E1A807A8510DE029
:101290001E0EA75D0AE2A72BA751EA6A600FE96E4E
:1012A000000EEA22EF50AE6E12009D98A66B12005F
:1012B0009E5012009E50E00BE838E840010BFAE027
:1012C000AF501200D9CFE6FFE1CFD9FF020EE126E1
:1012D000AD94FB0EDBCF18F0FC0EDBCF19F0FD0E4A
:1012E000DBCF1AF0FE0EDBCF1BF0040ED8901836C1
:1012F00019361A361B36E806F9E1146A1B0E156E0C
:10130000B70E166E176A14C004F015C005F0066E0D
:1013100017C007F018C009F019C00AF01AC00BF086
:101320001BC00CF038EC0EF004C010F005C011F03A
:1013300006C012F007C013F01006000E115A125A20
:10134000135A10C0DEFF11C0DDFFDECF10F0DDCF7D
:1013500011F010C0F3FF11C0F4FF020EE15C02E2D5
:10136000E16AE552E16EE552E7CFD9FF1200D9CF2D
:10137000E6FFE1CFD9FF020EE126AD84FB0EDBCF05
:1013800018F0FC0EDBCF19F0FD0EDBCF1AF0FE0ECD
:10139000DBCF1BF0020ED890183619361A361B36E2
:1013A000E806F9E1146A1B0E156EB70E166E176A81
:1013B00014C004F015C005F0066E17C007F018C081
:1013C00009F019C00AF01AC00BF01BC00CF038EC81
:1013D0000EF004C010F005C011F006C012F007C0F6
:1013E00013F01006000E115A125A135A10C0DEFFE5
:1013F00011C0DDFFDECF10F0DDCF11F010C0F3FF24
:1014000011C0F4FF020EE15C02E2E16AE552E16E16
:10141000E552E7CFD9FF1200D9CFE6FFE1CFD9FFE0
:101420000C0EE126AD50E840E8403F0B010B04E113
:10143000100EF36E040E02D0040EF36EF3CFDBFF3A
:10144000050EDB6A060EDB6A070EDB6A7F50136E41
:10145000126AB05000011210106E13C011F0080E85
:1014600010C0DBFF090E13C0DBFF0A0EDB6A0B0E98
:10147000DB6A010E186E196A1A6A1B6AD950080FC6
:10148000E96EDACFEAFFEE501826EE501922EE5040
:101490001A22EE501B2218C004F019C005F01AC021
:1014A00006F01BC007F0040EDBCF09F0050EDBCF02
:1014B0000AF0060EDBCF0BF0070EDBCF0CF000ECD2
:1014C0000EF000C014F001C015F002C016F003C009
:1014D00017F0106A1B0E116EB70E126E136A10C051
:1014E00004F011C005F0066E13C007F000C009F04B
:1014F00001C00AF002C00BF003C00CF038EC0EF093
:1015000004C0DEFF05C0DEFF06C0DEFF07C0DDFF52
:10151000DD52DD52DECF04F0DECF05F0DECF06F087
:10152000DDCF07F0DD52DD520C0EE15C02E2E16A34
:0C153000E552E16EE552E7CFD9FF120052
:04153C00D9CFE6FF1E
:10154000E1CFD9FFFD0EDB96DB98DB9ADB9CDB9EBF
:10155000FC0EDB92DB94DB96DB98DB9ADB9CDB9E5C
:10156000DB501DE1010EF36EFD0EDB5004E0D89060
:10157000F336E806FCE1F350F31C106EFE0EEA6A47
:10158000DB34FE0BEA36E96E7E0EE926000EEA2217
:10159000EE50EFCFEAFFE96E1050EF161AD0010EB1
:1015A000F36EFD0EDB5004E0D890F336E806FCE164
:1015B000F350FE0EEA6ADB34FE0BEA36E96E7E0E6D
:1015C000E926000EEA22EE50EFCFEAFFE96EF35073
:1015D000EF12E552E7CFD9FF1200D9CFE6FFE1CFF6
:1015E000D9FFFD0EDB96DB98DB9ADB9CDB9EFC0EC5
:1015F000DB92DB94DB96DB98DB9ADB9CDB9EDB04E7
:101600001BE1010EF36EFD0EDB5004E0D890F336C3
:10161000E806FCE1F350FE0EEA6ADB34FE0BEA3624
:10162000E96E920EE926000EEA22EE50EFCFEAFFB5
:10163000E96EF350EF121CD0010EF36EFD0EDB507D
:1016400004E0D890F336E806FCE1F350F31C106E8A
:10165000FE0EEA6ADB34FE0BEA36E96E920EE926EC
:10166000000EEA22EE50EFCFEAFFE96E1050EF16BF
:10167000E552E7CFD9FF1200D9CFE6FFE552E7CF19
:10168000D9FF1200D9CFE6FFE1CFD9FFFD0EDB96DF
:10169000DB98DB9ADB9CDB9E010EF36EFD0EDB50CC
:1016A00004E0D890F336E806FCE1F350FE0EEA6A57
:1016B000DB34FE0BEA36E96E920EE926000EEA22D2
:1016C000EE50EFCFEAFFE96EF350EF1AE552E7CFA5
:1016D000D9FF1200D9CFE6FFE1CFD9FFFD0EDB968F
:1016E000DB98DB9ADB9CDB9EDBCF10F0FE0EEA6A18
:1016F000DB34FE0BEA36E96E880EE926000EEA229C
:10170000EE50EFCFEAFFE96EEF5010C0E7FFE7526F
:1017100004E0E8427F0BE706FCE1010BE552E7CF6E
:10172000D9FF1200D9CFE6FFE1CFD9FFFE0EEA6A5A
:10173000DB34FE0BEA36E96E920EE926000EEA2251
:10174000EE50EFCFEAFFE96EFD0EDBCFEFFFE55283
:10175000E7CFD9FF1200D9CFE6FFE1CFD9FFFE0EC8
:10176000EA6ADB34FE0BEA36E96E880EE926000EE3
:10177000EA22EE50EFCFEAFFE96EEF50E552E7CFF5
:10178000D9FF1200D9CFE6FFE1CFD9FFFE0EEA6AFA
:10179000DB34FE0BEA36E96E7E0EE926000EEA2205
:1017A000EE50EFCFEAFFE96EFD0EDBCFEFFFE55223
:1017B000E7CFD9FF1200D9CFE6FFE1CFD9FFFE0E68
:1017C000EA6ADB34FE0BEA36E96E7E0EE926000E8D
:1017D000EA22EE50EFCFEAFFE96EEF50E552E7CF95
:1017E000D9FF1200D9CFE6FFE552E7CFD9FF1200AB
:0E17F000D9CFE6FF000EE552E7CFD9FF120079
:0217FE00D9CF41
:10180000E6FFE1CFD9FF040EE12601D079D0FB0E2F
:10181000DBCF10F0FC0EDBCF11F0FD0EDBCF12F0B2
:10182000FE0EDBCF13F01E0E096E0A6A0B6A0C6AFD
:1018300010C004F011C005F012C006F013C007F08C
:1018400000EC0EF000C010F001C011F002C012F068
:1018500003C013F010C0DFFF010E11C0DBFF020E4A
:1018600012C0DBFF030E13C0DBFFD9CFE9FFDACFD5
:10187000EAFFAF0EEE5E000EEE5A000EEE5A000EBC
:10188000EE5ADECF05F0DECF06F0DECF07F0DDCF7B
:1018900008F0DD52DD520834000E081809E6D88041
:1018A0002D0E0554000E0654000E0754000E085469
:1018B00001E326D0DECF05F0DECF06F0DECF07F065
:1018C000DDCF08F0DD52DD520834000E081809E6BD
:1018D000D880000E0554000E0654000E0754000E6A
:1018E00008540EE20000D9CFE9FFDACFEAFF2A0E52
:1018F000EE5E000EEE5A000EEE5A000EEE5ADAD7E9
:10190000040EE15C02E2E16AE552E16EE552E7CFE6
:10191000D9FF1200D9CFE6FFE1CFD9FF040EE126AF
:10192000FD0EDBCF10F0FE0EDBCF11F0126A136A52
:10193000B80E096E0B0E0A6E0B6A0C6A10C004F02A
:1019400011C005F012C006F013C007F000EC0EF055
:1019500000C010F001C011F002C012F003C013F07B
:1019600010C0DFFF010E11C0DBFF020E12C0DBFF53
:10197000030E13C0DBFFD9CFE9FFDACFEAFFAA0ECF
:10198000EE5E000EEE5A000EEE5A000EEE5ADECF5C
:1019900005F0DECF06F0DECF07F0DDCF08F0DD5238
:1019A000DD520834000E081809E6D880C30E05542D
:1019B000000E0654000E0754000E085402E327D010
:1019C00026D0DECF05F0DECF06F0DECF07F0DDCF8C
:1019D00008F0DD52DD520834000E081809E6D88000
:1019E000000E0554000E0654000E0754000E085455
:1019F0000EE20000D9CFE9FFDACFEAFF270EEE5E54
:101A0000000EEE5A000EEE5A000EEE5ADAD7040E11
:101A1000E15C02E2E16AE552E16EE552E7CFD9FF0F
:021A20001200B2
:0E1A2200D9CFE6FFE1CFD9FF040EE1260F0178
:101A300048694969E66A060EE66E020EE66E9EEC9D
:101A40000AF0E552E552E552E66AC20EE66E010E74
:101A5000E66EE66A22EC08F0E552E552E552E55200
:101A600004C0DEFF05C0DEFF06C0DEFF07C0DDFFED
:101A7000DD52DD52F40EE66E1C0EE66EB0EC08F0A0
:101A8000E552E552E80EE66E030EE66E8AEC0CF0C7
:101A9000E552E552EFD7DACFE4FFE652E552E5CF63
:101AA000DAFF1100D8CFE4FFE0CFE4FFE46EDACF35
:101AB000E4FFE652E552E5CFDAFFE550E5CFE0FF7F
:061AC000E5CFD8FF100085
:0A1AC6002A0EF66E100EF76E000EE9
:101AD000F86E00010900F550A16F0900F550A26FE2
:101AE00003E1A16701D03DD00900F5509C6F0900CA
:101AF000F5509D6F0900F5509E6F09000900F550E3
:101B0000E96E0900F550EA6E090009000900F55078
:101B10009F6F0900F550A06F09000900F6CFA3F0F0
:101B2000F7CFA4F0F8CFA5F09CC0F6FF9DC0F7FF5B
:101B30009EC0F8FF00019F5302E1A05307E0090097
:101B4000F550EE6E9F07F8E2A007F9D7A3C0F6FFA5
:101B5000A4C0F7FFA5C0F8FF0001A107000EA25B1B
:041B6000BFD71200D9
:0C1B6400D9CFE6FFDACFE6FFFA0EE3CFA0
:101B7000D9FFFB0EE3CFDAFFFC0EE3CFE9FFFD0E4A
:101B8000E3CFEAFFE9CFF3FFEACFF4FFF80EE3502B
:101B900003E1F90EE35008E0F80EE30602E2F90E65
:101BA000E306DECFEEFFF2D7FF0EE3CFDAFFE5521A
:101BB000FF0EE3CFD9FFE5521200FB0EE3CFF6FF95
:101BC000FC0EE3CFF7FFFD0EE3CFF8FFFE0EE3CFF1
:101BD000E9FFFF0EE3CFEAFFE9CFF3FFEACFF4FF1F
:101BE000F90EE35003E1FA0EE35009E0F90EE306C3
:101BF00002E2FA0EE3060900F5CFEEFFF1D712007C
:101C000004500902F3CF00F0F4CF01F00A02F350C0
:101C10000126000EF420026E04500B02F35002263F
:101C2000000EF420036E04500C02F35003260550FE
:101C30000902F3500126F4500222000E032205503F
:101C40000A02F3500226F450032205500B02F3500F
:101C5000032606500902F3500226F45003220650D0
:101C60000A02F350032607500902F350032612001C
:101C7000036A026A016A006A200EE76ED890043691
:101C80000536063607360036013602360336095069
:101C9000005C0A5001580B5002580C50035809E3DD
:101CA0000950005E0A50015A0B50025A0C50035A58
:081CB000042AE72EE4D712001C
:081CB800C00EF36E00EE00F017
:101CC0000E0E01D81200EA6002D0EE6AFCD7F35083
:081CD000E9601200EE6AFCD786
:081CD8001DEE00F02DEE00F0FE
:101CE000F86A0F9C63EC0DF081EC0EF011EC0DF036
:041CF000FBD712000C
:0C1CF400486F6C61206D756E646F0A0D06
:011D000000E2
:021D02001200CD
:031D0400001E01BD
:091D0700920F930F940F950F96B3
:101D10000F800F810F820F830F840F890F8A0F8B23
:051D20000F8C0F8D0F78
:017FF800AFD9
:00000001FF
