:020000040000FA
:060000000EEF0EF01200ED
:0600080004EF08F01200F5
:060018000CEF08F01200DD
:061000000EEF0EF01200DD
:06100800E1EF0CF0120004
:06101800E8EF0CF01200ED
:06102A000200A61C0000FC
:10103000B00000001E000000561C00006000000010
:04104000500000005C
:0C104400E66A060EE66E020EE66EC9ECCF
:1010500009F0E552E552E552E66A070EE66E010E2A
:10106000E66EC9EC09F0E552E552E552E66A070E74
:10107000E66E020EE66EC9EC09F0E552E552E55265
:101080001200D9CFE6FFE1CFD9FF030EE66E06ECE2
:101090000BF0E5520F0BE66E030EE66EEDEC0AF078
:1010A000E552E552030EE66ED6EC0AF0E5520F0B60
:1010B000106EFE0EDB50F00B1010E66E030EE66EA7
:1010C000BDEC0AF0E552E552010EE66E070EE66E43
:1010D000010EE66E18EC0AF0E552E552E552E66ABA
:1010E000070EE66E020EE66E18EC0AF0E552E552C7
:1010F000E5520001D86B040E0001D85D04E2000047
:101100000001D82BF8D7010EE66E060EE66E020E31
:10111000E66E18EC0AF0E552E552E5520001D86B94
:10112000040E0001D85D04E200000001D82BF8D7BE
:10113000E66A060EE66E020EE66E18EC0AF0E5525E
:10114000E552E552E552E7CFD9FF1200D9CFE6FFCD
:10115000E1CFD9FFE652030EE66E06EC0BF0E55246
:101160000F0BFF09E66E030EE66EEDEC0AF0E5529A
:10117000E552010EE66E070EE66E020EE66E18EC04
:101180000AF0E552E552E552010EE66E070EE66EF4
:10119000010EE66E18EC0AF0E552E552E552000148
:1011A000D86B040E0001D85D04E200000001D82BCA
:1011B000F8D7010EE66E060EE66E020EE66E18EC2D
:1011C0000AF0E552E552E5520001D86B040E000129
:1011D000D85D04E200000001D82BF8D7030EE66EBC
:1011E000D6EC0AF0E552F00BDF6EE66A060EE66E0C
:1011F000020EE66E18EC0AF0E552E552E552DF50B9
:1012000000D0E552E552E7CFD9FF1200D9CFE6FF73
:10121000E1CFD9FF030EE66E06EC0BF0E5520F0BA3
:10122000E66E030EE66EEDEC0AF0E552E552030EB3
:10123000E66ED6EC0AF0E5520F0B106EFE0EDB5098
:10124000F00B1010E66E030EE66EBDEC0AF0E552F0
:10125000E552E66A070EE66E020EE66E18EC0AF03C
:10126000E552E552E552E66A070EE66E010EE66EBD
:1012700018EC0AF0E552E552E5520001D86B040E75
:101280000001D85D04E200000001D82BF8D7010E60
:10129000E66E060EE66E020EE66E18EC0AF0E552F9
:1012A000E552E5520001D86B040E0001D85D04E25E
:1012B00000000001D82BF8D7E66A060EE66E020E93
:1012C000E66E18EC0AF0E552E552E552E552E7CF3A
:1012D000D9FF1200D9CFE6FFE1CFD9FFE652030EC6
:1012E000E66E06EC0BF0E5520F0BFF09E66E030EFF
:1012F000E66EEDEC0AF0E552E552010EE66E070EE1
:10130000E66E020EE66E18EC0AF0E552E552E55282
:10131000E66A070EE66E010EE66E18EC0AF0E5527C
:10132000E552E5520001D86B040E0001D85D04E2DD
:1013300000000001D82BF8D7010EE66E060EE66E0F
:10134000020EE66E18EC0AF0E552E552E552000195
:10135000D86B040E0001D85D04E200000001D82B18
:10136000F8D7030EE66ED6EC0AF0E552F00BDF6E0E
:10137000E66A060EE66E020EE66E18EC0AF0E5521C
:10138000E552E552DF5000D0E552E552E7CFD9FFF4
:02139000120049
:0E139200D9CFE6FFE1CFD9FFFD0EDB96DB9849
:1013A000DB9ADB9CDB9EFC0EDB92DB94DB96DB980E
:1013B000DB9ADB9CDB9EDB501DE1010EF36EFD0E24
:1013C000DB5004E0D890F336E806FCE1F350F31C60
:1013D000106EFE0EEA6ADB34FE0BEA36E96EB00EE2
:1013E000E926000EEA22EE50EFCFEAFFE96E105038
:1013F000EF161AD0010EF36EFD0EDB5004E0D8900C
:10140000F336E806FCE1F350FE0EEA6ADB34FE0B2D
:10141000EA36E96EB00EE926000EEA22EE50EFCF72
:10142000EAFFE96EF350EF12E552E7CFD9FF120061
:10143000D9CFE6FFE1CFD9FFFD0EDB96DB98DB9A33
:10144000DB9CDB9EFC0EDB92DB94DB96DB98DB9A6D
:10145000DB9CDB9EDB041BE1010EF36EFD0EDB501B
:1014600004E0D890F336E806FCE1F350FE0EEA6A99
:10147000DB34FE0BEA36E96EC40EE926000EEA22E2
:10148000EE50EFCFEAFFE96EF350EF121CD0010EE1
:10149000F36EFD0EDB5004E0D890F336E806FCE175
:1014A000F350F31C106EFE0EEA6ADB34FE0BEA36D4
:1014B000E96EC40EE926000EEA22EE50EFCFEAFFF5
:1014C000E96E1050EF16E552E7CFD9FF1200D9CFE1
:1014D000E6FFE552E7CFD9FF1200D9CFE6FFE1CF13
:1014E000D9FFFD0EDB96DB98DB9ADB9CDB9E010EC1
:1014F000F36EFD0EDB5004E0D890F336E806FCE115
:10150000F350FE0EEA6ADB34FE0BEA36E96EC40ED7
:10151000E926000EEA22EE50EFCFEAFFE96EF35023
:10152000EF1AE552E7CFD9FF1200D9CFE6FFE1CF9E
:10153000D9FFFD0EDB96DB98DB9ADB9CDB9EDBCFD5
:1015400010F0FE0EEA6ADB34FE0BEA36E96EBA0EE4
:10155000E926000EEA22EE50EFCFEAFFE96EEF50E7
:1015600010C0E7FFE75204E0E8427F0BE706FCE12A
:10157000010BE552E7CFD9FF1200D9CFE6FFE1CF4B
:10158000D9FFFE0EEA6ADB34FE0BEA36E96EC40EC2
:10159000E926000EEA22EE50EFCFEAFFE96EFD0EDB
:1015A000DBCFEFFFE552E7CFD9FF1200D9CFE6FF3F
:1015B000E1CFD9FFFE0EEA6ADB34FE0BEA36E96EB4
:1015C000BA0EE926000EEA22EE50EFCFEAFFE96EEE
:1015D000EF50E552E7CFD9FF1200D9CFE6FFE1CFB8
:1015E000D9FFFE0EEA6ADB34FE0BEA36E96EB00E76
:1015F000E926000EEA22EE50EFCFEAFFE96EFD0E7B
:10160000DBCFEFFFE552E7CFD9FF1200D9CFE6FFDE
:10161000E1CFD9FFFE0EEA6ADB34FE0BEA36E96E53
:10162000B00EE926000EEA22EE50EFCFEAFFE96E97
:10163000EF50E552E7CFD9FF1200D9CFE6FFE552D0
:10164000E7CFD9FF1200D9CFE6FF000EE552E7CF72
:04165000D9FF1200AC
:0C165400D9CFE6FFE1CFD9FF040EE1265C
:1016600001D079D0FB0EDBCF10F0FC0EDBCF11F0F8
:10167000FD0EDBCF12F0FE0EDBCF13F0780E096EFD
:101680000A6A0B6A0C6A10C004F011C005F012C09F
:1016900006F013C007F0C6EC0DF000C010F001C05A
:1016A00011F002C012F003C013F010C0DFFF010EF2
:1016B00011C0DBFF020E12C0DBFF030E13C0DBFF05
:1016C000D9CFE9FFDACFEAFFAF0EEE5E000EEE5A99
:1016D000000EEE5A000EEE5ADECF05F0DECF06F019
:1016E000DECF07F0DDCF08F0DD52DD520834000E0A
:1016F000081809E6D8802D0E0554000E0654000E79
:101700000754000E085401E326D0DECF05F0DECFEB
:1017100006F0DECF07F0DDCF08F0DD52DD520834F1
:10172000000E081809E6D880000E0554000E065475
:10173000000E0754000E08540EE20000D9CFE9FF56
:10174000DACFEAFF2A0EEE5E000EEE5A000EEE5AD7
:10175000000EEE5ADAD7040EE15C02E2E16AE552CD
:10176000E16EE552E7CFD9FF1200D9CFE6FFE1CF16
:10177000D9FF040EE126FD0EDBCF10F0FE0EDBCF0D
:1017800011F0126A136AE00E096E2E0E0A6E0B6AD1
:101790000C6A10C004F011C005F012C006F013C0AE
:1017A00007F0C6EC0DF000C010F001C011F002C04F
:1017B00012F003C013F010C0DFFF010E11C0DBFFF9
:1017C000020E12C0DBFF030E13C0DBFFD9CFE9FF0F
:1017D000DACFEAFFAA0EEE5E000EEE5A000EEE5AC7
:1017E000000EEE5ADECF05F0DECF06F0DECF07F0BA
:1017F000DDCF08F0DD52DD520834000E081809E68E
:10180000D880C30E0554000E0654000E0754000E77
:10181000085402E327D026D0DECF05F0DECF06F055
:10182000DECF07F0DDCF08F0DD52DD520834000EC8
:10183000081809E6D880000E0554000E0654000E64
:101840000754000E08540EE20000D9CFE9FFDACFAA
:10185000EAFF270EEE5E000EEE5A000EEE5A000E64
:10186000EE5ADAD7040EE15C02E2E16AE552E16E7B
:08187000E552E7CFD9FF120099
:081878000F0148694969F9EC10
:101880000CF022EC08F00F0EE66EE66AB5EC0BF0F9
:10189000E552E552300EE66E06EC09F0E552050E13
:1018A000E66EE66AB5EC0BF0E552E552300EE66EF8
:1018B00006EC09F0E552140EE66EE66AE66AE66AA0
:1018C0002AEC0BF0E552E552E552E552300EE66E99
:1018D00006EC09F0E552040EE66EE66AE66AE66A90
:1018E0002AEC0BF0E552E552E552E552200EE66E89
:1018F00006EC09F0E552040EE66EE66AE66AE66A70
:101900002AEC0BF0E552E552E552E552040EE66E84
:1019100006EC09F0E552400EE66E06EC09F0E552E1
:10192000040EE66EE66AE66AE66A2AEC0BF0E55219
:10193000E552E552E552010EE66E06EC09F0E5527D
:10194000100EE66E06EC09F0E552020EE66EE66A4F
:10195000B5EC0BF0E552E552060EE66E06EC09F02A
:10196000E552600EE66E06EC09F0E552040EE66EF6
:10197000E66AE66AE66A2AEC0BF0E552E552E552C1
:10198000E5520C0EE66E06EC09F0E552C00EE66E6E
:1019900006EC09F0E552040EE66EE66AE66AE66ACF
:1019A0002AEC0BF0E552E552E552E552340EE66EB4
:1019B00041EC08F0E552400EE66E41EC08F0E552CD
:1019C000FFD7DACFE4FFE652E552E5CFDAFF1100A8
:1019D000D8CFE4FFE0CFE4FFE46EDACFE4FFE652D5
:1019E000E552E5CFDAFFE550E5CFE0FFE5CFD8FFE0
:0219F0001000E5
:0E19F200D9CFE6FFE1CFD9FF020EE126580E55
:101A0000DE6E020EDD6E9B8CDFCF10F0DF06010E66
:101A1000DBCF11F001E2DB0610501110F5E1020EF0
:101A2000E15C02E2E16AE552E16EE552E7CFD9FFFF
:101A30001200F28EF28CD08E1200F29EF29CD09E9A
:101A40001200D9CFE6FFE1CFD9FF42D8FE0EDB501E
:101A50000E0812E3FE0EEA6ADB34FE0BEA36E96E8C
:101A6000600EE926000EEA22EE50EFCFEAFFE96EA3
:101A7000FD0EDBCFEFFF27D0650EF36EFE0EDBCF42
:101A8000F4FFF350F45C1FE3FE0EDB5079081BE318
:101A9000640E106E0C6EFE0EDBCF07F01CEC0EF029
:101AA0000350E66EFD0EEA6ADB34FE0BEA36E96EA1
:101AB0007E0EE926000EEA22EE50EFCFEAFFE96E35
:101AC000E552E750EF6E0BD8E552E7CFD9FF120091
:101AD000550EA76EAA0EA76E0E01FF6B1200550ED3
:0E1AE000A76EAA0EA76E0E01010EFF6F120078
:021AEE002A0EBE
:101AF000F66E100EF76E000EF86E00010900F5503C
:101B0000D36F0900F550D46F03E1D36701D03DD006
:101B10000900F550CE6F0900F550CF6F0900F55060
:101B2000D06F09000900F550E96E0900F550EA6E22
:101B3000090009000900F550D16F0900F550D26F76
:101B400009000900F6CFD5F0F7CFD6F0F8CFD7F0DF
:101B5000CEC0F6FFCFC0F7FFD0C0F8FF0001D153D1
:101B600002E1D25307E00900F550EE6ED107F8E22A
:101B7000D207F9D7D5C0F6FFD6C0F7FFD7C0F8FF18
:0C1B80000001D307000ED45BBFD7120099
:041B8C0004500902F6
:101B9000F3CF00F0F4CF01F00A02F3500126000E5B
:101BA000F420026E04500B02F3500226000EF420C3
:101BB000036E04500C02F350032605500902F35043
:101BC0000126F4500222000E032205500A02F350AF
:101BD0000226F450032205500B02F3500326065050
:101BE0000902F3500226F450032206500A02F35071
:0C1BF000032607500902F35003261200E0
:041BFC00C00EF36EB6
:101C000000EE00F00E0E01D81200EA6002D0EE6A7B
:0C1C1000FCD7F350E9601200EE6AFCD72C
:041C1C001DEE00F0C9
:101C20002DEE00F0F86A0F9C77EC0DF02AEC0EF028
:081C30003CEC0CF0FBD71200A4
:081C3800036A080EE76ED89064
:101C4000073603360C50035C02E3036E072AE72EC7
:041C5000F7D71200B0
:021C540012007C
:0A1C5600E70EE80EE90EEA0EEC0EB0
:101C6000ED0EEE0EF20EF30EF60EF70EFB0EFC0E60
:101C7000FD0EFE0EC60EC70EC80EC90ECA0ECB0E46
:101C8000CC0ECD0ECE0ECF0ED00ED10ED20ED30E68
:101C9000000000000000D70ED80ED90EDA0EDB0EC1
:061CA000DC0EDD0EDE0E7D
:0A1CA600920F930F940F950F960F05
:101CB000800F810F820F830F840F890F8A0F8B0F84
:041CC0008C0F8D0FE9
:017FF800AFD9
:00000001FF
