:020000040000FA
:06000000C4EF0FF0120036
:0600080004EF08F01200F5
:060018000CEF08F01200DD
:06100000C4EF0FF0120026
:06100800CBEF0DF0120019
:06101800D2EF0DF0120002
:06102A0004004E2000004E
:10103000000E00001E00000016200000B00000009E
:101040003800000012200000FA0000000400000038
:0C105000C21F0000600000005000000003
:04105C00D9CFE6FF03
:10106000E1CFD9FFE652010EE66E020EE66EE66EA5
:10107000E2EC0BF0E552E552E552010EE66EE66E4B
:10108000020EE66EE2EC0BF0E552E552E552010E7F
:10109000E66EE66A020EE66EE2EC0BF0E552E55211
:1010A000E552010EE66E020EE66E040EE66EE2EC0E
:1010B0000BF0E552E552E552DF6A100EDF5C11E2FB
:1010C000DF50EA6AC40FE96E000EEA22EF6ADF50D1
:1010D000EA6AD40FE96E000EEA22050EEF6EDF2AEF
:1010E000ECD70001E66BE552E552E7CFD9FF1200DD
:1010F0005BD87AD9EBD92BDA3BEF0BF0D9CFE6FFEF
:10110000E1CFD9FF100EF36EFE0EDBCFF4FFF350EC
:10111000F45C12E2030EF36EFD0EDBCFF4FFF3502E
:10112000F45C0AE3FE0EDB50EA6AD40FE96E000EAF
:10113000EA22FD0EDBCFEFFFE552E7CFD9FF120029
:101140000001E65112000001E66BE7511200D9CF11
:10115000E6FFE1CFD9FFE652DF6A100EF36EFE0E16
:10116000DBCFF4FFF350F45C19E2FE0EDB50070B0B
:10117000106EFE0EDB40E840E8401F0BEA6ABC0F31
:10118000E96E000EEA22EF5010C0E7FFE75204E0DC
:10119000E8427F0BE706FCE1010BDF6EDF50E55212
:1011A000E552E7CFD9FF1200D9CFE6FFE1CFD9FF53
:1011B000E652DF6A040EDF5C01E311D1DF50EA6A18
:1011C000B00FE96E000EEA22EF50010B0BE1E66A68
:1011D000030EE66EE66E31EC0CF0E552E552E55298
:1011E000E66A0CD0010EE66E030EE66EE66E31EC9A
:1011F0000CF0E552E552E552010EE66E030EE66E86
:10120000E66EE2EC0BF0E552E552E552DF50EA6A99
:10121000B00FE96E000EEA22EF407F0B010B0CE1EC
:10122000E66A020EE66E030EE66E31EC0CF0E55255
:10123000E552E552E66A0DD0010EE66E020EE66E4C
:10124000030EE66E31EC0CF0E552E552E552010E6C
:10125000E66E020EE66E030EE66EE2EC0BF0E55271
:10126000E552E552DF50EA6AB00FE96E000EEA225D
:10127000EF50E840E8403F0B010B0DE1E66A010E3C
:10128000E66E030EE66E31EC0CF0E552E552E552E7
:10129000E66A010E0CD0010EE66EE66E030EE66EF7
:1012A00031EC0CF0E552E552E552010EE66EE66EC9
:1012B000030EE66EE2EC0BF0E552E552E552DF502C
:1012C000EA6AB00FE96E000EEA22EF50E840E8400B
:1012D000E8401F0B010B0BE1E66AE66A030EE66EBF
:1012E00031EC0CF0E552E552E552E66A0CD0010E05
:1012F000E66EE66A030EE66E31EC0CF0E552E5525E
:10130000E552010EE66EE66A030EE66EE2EC0BF0C5
:10131000E552E552E552020EE66EE66EAEEC0CF0DA
:10132000E552E552010808E1DF50EA6AB80FE96EBC
:10133000000EEA22EF8007D0DF50EA6AB80FE96EAC
:10134000000EEA22EF90010EE66E020EE66EAEECA3
:101350000CF0E552E552010808E1DF50EA6AB80FE7
:10136000E96E000EEA22EF8207D0DF50EA6AB80F7A
:10137000E96E000EEA22EF92E66A020EE66EAEEC2D
:101380000CF0E552E552010808E1DF50EA6AB80FB7
:10139000E96E000EEA22EF8407D0DF50EA6AB80F48
:1013A000E96E000EEA22EF94020EE66E040EE66E7F
:1013B000AEEC0CF0E552E552010808E1DF50EA6AB4
:1013C000B80FE96E000EEA22EF8607D0DF50EA6A16
:1013D000B80FE96E000EEA22EF96DF2AEBD6E5524F
:1013E000E552E7CFD9FF1200D9CFE6FFE1CFD9FF11
:1013F000030EE126DF6A040EDF5C5EE2010EDB6AAB
:10140000040EF36E010EDBCFF4FFF350F45C52E2F6
:10141000010EDB50040DF350DF24E76E020EE7CF20
:10142000DBFF010EDBCF10F0DF50EA6AB80FE96E88
:10143000000EEA22EF5010C0E7FFE75204E0E84256
:101440007F0BE706FCE1010B19E1020EDB50070BF5
:10145000116E010E115204E0E846FE0B1106FCE18C
:10146000106E020EDB40E840E8401F0BEA6AC20F34
:10147000E96E000EEA221050EF1219D0020EDB5076
:10148000070B116E010E115204E0E846FE0B110627
:10149000FCE1E81C106E020EDB40E840E8401F0B48
:1014A000EA6AC20FE96E000EEA221050EF16010E32
:1014B000DB2AA6D7DF2A9FD7030EE15C02E2E16AAE
:1014C000E552E16EE552E7CFD9FF1200D9CFE6FF32
:1014D000E1CFD9FFE652100EDF6EDF50DF060009C4
:1014E00031E0070EDF14106EDF50E840E840E840BE
:1014F0001F0BEA6AE40FE96E000EEA22EF5010C0FB
:10150000E7FFE75204E0E8427F0BE706FCE1010B4E
:10151000E4E0070EDF14116E010E115204E0E846FC
:10152000FE0B1106FCE1E81C106EDF50E840E840BD
:10153000E8401F0BEA6AC20FE96E000EEA22105063
:10154000EF16CBD7E552E552E7CFD9FF1200D9CF3E
:10155000E6FFE1CFD9FFE652100EDF6EDF50DF0667
:10156000000901E183D0070EDF14106EDF50E84060
:10157000E840E8401F0BEA6AC20FE96E000EEA225B
:10158000EF5010C0E7FFE75204E0E8427F0BE706A8
:10159000FCE1010B38E0DF50EA6AC40FE96E000E8F
:1015A000EA22EF2ADF50EA6AC40FE96E000EEA224F
:1015B000EFCF10F0DF50EA6AD40FE96E000EEA2296
:1015C000EF50105CCBE1070EDF14116E010E1152CB
:1015D00004E0E846FE0B1106FCE1106EDF50E84027
:1015E000E840E8401F0BEA6ABC0FE96E000EEA22F1
:1015F0001050EF12DF50EA6AC40FE96E000EEA22C3
:10160000030EEF6EABD7DF50EA6AC40FE96E000E2F
:10161000EA22EF06DF50EA6AC40FE96E000EEA2202
:10162000EFCF10F0010E105C99E2DF50EA6AC40FB0
:10163000E96E000EEA22010EEF6E070EDF14116E46
:10164000010E115204E0E846FE0B1106FCE1E81C15
:10165000106EDF50E840E840E8401F0BEA6ABC0F1C
:10166000E96E000EEA221050EF1678D7E552E552E7
:10167000E7CFD9FF1200D9CFE6FFE1CFD9FF030EA4
:10168000E126100EDF6EDF50DF06000901E178D0A1
:10169000070EDF14106EDF50E840E840E8401F0BF3
:1016A000EA6ABC0FE96E000EEA22EF5010C0E7FFB5
:1016B000E75204E0E8427F0BE706FCE1010BE76E2E
:1016C000010EE7CFDBFF070EDF14106EDF50E8409E
:1016D000E840E8401F0BEA6ABE0FE96E000EEA22FE
:1016E000EF5010C0E7FFE75204E0E8427F0BE70647
:1016F000FCE1010BE76E020EE7CFDBFF010EDB50D2
:1017000020E0020EDB501DE10001010EE66FDFCF8D
:10171000E7F0070EDF14116E010E115204E0E846E7
:10172000FE0B1106FCE1106EDF50E840E840E84097
:101730001F0BEA6AC00FE96E000EEA221050EF128A
:10174000A2D7010EDB509FE1020EDB509CE0070E9A
:10175000DF14116E010E115204E0E846FE0B110673
:10176000FCE1E81C106EDF50E840E840E8401F0B49
:10177000EA6AC00FE96E000EEA221050EF1683D716
:10178000020EDF6EDF50DF06000912E0DF50EA6A6A
:10179000BC0FE96E000EEA22EF50E66EDF50EA6AF7
:1017A000BE0FE96E000EEA22E552E750EF6EEAD76F
:1017B000030EE15C02E2E16AE552E16EE552E7CF39
:0417C000D9FF12003B
:0C17C400D9CFE6FFE1CFD9FFFD0EDB9688
:1017D000DB98DB9ADB9CDB9EFC0EDB92DB94DB96DA
:1017E000DB98DB9ADB9CDB9EDB501DE1010EF36E88
:1017F000FD0EDB5004E0D890F336E806FCE1F35030
:10180000F31C106EFE0EEA6ADB34FE0BEA36E96E5C
:10181000000EE9260E0EEA22EE50EFCFEAFFE96E47
:101820001050EF161AD0010EF36EFD0EDB5004E0DF
:10183000D890F336E806FCE1F350FE0EEA6ADB349A
:10184000FE0BEA36E96E000EE9260E0EEA22EE5095
:10185000EFCFEAFFE96EF350EF12E552E7CFD9FF81
:101860001200D9CFE6FFE1CFD9FFFD0EDB96DB9862
:10187000DB9ADB9CDB9EFC0EDB92DB94DB96DB9839
:10188000DB9ADB9CDB9EDB041BE1010EF36EFD0E9D
:10189000DB5004E0D890F336E806FCE1F350FE0E8E
:1018A000EA6ADB34FE0BEA36E96E140EE9260E0E08
:1018B000EA22EE50EFCFEAFFE96EF350EF121CD0B0
:1018C000010EF36EFD0EDB5004E0D890F336E8060F
:1018D000FCE1F350F31C106EFE0EEA6ADB34FE0BE3
:1018E000EA36E96E140EE9260E0EEA22EE50EFCF2C
:1018F000EAFFE96E1050EF16E552E7CFD9FF12006C
:10190000D9CFE6FFE552E7CFD9FF1200D9CFE6FFE6
:10191000E1CFD9FFFD0EDB96DB98DB9ADB9CDB9EEB
:10192000010EF36EFD0EDB5004E0D890F336E806AE
:10193000FCE1F350FE0EEA6ADB34FE0BEA36E96E98
:10194000140EE9260E0EEA22EE50EFCFEAFFE96E02
:10195000F350EF1AE552E7CFD9FF1200D9CFE6FFD7
:10196000E1CFD9FFFD0EDB96DB98DB9ADB9CDB9E9B
:10197000DBCF10F0FE0EEA6ADB34FE0BEA36E96ECE
:101980000A0EE9260E0EEA22EE50EFCFEAFFE96ECC
:10199000EF5010C0E7FFE75204E0E8427F0BE70694
:1019A000FCE1010BE552E7CFD9FF1200D9CFE6FFEA
:1019B000E1CFD9FFFE0EEA6ADB34FE0BEA36E96EB0
:1019C000140EE9260E0EEA22EE50EFCFEAFFE96E82
:1019D000FD0EDBCFEFFFE552E7CFD9FF1200D9CFE5
:1019E000E6FFE1CFD9FFFE0EEA6ADB34FE0BEA36F2
:1019F000E96E0A0EE9260E0EEA22EE50EFCFEAFF5C
:101A0000E96EEF50E552E7CFD9FF1200D9CFE6FFDC
:101A1000E1CFD9FFFE0EEA6ADB34FE0BEA36E96E4F
:101A2000000EE9260E0EEA22EE50EFCFEAFFE96E35
:101A3000FD0EDBCFEFFFE552E7CFD9FF1200D9CF84
:101A4000E6FFE1CFD9FFFE0EEA6ADB34FE0BEA3691
:101A5000E96E000EE9260E0EEA22EE50EFCFEAFF05
:101A6000E96EEF50E552E7CFD9FF1200D9CFE6FF7C
:101A7000E552E7CFD9FF1200D9CFE6FF000EE552BD
:061A8000E7CFD9FF1200C0
:0A1A8600D9CFE6FFE1CFD9FFE65209
:101A9000D1EC0EF00F014869496927EC0EF00A0EEF
:101AA000066E076AFAC00BF0FBC00CF09EEC0FF05C
:101AB00006C010F007C011F006C0E6FF07C0E6FF41
:101AC000E66A80EC0EF0E552E552E5522EEC08F0A5
:101AD000E66A010EE66E06EC0DF0E552E552E66AA6
:101AE000010EE66ED6EC0CF0E552E552320EE66ED3
:101AF000E66A7EEC08F0E552E552320EE66E040E20
:101B0000E66E7EEC08F0E552E552320EE66E080E07
:101B1000E66E7EEC08F0E552E552320EE66E0C0EF3
:101B2000E66E7EEC08F0E552E552F1EC0EF0E66A66
:101B30005FEC0EF0E552F3CF10F0F4CF11F0F3505C
:101B4000F41019E10A0E066E076AFAC00BF0FBC02A
:101B50000CF09EEC0FF006C010F007C011F006C0AC
:101B6000E6FF07C0E6FFE66A80EC0EF0E552E552BC
:101B7000E55278EC08F0A0EC08F00108D8E1A3ECFD
:101B800008F0DF6EDFCFE6FF010EE66ED6EC0CF05C
:101B9000E552E552CCD7DACFE4FFE652E552E5CF85
:101BA000DAFF1100D8CFE4FFE0CFE4FFE46EDACF34
:101BB000E4FFE2CFDAFFE9CFE4FFEACFE4FFF6CFBC
:101BC000E4FFF7CFE4FFF5CFE4FFF3CFE4FFF4CF7A
:101BD000E4FFFACFE4FF00EE00F0100EE80403E3A8
:101BE000EECFE4FFFBD700EE10F0020EE80403E3B3
:101BF000EECFE4FFFBD7E6529CEC0EF0E55200EE90
:101C000011F0020EE80403E3E5CFEDFFFBD700EE91
:101C10000FF0100EE80403E3E5CFEDFFFBD7E5CFAF
:101C2000FAFFE5CFF4FFE5CFF3FFE5CFF5FFE5CF12
:101C3000F7FFE5CFF6FFE5CFEAFFE5CFE9FFE5CF18
:0E1C4000DAFFE550E5CFE0FFE5CFD8FF10005A
:021C4E00D9CFEC
:101C5000E6FFE1CFD9FFE652F2940001B30EFC6F2C
:101C6000E20EFD6FE850D76EFCC0D6FF020ED56EB7
:101C7000D58EF194F28ADF6A090EDF5C0DE2EA6A22
:101C8000DF34FE0BEA36E96EE80EE926000EEA22A2
:101C9000EE6AED6ADF2AF0D7E552E552E7CFD9FFC9
:101CA0001200D9CFE6FFE1CFD9FFFE0EDB5002E1F3
:101CB000F19401D0F184E552E7CFD9FF1200D9CFDA
:101CC000E6FFE1CFD9FFFE0EDB50090803E2F36A1D
:101CD000F46A12D0FE0EEA6ADB34FE0BEA36E96ED5
:101CE000E80EE926000EEA22EECF10F0EFCF11F059
:101CF00010C0F3FF11C0F4FFE552E7CFD9FF120087
:101D0000D9CFE6FFE1CFD9FFFE0EDB50090810E383
:101D1000FE0EEA6ADB34FE0BEA36E96EE80EE926CF
:101D2000000EEA22FC0EDBCFEEFFFD0EDBCFEDFF57
:101D3000E552E7CFD9FF1200D9CFE6FFE1CFD9FFB7
:101D4000E652090EDF6EF250E840E8403F0B010B0F
:101D500023E0F294FDC010F01050D76EFCC0D6FF07
:101D6000DF501AE0DF06EA6ADF34FE0BEA36E96E7E
:101D7000E80EE926000EEA22EE50ED10F1E0EA6AE4
:101D8000DF34FE0BEA36E96EE80EE926000EEA22A1
:101D9000EE06000EEF5AE4D7E552E552E7CFD9FF41
:021DA00012002F
:0E1DA200D9CFE6FFE1CFD9FF020EE126580EA1
:101DB000DE6E020EDD6E9B8CDFCF10F0DF06010EB3
:101DC000DBCF11F001E2DB0610501110F5E1020E3D
:101DD000E15C02E2E16AE552E16EE552E7CFD9FF4C
:101DE0001200F28EF28CD08E1200F29EF29CD09EE7
:101DF0001200D9CFE6FFE1CFD9FF42D8FE0EDB506B
:101E00000E0812E3FE0EEA6ADB34FE0BEA36E96ED8
:101E1000600EE926000EEA22EE50EFCFEAFFE96EEF
:101E2000FD0EDBCFEFFF27D0650EF36EFE0EDBCF8E
:101E3000F4FFF350F45C1FE3FE0EDB5079081BE364
:101E4000640E106E0C6EFE0EDBCF07F0D2EC0FF0BE
:101E50000350E66EFD0EEA6ADB34FE0BEA36E96EED
:101E60007E0EE926000EEA22EE50EFCFEAFFE96E81
:101E7000E552E750EF6E0BD8E552E7CFD9FF1200DD
:101E8000550EA76EAA0EA76E0E01FF6B1200550E1F
:0E1E9000A76EAA0EA76E0E01010EFF6F1200C4
:021E9E002A0E0A
:101EA000F66E100EF76E000EF86E0E010900F5507A
:101EB000236F0900F550246F03E1236701D03DD063
:101EC0000900F5501E6F0900F5501F6F0900F5500D
:101ED000206F09000900F550E96E0900F550EA6E1F
:101EE000090009000900F550216F0900F550226F23
:101EF00009000900F6CF25FEF7CF26FEF8CF27FE12
:101F00001ECEF6FF1FCEF7FF20CEF8FF0E012153A5
:101F100002E1225307E00900F550EE6E2107F8E2D6
:101F20002207F9D725CEF6FF26CEF7FF27CEF8FFFA
:0C1F30000E012307000E245BBFD7120037
:041F3C00036A026AC8
:101F4000100EE76ED89006360736023603360B5071
:101F5000025C0C50035805E30B50025E0C50035A10
:081F6000062AE72EF0D712005B
:081F6800C00EF36E00EE00F064
:101F70000E0E01D81200EA6002D0EE6AFCD7F350D0
:081F8000E9601200EE6AFCD7D3
:081F88001DEE00F02DEE00F04B
:101F9000F86A0F9C4FEC0FF0E0EC0FF043EC0DF003
:041FA000FBD7120059
:0C1FA400036A080EE76ED890073603367B
:101FB0000C50035C02E3036E072AE72EF7D71200EA
:021FC00012000D
:0E1FC200E70EE80EE90EEA0EEC0EED0EEE0E46
:101FD000F20EF30EF60EF70EFB0EFC0EFD0EFE0ECD
:101FE000C60EC70EC80EC90ECA0ECB0ECC0ECD0E35
:101FF000CE0ECF0ED00ED10ED20ED30E00000000AA
:102000000000D70ED80ED90EDA0EDB0EDC0EDD0E78
:02201000DE0EE2
:0420120005000000C5
:0A201600FEFDFBF7EFDFBF7F0000C7
:1020200000000000000000000000000000000000B0
:1020300000000000000000000000000000000000A0
:0E204000000000000000000000000000000092
:02204E00920FEF
:10205000930F940F950F960F800F810F820F830FB0
:0C206000840F890F8A0F8B0F8C0F8D0FDF
:017FF800AFD9
:00000001FF
