:020000040000FA
:060000003BEF0AF01200C4
:0600080004EF08F01200F5
:060018000CEF08F01200DD
:061000003BEF0AF01200B4
:06100800C4EF09F0120024
:06101800CBEF09F012000D
:06102A0001009414000017
:08103000600000001E0000003A
:08103800D9CFE6FFE1CFD9FF9B
:10104000FD0EDB96DB98DB9ADB9CDB9EFC0EDB92D5
:10105000DB94DB96DB98DB9ADB9CDB9EDB501DE1AF
:10106000010EF36EFD0EDB5004E0D890F336E80677
:10107000FCE1F350F31C006EFE0EEA6ADB34FE0B5B
:10108000EA36E96E600EE926000EEA22EE50EFCF56
:10109000EAFFE96E0050EF161AD0010EF36EFD0E56
:1010A000DB5004E0D890F336E806FCE1F350FE0E86
:1010B000EA6ADB34FE0BEA36E96E600EE926000EC2
:1010C000EA22EE50EFCFEAFFE96EF350EF12E5525D
:1010D000E7CFD9FF1200D9CFE6FFE1CFD9FFFD0E50
:1010E000DB96DB98DB9ADB9CDB9EFC0EDB92DB94D1
:1010F000DB96DB98DB9ADB9CDB9EDB041BE1010EBD
:10110000F36EFD0EDB5004E0D890F336E806FCE108
:10111000F350FE0EEA6ADB34FE0BEA36E96E740E1B
:10112000E926000EEA22EE50EFCFEAFFE96EF35017
:10113000EF121CD0010EF36EFD0EDB5004E0D890D0
:10114000F336E806FCE1F350F31C006EFE0EEA6A8B
:10115000DB34FE0BEA36E96E740EE926000EEA2255
:10116000EE50EFCFEAFFE96E0050EF16E552E7CF01
:10117000D9FF1200D9CFE6FFE552E7CFD9FF120021
:10118000D9CFE6FFE1CFD9FFFD0EDB96DB98DB9AE6
:10119000DB9CDB9E010EF36EFD0EDB5004E0D8906D
:1011A000F336E806FCE1F350FE0EEA6ADB34FE0B90
:1011B000EA36E96E740EE926000EEA22EE50EFCF11
:1011C000EAFFE96EF350EF1AE552E7CFD9FF1200BC
:1011D000D9CFE6FFE1CFD9FFFD0EDB96DB98DB9A96
:1011E000DB9CDB9EDBCF00F0FE0EEA6ADB34FE0BFD
:1011F000EA36E96E6A0EE926000EEA22EE50EFCFDB
:10120000EAFFE96EEF5000C0E7FFE75204E0E84272
:101210007F0BE706FCE1010BE552E7CFD9FF120097
:10122000D9CFE6FFE1CFD9FFFE0EEA6ADB34FE0B31
:10123000EA36E96E740EE926000EEA22EE50EFCF90
:10124000EAFFE96EFD0EDBCFEFFFE552E7CFD9FFF6
:101250001200D9CFE6FFE1CFD9FFFE0EEA6ADB34F8
:10126000FE0BEA36E96E6A0EE926000EEA22EE501F
:10127000EFCFEAFFE96EEF50E552E7CFD9FF12005A
:10128000D9CFE6FFE1CFD9FFFE0EEA6ADB34FE0BD1
:10129000EA36E96E600EE926000EEA22EE50EFCF44
:1012A000EAFFE96EFD0EDBCFEFFFE552E7CFD9FF96
:1012B0001200D9CFE6FFE1CFD9FFFE0EEA6ADB3498
:1012C000FE0BEA36E96E600EE926000EEA22EE50C9
:1012D000EFCFEAFFE96EEF50E552E7CFD9FF1200FA
:1012E000D9CFE6FFE552E7CFD9FF1200D9CFE6FF0D
:0A12F000000EE552E7CFD9FF12000F
:0612FA00D9CFE6FFE1CFB1
:10130000D9FF030EE1260F0148694969E66A010E1B
:10131000E66E40EC09F0E552E552010EF36E020E66
:10132000F3CFDBFF020EDBCFE6FF010EE66E10EC23
:1013300009F0E552E552DE6ADD6ADECF00F0DDCF6E
:1013400001F0026AD8900250000A06E6500E005CD6
:10135000C30E0158000E025805E2DF2A010EEDE32C
:10136000DB2AEBD7010EE66E29EC09F0E552E76EB9
:10137000020EE7CFDBFFDBCFF3FFF39EF346F3CFA5
:10138000DBFFDB50CFE1C9D7DACFE4FFE652E5520D
:10139000E5CFDAFF1100D8CFE4FFE0CFE4FFE46E41
:1013A000DACFE4FFE652E552E5CFDAFFE550E5CFCC
:0813B000E0FFE5CFD8FF1000BB
:0813B8002A0EF66E100EF76E0E
:1013C000000EF86E00010900F550836F0900F5501A
:1013D000846F03E1836701D03DD00900F5507E6F33
:1013E0000900F5507F6F0900F550806F0900090072
:1013F000F550E96E0900F550EA6E09000900090090
:10140000F550816F0900F550826F09000900F6CF91
:1014100085F0F7CF86F0F8CF87F07EC0F6FF7FC06B
:10142000F7FF80C0F8FF0001815302E1825307E01B
:101430000900F550EE6E8107F8E28207F9D785C002
:10144000F6FF86C0F7FF87C0F8FF00018307000E94
:06145000845BBFD712000F
:0A145600C00EF36E00EE00F00E0E63
:1014600001D81200EA6002D0EE6AFCD7F350E960BE
:061470001200EE6AFCD739
:0A1476001DEE00F02DEE00F0F86A04
:10148000049CDCEC09F049EC0AF07DEC09F0FBD798
:02149000120048
:02149200120046
:0C149400920F930F940F950F960F800F8E
:1014A000810F820F830F840F890F8A0F8B0F8C0F90
:0214B0008D0F9E
:017FF800AFD9
:00000001FF
