:020000040000FA
:0600000007EF16F01200EC
:0600080004EF08F01200F5
:060018000CEF08F01200DD
:0610000007EF16F01200DC
:06100800FBEF13F01200E3
:0610180046EF14F0120087
:06102A000100602C000033
:08103000600000005000000008
:08103800D9CFE6FFE1CFD9FF9B
:10104000E652A098636A626A0F01266B020EE66E92
:10105000E66AE66A270EE66E0F0EE66EDDEC15F028
:10106000106E050EE15E10500F01160E396F9F0EC7
:10107000376F7B0E366FDF6ADF50106E116A0C0E11
:10108000105C000E115810E2DF50040DF3CFE9FFA1
:10109000F4CFEAFF000EE926040EEA22EE6AEE6AB9
:1010A000EE6AEE6ADF2AE8D7658C0F01386B659827
:1010B000659C62A607D062960001C86BCD6BCE6BB3
:1010C000CF6BF7D70001010EE16FE26FE36BE46BCA
:1010D000D56BDF6A030EDF5C26E2EA6ADF34FE0BC3
:1010E000EA36E96EBE0EE926000EEA22EE6AED6AE5
:1010F000EA6ADF34FE0BEA36E96EB80EE926000E26
:10110000EA22EE6AED6ADF50EA6AD90FE96E000E54
:10111000EA22EF6ADF50EA6ADC0FE96E000EEA228B
:10112000EF6ADF2AD7D70001080EBE6F040EBF6F2B
:101130000F01160E266F0401300E026F040E036FAE
:10114000080E016F840E006F0001B16BB06BE552A9
:10115000E552E7CFD9FF1200D9CFE6FFE1CFD9FFA3
:10116000E6520001B00509E165BA07D0626A0F01D5
:10117000368136890001020EB06F6250040B07E021
:101180000F013651040B03E062949FEC0EF065B240
:101190005ED06250010B0AE00F013651010B06E0F0
:1011A0004BDFA0880001040EB06F62906250100BFC
:1011B00007E00F013651100B03E089EC0EF0629846
:1011C00062AC1AD00F0136AD0FD0010EE66EE66AA2
:1011D000000EE66EE66A730EE66EE66A61EC14F0E7
:1011E000106E060EE15E1050629C0001DF5101E0BE
:1011F000DF07DF5101E100DA6250200B06E00F014A
:101200003651200B02E06FEC0EF06250020B14E03E
:101210000F013651020B10E0010EE66EE66A000E79
:10122000E66EE66AE6687F0EE66E61EC14F0106E1C
:10123000060EE15E1050636A040E0001E76EB019FD
:10124000E8AE02D0E73402D0E750B05D02E2A198E8
:101250003AD00F0136A736D0DF6A040EDF5C32E2E7
:1012600062A630D064CFD6F00001D651780BE842A8
:10127000E842E842D76F6296D6B506D0D751EA6AFF
:10128000DC0FE96E000E05D0D751EA6AD90FE96E7E
:10129000000EEA22EF70D75103E1B7EC0EF010D048
:1012A000000EE66EE66AD60EE66E000EE66E720E72
:1012B000E66EE66A61EC14F0106E060EE15E105008
:1012C000DF2ACBD7A198E552E552E7CFD9FF12002C
:1012D000D9CFE6FFE1CFD9FF020EE126FD0EDBA458
:1012E00007D0E66AFE0EDBCFE6FF15DAE552E552DF
:1012F000FD0EDBA208D0010EE66EFE0EDBCFE6FF90
:101300000ADAE552E552FE0EDB50116A260F106E26
:101310000F0E112210C0DEFF11C0DDFFDECFE9FF8E
:10132000DDCFEAFFFD0EDBCFEFFF020EE15C02E254
:10133000E16AE552E16EE552E7CFD9FF1200D9CF5D
:10134000E6FFE1CFD9FF020EE126FD0EDB500AE0F9
:10135000FE0EEA6ADB34FE0BEA36E96EBE0EE926C3
:10136000000E09D0FE0EEA6ADB34FE0BEA36E96EA7
:10137000B80EE926000EEA22EECFDEFFEDCFDDFF4C
:10138000D9CFE9FFDACFEAFFEE50ED1003E1F36ABF
:10139000F46A44D0DECFE9FFDDCFEAFF020EE92692
:1013A000000EEA22FB0EDBCFEEFFFC0EDBCFEDFFE3
:1013B000DECFE9FFDDCFEAFFEE52FA0EDBCFEFFF23
:1013C000400EDECFE9FFDDCFEAFFE850EF16880ED2
:1013D000DECFE9FFDDCFEAFFE850EF12FD0EDB5074
:1013E0000AE0FE0EEA6ADB34FE0BEA36E96EBE0E58
:1013F000E926000E09D0FE0EEA6ADB34FE0BEA365F
:10140000E96EB80EE926000EEA22EF74DECF10F086
:10141000DDCF11F010C0F3FF11C0F4FF020EE15C4C
:1014200002E2E16AE552E16EE552E7CFD9FF120030
:10143000D9CFE6FFE1CFD9FF020EE126FE0EDB5049
:1014400020E1B6C0E9FFB7C0EAFFEE52080EEF6E2A
:10145000B6C0E9FFB7C0EAFF020EE926000EEA2295
:10146000300EEE6E040EED6EB6C0E9FFB7C0EAFFB7
:101470008C0EEF6EBEC0E9FFBFC0EAFF840EEF6EB8
:101480003BD0FD0EDB50E824126EFE0EDB50040D47
:10149000F3501224040DF3CF10F0F4CF11F0000E2E
:1014A0001026040E112210C0DEFF11C0DDFF840ED5
:1014B000DECFE9FFDDCFEAFFE850EF12FD0EDB5093
:1014C000E824126EFE0EDB50040DF3501224010FBF
:1014D000040DF3CF10F0F4CF11F0000E1026040E1F
:1014E000112210C0DEFF11C0DDFF840EDECFE9FF48
:1014F000DDCFEAFFE850EF12020EE15C02E2E16AA2
:10150000E552E16EE552E7CFD9FF1200D9CFE6FFF1
:10151000E1CFD9FF65A84ED0FE0EEA6ADB34FE0BA0
:10152000EA36E96EBE0EE926000EEA22EE50EFCF53
:10153000EAFFE96E400EEE16EE6AEE6AEE6AFE0E05
:10154000EA6ADB34FE0BEA36E96EBE0EE926000ECF
:10155000EA22EE50EFCFEAFFE96EEE7CFE0EEA6A79
:10156000DB34FE0BEA36E96EBE0EE926000EEA22F7
:10157000EF74400E106EFE0EEA6ADB34FE0BEA36A4
:10158000E96EBE0EE926000EEA22EE50EFCFEAFF2A
:10159000E96E1050EF16FE0EEA6ADB34FE0BEA36F7
:1015A000E96EBE0EE926000EEA22EE50EFCFEAFF0A
:1015B000E96EEF7CE552E7CFD9FF1200656A0F01B3
:1015C000366B0001B06B12000001B05114E1656A86
:1015D0000F01366B160E396F9F0E376F7B0E366F0D
:1015E000D08EA288A088F28E65B602D06586FCD720
:1015F0000001010EB06F12000001E1514DE1010E3A
:10160000E16FE25149E1010EE26F020EC55D0DE1AD
:10161000BEC0E9FFBFC0EAFFEE52EF6ABEC0E9FFFD
:10162000BFC0EAFFC80EEF6E1200C50535E1D86BEA
:10163000B4C0E9FFB5C0EAFFEE52080EEF6EB4C0C9
:10164000E9FFB5C0EAFF020EE926000EEA22300EDD
:10165000EE6E040EED6EB4C0E9FFB5C0EAFF840E75
:10166000EF6E010ED86FB6C0E9FFB7C0EAFFEE52C9
:10167000080EEF6EB6C0E9FFB7C0EAFF020EE9261A
:10168000000EEA22300EEE6E040EED6EB6C0E9FFDB
:10169000B7C0EAFF800EEF6E12000001E36BE46B4F
:1016A000020EC55D18E1B6C0E9FFB7C0EAFFEE5211
:1016B000080EEF6EB6C0E9FFB7C0EAFF020EE926DA
:1016C000000EEA22380EEE6E040EED6EB6C0E9FF93
:1016D000B7C0EAFF1DD0C9510401365D0001CA51EF
:1016E0000401375904E236C4C9F037C4CAF0CAD875
:1016F000BEC0E9FFBFC0EAFF020EE926000EEA22E3
:10170000380EEE6E040EED6EBEC0E9FFBFC0EAFFFC
:10171000C80EEF6E1200D9CFE6FFE1CFD9FF020E5F
:10172000E126000EDE6E040EDD6EFD0EDB50E824B9
:10173000126EFE0EDB50040DF3501224040DF4CF94
:1017400011F0D9CFE9FFDACFEAFFF350EE261150BE
:10175000ED22DECFE9FFDDCFEAFFEF9EFD0EDB508D
:101760000AE1FE0EEA6ADB34FE0BEA36E96EB80ED9
:10177000E926000E09D0FE0EEA6ADB34FE0BEA36DB
:10178000E96EBE0EE926000EEA22DECFEEFFDDCFC7
:10179000EDFFDECFE9FFDDCFEAFFEF9CDECFE9FF13
:1017A000DDCFEAFF040EE926000EEA22EF8C020EDE
:1017B000E15C02E2E16AE552E16EE552E7CFD9FF72
:1017C000120065980001C8BF2BD0CDAF09D0020E22
:1017D000C56FE45101E161DF0001E26BE16B1200D2
:1017E000B6C0E9FFB7C0EAFFEE52080EEF6EB6C012
:1017F000E9FFB7C0EAFF020EE926000EEA22300E2A
:10180000EE6E040EED6EB6C0E9FFB7C0EAFF8C0EB7
:10181000EF6EBEC0E9FFBFC0EAFF840EEF6E12009C
:10182000040130AF0DD00001010EC56FE35101E19D
:1018300034DF0001E26BE16BE05123E1FCEF0AF0E1
:101840000001020EC56FB6C0E9FFB7C0EAFFEE5255
:10185000080EEF6EB6C0E9FFB7C0EAFF020EE92638
:10186000000EEA22300EEE6E040EED6EB6C0E9FFF9
:10187000B7C0EAFF840EEF6EE26BE16BE05101E16D
:10188000BBDE1200D9CFE6FFE1CFD9FFE652080E4A
:10189000DF6E0001C95D000ECA590AE2C9C0DFFF50
:1018A000C45102E1010E03D0C40502E1020EC46F6F
:1018B000DF50116AE850C95DC96F1150CA59CA6F2B
:1018C000BEC0E9FFBFC0EAFFEE52DFCFEFFF380E28
:1018D000D26F040ED36FC8B118D0DF502DE0C6C050
:1018E000F6FFC7C0F7FFC62B000EC7230800F55050
:1018F000E66ED2C0E9FFD3C0EAFFD22B000ED3239D
:10190000E552E750EF6EDF06E8D7DF5015E0C6C0BE
:10191000E9FFC7C0EAFFC62B000EC723EF50E66EF3
:10192000D2C0E9FFD3C0EAFFD22B000ED323E55289
:10193000E750EF6EDF06E9D7E552E552E7CFD9FF72
:101940001200D9CFE6FFE1CFD9FF020EE126B4C0E5
:10195000E9FFB5C0EAFFEE52EFCFDFFFDFCF10F0B7
:1019600010500001CE5D000ECF5902E2CEC0DFFF65
:10197000DF50106E116AE850CE5DCE6F1150CF5916
:10198000CF6F010EDB6ADF50F36E010EDBCFF4FF89
:10199000F350F45C16E2010EDB50EA6A380FE96E90
:1019A000040EEA22EF50E66ECBC0E9FFCCC0EAFF9E
:1019B000CB2B000ECC23E552E750EF6E010EDB2A55
:1019C000E2D7000ED880CE55000ECF5527E2B6C024
:1019D000E9FFB7C0EAFFEE52080EEF6EB6C0E9FFAE
:1019E000B7C0EAFF020EE926000EEA22380EEE6EBC
:1019F000040EED6EB4C0E9FFB5C0EAFFEF50400B36
:101A000006E1B6C0E9FFB7C0EAFFC80E05D0B6C010
:101A1000E9FFB7C0EAFF880EEF6E28D0B6C0E9FF35
:101A2000B7C0EAFFEE52080EEF6EB6C0E9FFB7C0CE
:101A3000EAFF020EE926000EEA22300EEE6E040ED8
:101A4000ED6EB6C0E9FFB7C0EAFF840EEF6ED0516D
:101A5000D11107E005D0D1C0FAFF0001D051F96ED5
:101A6000FADF0001CD9FE05101E1C6DD020EE15C2D
:101A700002E2E16AE552E16EE552E7CFD9FF1200DA
:101A8000D9CFE6FFE1CFD9FFE6520001C88F020EA1
:101A9000E66EE66AE66A270EE66E0F0EE66EDDEC8F
:101AA00015F0106E050EE15E1050300EE66EE66A1F
:101AB000E66A000EE66E040EE66EDDEC15F0106EC2
:101AC000050EE15E1050658CDF6A030EDF5C10E2EC
:101AD000DF50EA6AD90FE96E000EEA22EF6ADF50A2
:101AE000EA6ADC0FE96E000EEA22EF6ADF2AEDD720
:101AF000020EE66EE66AE66AB20EE66E000EE66E6C
:101B0000DDEC15F0106E050EE15E1050659C0001D5
:101B1000080EBE6F040EBF6F000EB46F040EB56FDB
:101B2000B4C0B6F0B76F32C4B1F0B15102E1100EDB
:101B300012D0010EE66EE66AB10EE66E000EE66E9B
:101B4000010EE66EE66A61EC14F0106E060EE15EC0
:101B500010500001200EB06FE552E552E7CFD9FFDB
:101B60001200800E0401305D58E10001C00EC86F04
:101B700004013351030A2FE0010A09E0030A4BE193
:101B80000001520EC66F2A0EC76F120E3ED03251A0
:101B9000F66EF76AD890F636F736130EF6262B0E49
:101BA000F7220900F5CFC6F00A00F5CFC7F0020E04
:101BB0000001F76AC625F66EC751F7220800F5CF77
:101BC000C9F0030EF76AC625F66EC751F722080062
:101BD000F5CFCAF01200030E325D1AE23251F66EF2
:101BE000F76AD890F636F736150EF6262B0EF72242
:101BF0000900F5CFC6F00A00F5CFC7F0C6C0F6FF62
:101C0000C7C0F7FF0800F5500001C96FCA6B12008A
:101C10000001C86B12000001C86B1200D9CFE6FFAB
:101C2000E1CFD9FF020EE1260401386B396B305148
:101C30001F0B020A11E0030A0CE0010A3CE100015B
:101C4000C88F040138810001D40535E104013883CF
:101C500032D00001C88F2FD00001C88F040134BFDB
:101C60000BD034510F0BE96EEA6AD890E936EA36A8
:101C7000B80EE926000E0AD034510F0BE96EEA6A5D
:101C8000D890E936EA36BE0EE926000EEA22EECFFB
:101C9000DEFFEDCFDDFFDECFE9FFDDCFEAFFEF5066
:101CA000800B09E0DECFE9FFDDCFEAFFEF50040B48
:101CB00002E0010E386F0001C8AF07D0380EC66FC2
:101CC000040EC76FC881020EC96F020EE15C02E20A
:101CD000E16AE552E16EE552E7CFD9FF12000F014C
:101CE00026A115D0B4C0E9FFB5C0EAFFEF508008C7
:101CF0000DE1BEC0E9FFBFC0EAFFEF50840806E176
:101D0000B4C0E9FFB5C0EAFF8C0EEF6E2691629A6F
:101D100012000F013685629865820001010ED56FB1
:101D2000000EE66EE66AE66EE66A750EE66EE66A36
:101D300061EC14F0106E060EE15E1050120000010E
:101D4000D56B000EE66EE66AE66EE66A740EE66E27
:101D5000E66A61EC14F0106E060EE15E10506592BA
:101D60000F01369562A402D06294FCD71200D9CF3D
:101D7000E6FFE1CFD9FFE65200012D0EDF6FFD0E29
:101D8000D61553E17E0ED615E8407F0B040DF3CF38
:101D9000B4F0F4CFB5F0000EB427040EB523B4C0F0
:101DA000B6F0B5C0B7F0B675B4C0E9FFB5C0EAFF8C
:101DB000EF503C0BE842E8420D0835E1DF6A080EBF
:101DC000DF5C23E2B4C0E9FFB5C0EAFF020EE926FA
:101DD000000EEA22EE50EFCFEAFFE96EEF50E66E1A
:101DE000DF50EA6A300FE96E040EEA22E552E7504E
:101DF000EF6EB4C0E9FFB5C0EAFF020EE926000E9F
:101E0000EA22EE2AEF22DF2ADAD7B4C0E9FFB5C012
:101E1000EAFF020EE926000EEA22300EEE6E040EF4
:101E2000ED6E0DD807D03AD805D0FD0ED6150408B2
:101E300001E159D8E552E552E7CFD9FF1200000180
:101E4000C46BE06BE36BE46BD86BC56BBEC0E9FFA2
:101E5000BFC0EAFFEF9EBE75BEC0E9FFBFC0EAFF8C
:101E6000EF9EBE75B6C0E9FFB7C0EAFFEF9EC86B34
:101E7000C96BCA6BCD6BCE6BCF6B8FD8000EE66E85
:101E8000E66AE66EE66A030EE66EE66A61EC14F058
:101E9000106E060EE15E1050E1EF0BF0020E000135
:101EA000C55D02E1A1EF0CF0C56BD8511AE1B6C0D7
:101EB000E9FFB7C0EAFFEE52080EEF6EB6C0E9FFC9
:101EC000B7C0EAFF020EE926000EEA22300EEE6EDF
:101ED000040EED6EB6C0E9FFB7C0EAFF8C0EEF6EE0
:101EE0001200D86B1200D9CFE6FFE1CFD9FFE6523E
:101EF000BEC0E9FFBFC0EAFFEF50400B01E0010E9A
:101F0000DF6E0001BE75080EB05D0BE132C438FF14
:101F10000F01385103E00001100E02D00001040E41
:101F2000B06FC50526E1BEC0E9FFBFC0EAFF020EE3
:101F3000E926000EEA22380EEE6E040EED6EA2DCEB
:101F4000020E0001C45D06E1BEC0E9FFBFC0EAFFAA
:101F5000840E0DD0DF5006E1BEC0E9FFBFC0EAFF2E
:101F6000C80E05D0BEC0E9FFBFC0EAFF880EEF6E05
:101F70000FD0CDAF0CD0D051D11107E005D0D1C0DA
:101F8000FAFF0001D051F96EFADF0001CD9FC56B59
:101F9000E552E552E7CFD9FF120004013051600B42
:101FA000E842E842E842E842E842000901E0120063
:101FB00031510C0A50E00B0A3FE00C0A31E0010AF3
:101FC00022E00B0A1EE0020A1CE0030A18E0080ADD
:101FD00010E0010A0CE00F0A08E0030A01E0120019
:101FE0000001C88F080EB06F1200B1EF0DF040EF86
:101FF0000DF00001B10EC66F000EC76F0CD00EEFD2
:102000000EF02CEF10F034510001C66FC76BB20E0A
:10201000C627000EC723C881010EC96FC88F1200E2
:102020000001C88F04013451EA6AB20FE96E000E54
:10203000EA2232C4EFFF1200000EE66EE66AE66E98
:10204000E66A020EE66EE66A61EC14F0106E060EA9
:10205000E15E105012001200D9CFE6FFE1CFD9FFA8
:10206000050EE1260401320510E130511F0B000975
:102070000CE10001C88F030E0401315D04E1000191
:10208000010ED46F02D00001D46B0401325101E083
:1020900011D130511F0B020801E00CD134510F0B4C
:1020A000000901E107D134510F0B020801E202D10E
:1020B000200E0001B05D01E0FDD0C88F040134BFE7
:1020C00016D034510F0BE96EEA6AD890E936EA3639
:1020D000B80EE926000EEA22EECFDEFFEDCFDDFFDF
:1020E00034510F0BEA6ADC0FE96E000E15D0345143
:1020F0000F0BE96EEA6AD890E936EA36BE0EE92699
:10210000000EEA22EECFDEFFEDCFDDFF34510F0BE4
:10211000EA6AD90FE96E000EEA22020EEFCFDBFF6A
:10212000D950020FE96EDACFEAFFEF50010B03E15D
:10213000000EDF9401D0DF8434BF0BD034510F0B7D
:10214000E96EEA6AD890E936EA36B80EE926000E5A
:102150000AD034510F0BE96EEA6AD890E936EA36B4
:10216000BE0EE926000EEA22DECFEEFFDDCFEDFF48
:10217000030E315D20E1DECFE9FFDDCFEAFFEF5056
:10218000800B11E034BF07D034510F0BEA6ADC0F2B
:10219000E96E000E06D034510F0BEA6AD90FE96ED2
:1021A000000EEA22EF82840EDECFE9FFDDCFEAFFE8
:1021B000E850EF127FD0DF74DECFE9FFDDCFEAFF1A
:1021C000EF50800B1BE0DECFE9FFDDCFEAFFEF9E93
:1021D000DECFE9FFDDCFEAFFEF8C020EE66EE66AA6
:1021E000DECFE6FFDDCFE6FF050EE66EE66A61ECC8
:1021F00014F0106E060EE15E105005D0DECFE9FF40
:10220000DDCFEAFFEF8CDF74D950020FE96EDACF31
:10221000EAFFEF50020B07E1DECFE9FFDDCFEAFF77
:10222000EF50800B2BE0040134BF07D034510F0B6B
:10223000EA6ADC0FE96E000E06D034510F0BEA6A31
:10224000D90FE96E000EEA22EF923B0E106EDECF40
:10225000E9FFDDCFEAFFE850EF16020EE66EE66A10
:10226000DECFE6FFDDCFE6FF050EE66EE66A61EC47
:1022700014F0106E060EE15E105007D03B0EDECF5C
:10228000E9FFDDCFEAFFE850EF16040134510F0BF0
:10229000116A260F106E0F0E1122030E10C0DBFF05
:1022A000040E11C0DBFF030EDBCFE9FF040EDBCF12
:1022B000EAFFEF90050EE15C02E2E16AE552E16EB1
:0822C000E552E7CFD9FF12003F
:0822C800040130511F0B010855
:1022D00001E012003051600BE842E842E842E84277
:1022E000E842010801E01200345103E0340501E046
:1022F00012003151220A31E0030A24E0010A15E0FC
:10230000210A0DE0010A01E012000001E20EC66F91
:10231000040EC76F080EC96FCA6BC88121D00001B7
:10232000E20EC66F040EC76F1BD036C4CEF037C4A2
:10233000CFF00001C00ECB6F040ECC6FD06BD16B11
:10234000CD8F12000001C00EC66F040EC76F070EBE
:10235000C96FCA6BC10EC86F120032C4DDF4000130
:10236000C88F12000401C06B4B0EC16FC26BC36BF0
:10237000C46BC56B080EC66FD16B1A0EE66E010EEC
:10238000E66E68EC09F0E552E5521E0EE66E020EAE
:10239000E66E68EC09F0E552E552400EE66E800EFE
:1023A000E66E040EE66EE66A020EE66E9FEC09F03B
:1023B000106E050EE15E1050F3CFD9F4F4CFDAF4CD
:1023C0000401DB6BDC6BD26B1200D9CFE6FFE1CFEF
:1023D000D9FFFD0EDBCF06F0FE0EDBCF07F0050EBA
:1023E000061801E1075002E0000E30D0FB0EDBCFF3
:1023F00010F0FC0EDBCF11F00401D951101816E1DA
:10240000DA51111813E1400EE66E800EE66E040EEE
:10241000E66EE66A020EE66E9FEC09F0106E050E9F
:10242000E15E1050F3CFD9F4F4CFDAF4FB0EDBCF3A
:1024300010F0FC0EDBCF11F00401DB51101805E1A8
:10244000DC51111802E1D26BD76B010EE552E7CFD8
:10245000D9FF1200D9CFE6FFE1CFD9FF0401D16B3C
:10246000D951DA1102E1000E08D0D9C4E9FFDAC46B
:10247000EAFFEF50800B01E0010E000945E1FC0E80
:10248000DBCF10F0D9C4E9FFDAC4EAFFEE52EF5017
:10249000D880105408E2D9C4E9FFDAC4EAFFEE524A
:1024A000FC0EEFCFDBFFD16BFC0EDB50D15D19E2F0
:1024B000D151EA6A800FE96E040EEA22EF50E66E0F
:1024C000D151E76EFD0EDBCFE9FFFE0EDBCFEAFF59
:1024D000E750E926000EEA22E552E750EF6ED12BD5
:1024E000E3D7400EE66E800EE66E040EE66EE66AF8
:1024F000020EE66E9FEC09F0106E050EE15E1050C4
:10250000F3CFD9F4F4CFDAF40401D151E552E7CF97
:10251000D9FF1200D9CFE6FFE1CFD9FFA09804017F
:10252000D2510CE1FD0EDBCFD3F4FE0EDBCFD4F4A1
:10253000FC0EDBCFD7F4010ED86FD26FA088E55226
:10254000E7CFD9FF1200D9CFE6FFE1CFD9FF030EC5
:10255000E126A0980401D2512DE1DF6AFD0EDBCF08
:1025600006F0FE0EDBCF07F0DE5206C0DEFF07C02E
:10257000DDFFDD52DF2ADF50106E116AFF0E1018EA
:1025800002E111500BE0010EDBCFE9FFDB2A020E66
:10259000DBCFEAFF01E3DB2AEF50ECE1FD0EDBCFFE
:1025A000D3F4FE0EDBCFD4F4DFCFD7F40401010E59
:1025B000D86FD26FA088030EE15C02E2E16AE552B7
:1025C000E16EE552E7CFD9FF1200D9CFE6FFE1CFA8
:1025D000D9FF030EE126A0980401D2512EE1DF6A53
:1025E000FD0EDBCF06F0FE0EDBCF07F0DE5206C09D
:1025F000DEFF07C0DDFFDD52DF2ADF50106E116AFB
:10260000FF0E101802E111500CE0010EDBCFF6FFB7
:10261000DB2A020EDBCFF7FF01E3DB2A0800F550CF
:10262000EBE1FD0EDBCFD3F4FE0EDBCFD4F4DFCF36
:10263000D7F40401D86B010ED26FA088030EE15CC1
:1026400002E2E16AE552E16EE552E7CFD9FF1200FE
:10265000D9CFE6FFE1CFD9FF020EE126A098040111
:10266000DB51DC1102E1000E08D0DBC4E9FFDCC461
:10267000EAFFEF50800B01E0010E000906E1030EB6
:10268000D25D01E1D26BD25102E1A0887ED0020E70
:10269000D25D16E1E66A000EE66EE66A010EE66EAF
:1026A000020EE66E9FEC09F0106E050EE15E105012
:1026B000F3CFDBF4F4CFDCF40401030ED26F64D06B
:1026C000D20562E1400E106E116AD751105C000E07
:1026D000115803E2400EDF6E02D0D7C4DFFFDF5097
:1026E000D75DD76F400ED56F040ED66F010EDFCFCA
:1026F000DBFFD85116E1010EDB5028E0D3C4F6FF12
:10270000D4C4F7FF0800F550D5C4E9FFD6C4EAFFEA
:10271000EF6ED52B000ED623D32BD423010EDB0670
:10272000EAD7010EDB5012E0D3C4E9FFD4C4EAFFBC
:10273000EF50D5C4E9FFD6C4EAFFEF6ED52B000EEB
:10274000D623D32BD423010EDB06EBD70401D751BC
:1027500007E1400EDF5C02E1020E01D0030ED26FF2
:10276000DFCFE6FF400EE66E040EE66E010EE66E6B
:10277000020EE66E9FEC09F0106E050EE15E105041
:10278000F3CFDBF4F4CFDCF4A088020EE15C02E2CC
:0E279000E16AE552E16EE552E7CFD9FF120093
:02279E000F0129
:1027A00048694969ABEC14F01CEC08F0CBEC14F070
:1027B0000001B05102E1E4EC0AF001D8F9D7200E93
:1027C0000001E76EB019E8AE02D0E73402D0E7505E
:1027D000B05D03E26550020B0DE10401D25108E146
:1027E000460EE66E2C0EE66EE5EC12F0E552E55272
:1027F00028EC13F01200DACFE4FFE2CFDAFFE9CFE2
:10280000E4FFEACFE4FFF6CFE4FFF7CFE4FFF5CF34
:10281000E4FFF3CFE4FFF4CFE4FFFACFE4FF00EEF0
:1028200000F0100EE80403E3EECFE4FFFBD700EE68
:1028300010F0030EE80403E3EECFE4FFFBD7E6520B
:10284000ACEC08F0E55200EE12F0030EE80403E3EE
:10285000E5CFEDFFFBD700EE0FF0100EE80403E329
:10286000E5CFEDFFFBD7E5CFFAFFE5CFF4FFE5CFEE
:10287000F3FFE5CFF5FFE5CFF7FFE5CFF6FFE5CFB7
:10288000EAFFE5CFE9FFE5CFDAFF1100D8CFE4FF9B
:10289000E0CFE4FFE46EDACFE4FFE652E552E5CFA5
:1028A000DAFFE550E5CFE0FFE5CFD8FF10001200DA
:1028B00012001200120064EF11F01200B2EF11F0DA
:1028C0001200D9CFE6FFE1CFD9FFFD0EDBCF06F036
:1028D000FE0EDBCF07F0050E061801E1075036E0CB
:1028E000E868061802E17F0E07182FE0030E0618AD
:1028F00001E1075028E0020E061801E1075021E02F
:10290000010E061801E107501AE0740E061801E1E5
:10291000075013E0750E061801E107500CE0730E26
:10292000061801E1075005E0720E06180FE1075086
:102930000DD0BFDF0BD0BBDF09D0BADF07D0BEDFC1
:1029400005D0BBDF03D0B7DF01D0B4DF010EE55205
:06295000E7CFD9FF1200E1
:0A295600D9CFE6FFE1CFD9FF020E52
:10296000E126580EDE6E020EDD6E9B8CDFCF10F07E
:10297000DF06010EDBCF11F001E2DB061050111073
:10298000F5E1020EE15C02E2E16AE552E16EE55238
:10299000E7CFD9FF1200F28EF28CD08E1200F29E99
:1029A000F29CD09E1200D9CFE6FFE1CFD9FF42D8EA
:1029B000FE0EDB500E0812E3FE0EEA6ADB34FE0B5D
:1029C000EA36E96E600EE926000EEA22EE50EFCFFD
:1029D000EAFFE96EFD0EDBCFEFFF27D0650EF36E49
:1029E000FE0EDBCFF4FFF350F45C1FE3FE0EDB5072
:1029F00079081BE3640E106E0C6EFE0EDBCF07F041
:102A000015EC16F00350E66EFD0EEA6ADB34FE0BA1
:102A1000EA36E96E7E0EE926000EEA22EE50EFCF8E
:102A2000EAFFE96EE552E750EF6E0BD8E552E7CFCB
:102A3000D9FF1200550EA76EAA0EA76E0E01FF6BEE
:102A40001200550EA76EAA0EA76E0E01010EFF6FA3
:022A5000120072
:0E2A52001201000202000008D8040A00000170
:102A60000102000109024300020100C03209040012
:102A700000010202010005240010010424020205E5
:102A80002406000105240100010705810308000256
:102A900009040100020A00000007050202400000CC
:102AA000070582024000000403090434034D006955
:102AB00000630072006F006300680069007000200E
:102AC0000054006500630068006E006F006C006FCA
:102AD0000067007900200049006E0063002E00347A
:102AE000034300440043002000520053002D0032F5
:102AF0000033003200200045006D0075006C00615D
:102B000000740069006F006E002000440065006DD5
:0B2B1000006F00642AA72AAB2ADF2A0E
:042B1C002A0EF66E19
:102B2000100EF76E000EF86E04010900F550EF6FFD
:102B30000900F550F06F03E1EF6701D03DD00900C7
:102B4000F550EA6F0900F550EB6F0900F550EC6F96
:102B500009000900F550E96E0900F550EA6E090018
:102B600009000900F550ED6F0900F550EE6F0900FE
:102B70000900F6CFF1F4F7CFF2F4F8CFF3F4EAC49A
:102B8000F6FFEBC4F7FFECC4F8FF0401ED5302E1DC
:102B9000EE5307E00900F550EE6EED07F8E2EE07A0
:102BA000F9D7F1C4F6FFF2C4F7FFF3C4F8FF04014C
:0A2BB000EF07000EF05BBFD7120024
:062BBA00FE0EE3CFE9FF6F
:102BC000FF0EE3CFEAFFE9CFF3FFEACFF4FFFB0EFE
:102BD000E35003E1FC0EE35009E0FB0EE30602E2E2
:0E2BE000FC0EE306FD0EE350EE6EF1D7120080
:022BEE00C00E17
:102BF000F36E00EE00F00E0E01D81200EA6002D073
:0E2C0000EE6AFCD7F350E9601200EE6AFCD7D2
:022C0E001DEEB9
:102C100000F02DEE00F0F86A0F9C8EEC15F02FEC12
:0A2C200016F0CFEC13F0FBD7120002
:062C2A00036A080EE76ECC
:102C3000D890073603360C50035C02E3036E072A74
:062C4000E72EF7D7120099
:0A2C4600486F6C61206D756E646FBD
:0D2C500020736F792055534221210D0A0099
:022C5E00120062
:102C6000E70EE80EE90EEA0EEC0EED0EEE0EF20E99
:102C7000F30EF60EF70EFB0EFC0EFD0EFE0EC60E4C
:102C8000C70EC80EC90ECA0ECB0ECC0ECD0ECE0E80
:102C9000CF0ED00ED10ED20ED30E000000000000D9
:102CA000D70ED80ED90EDA0EDB0EDC0EDD0EDE0EE0
:017FF800AFD9
:00000001FF
